{
  "_format": "hh-sol-artifact-1",
  "contractName": "MetaTxReceiver",
  "sourceName": "contracts/MetaTransaction.sol",
  "abi": [
    {
      "inputs": [],
      "stateMutability": "nonpayable",
      "type": "constructor"
    },
    {
      "inputs": [],
      "name": "ECDSAInvalidSignature",
      "type": "error"
    },
    {
      "inputs": [
        {
          "internalType": "uint256",
          "name": "length",
          "type": "uint256"
        }
      ],
      "name": "ECDSAInvalidSignatureLength",
      "type": "error"
    },
    {
      "inputs": [
        {
          "internalType": "bytes32",
          "name": "s",
          "type": "bytes32"
        }
      ],
      "name": "ECDSAInvalidSignatureS",
      "type": "error"
    },
    {
      "inputs": [],
      "name": "InvalidShortString",
      "type": "error"
    },
    {
      "inputs": [],
      "name": "MetaTxSignatureNotMatch",
      "type": "error"
    },
    {
      "inputs": [
        {
          "internalType": "uint256",
          "name": "actual",
          "type": "uint256"
        },
        {
          "internalType": "uint256",
          "name": "currentNonce",
          "type": "uint256"
        }
      ],
      "name": "NonceTooLow",
      "type": "error"
    },
    {
      "inputs": [
        {
          "internalType": "string",
          "name": "str",
          "type": "string"
        }
      ],
      "name": "StringTooLong",
      "type": "error"
    },
    {
      "anonymous": false,
      "inputs": [],
      "name": "EIP712DomainChanged",
      "type": "event"
    },
    {
      "inputs": [],
      "name": "eip712Domain",
      "outputs": [
        {
          "internalType": "bytes1",
          "name": "fields",
          "type": "bytes1"
        },
        {
          "internalType": "string",
          "name": "name",
          "type": "string"
        },
        {
          "internalType": "string",
          "name": "version",
          "type": "string"
        },
        {
          "internalType": "uint256",
          "name": "chainId",
          "type": "uint256"
        },
        {
          "internalType": "address",
          "name": "verifyingContract",
          "type": "address"
        },
        {
          "internalType": "bytes32",
          "name": "salt",
          "type": "bytes32"
        },
        {
          "internalType": "uint256[]",
          "name": "extensions",
          "type": "uint256[]"
        }
      ],
      "stateMutability": "view",
      "type": "function"
    },
    {
      "inputs": [
        {
          "internalType": "address",
          "name": "from",
          "type": "address"
        }
      ],
      "name": "metaTxGetNonce",
      "outputs": [
        {
          "internalType": "uint256",
          "name": "",
          "type": "uint256"
        }
      ],
      "stateMutability": "view",
      "type": "function"
    },
    {
      "inputs": [
        {
          "internalType": "address",
          "name": "from",
          "type": "address"
        },
        {
          "internalType": "bytes",
          "name": "data",
          "type": "bytes"
        }
      ],
      "name": "metaTxPrepare",
      "outputs": [
        {
          "components": [
            {
              "internalType": "address",
              "name": "from",
              "type": "address"
            },
            {
              "internalType": "uint256",
              "name": "nonce",
              "type": "uint256"
            },
            {
              "internalType": "bytes",
              "name": "data",
              "type": "bytes"
            }
          ],
          "internalType": "struct MetaTxReceiver.ForwardRequest",
          "name": "",
          "type": "tuple"
        },
        {
          "internalType": "bytes32",
          "name": "",
          "type": "bytes32"
        }
      ],
      "stateMutability": "view",
      "type": "function"
    },
    {
      "inputs": [
        {
          "internalType": "address",
          "name": "from",
          "type": "address"
        },
        {
          "internalType": "bytes",
          "name": "data",
          "type": "bytes"
        },
        {
          "internalType": "uint256",
          "name": "nonce",
          "type": "uint256"
        }
      ],
      "name": "metaTxPrepareWithNonce",
      "outputs": [
        {
          "components": [
            {
              "internalType": "address",
              "name": "from",
              "type": "address"
            },
            {
              "internalType": "uint256",
              "name": "nonce",
              "type": "uint256"
            },
            {
              "internalType": "bytes",
              "name": "data",
              "type": "bytes"
            }
          ],
          "internalType": "struct MetaTxReceiver.ForwardRequest",
          "name": "",
          "type": "tuple"
        },
        {
          "internalType": "bytes32",
          "name": "",
          "type": "bytes32"
        }
      ],
      "stateMutability": "view",
      "type": "function"
    },
    {
      "inputs": [
        {
          "components": [
            {
              "internalType": "address",
              "name": "from",
              "type": "address"
            },
            {
              "internalType": "uint256",
              "name": "nonce",
              "type": "uint256"
            },
            {
              "internalType": "bytes",
              "name": "data",
              "type": "bytes"
            }
          ],
          "internalType": "struct MetaTxReceiver.ForwardRequest",
          "name": "req",
          "type": "tuple"
        },
        {
          "internalType": "bytes",
          "name": "signature",
          "type": "bytes"
        }
      ],
      "name": "metaTxVerify",
      "outputs": [
        {
          "internalType": "bool",
          "name": "",
          "type": "bool"
        }
      ],
      "stateMutability": "view",
      "type": "function"
    }
  ],
  "bytecode": "0x6101606040523480156200001257600080fd5b506040518060400160405280601881526020017f50686174526f6c6c75704d6574615478526563656976657200000000000000008152506040518060400160405280600581526020017f302e302e31000000000000000000000000000000000000000000000000000000815250620000956000836200013560201b90919060201c565b6101208181525050620000b36001826200013560201b90919060201c565b6101408181525050818051906020012060e08181525050808051906020012061010081815250504660a08181525050620000f26200018d60201b60201c565b608081815250503073ffffffffffffffffffffffffffffffffffffffff1660c08173ffffffffffffffffffffffffffffffffffffffff16815250505050620007e5565b60006020835110156200015b576200015383620001ea60201b60201c565b905062000187565b826200016d836200025760201b60201c565b60000190816200017e9190620004db565b5060ff60001b90505b92915050565b60007f8b73c3c69bb8fe3d512ecc4cf759cc79239f7b179b0ffacaa9a75d522b39400f60e051610100514630604051602001620001cf95949392919062000633565b60405160208183030381529060405280519060200120905090565b600080829050601f815111156200023a57826040517f305a27a90000000000000000000000000000000000000000000000000000000081526004016200023191906200071f565b60405180910390fd5b805181620002489062000775565b60001c1760001b915050919050565b6000819050919050565b600081519050919050565b7f4e487b7100000000000000000000000000000000000000000000000000000000600052604160045260246000fd5b7f4e487b7100000000000000000000000000000000000000000000000000000000600052602260045260246000fd5b60006002820490506001821680620002e357607f821691505b602082108103620002f957620002f86200029b565b5b50919050565b60008190508160005260206000209050919050565b60006020601f8301049050919050565b600082821b905092915050565b600060088302620003637fffffffffffffffffffffffffffffffffffffffffffffffffffffffffffffffff8262000324565b6200036f868362000324565b95508019841693508086168417925050509392505050565b6000819050919050565b6000819050919050565b6000620003bc620003b6620003b08462000387565b62000391565b62000387565b9050919050565b6000819050919050565b620003d8836200039b565b620003f0620003e782620003c3565b84845462000331565b825550505050565b600090565b62000407620003f8565b62000414818484620003cd565b505050565b5b818110156200043c5762000430600082620003fd565b6001810190506200041a565b5050565b601f8211156200048b576200045581620002ff565b620004608462000314565b8101602085101562000470578190505b620004886200047f8562000314565b83018262000419565b50505b505050565b600082821c905092915050565b6000620004b06000198460080262000490565b1980831691505092915050565b6000620004cb83836200049d565b9150826002028217905092915050565b620004e68262000261565b67ffffffffffffffff8111156200050257620005016200026c565b5b6200050e8254620002ca565b6200051b82828562000440565b600060209050601f8311600181146200055357600084156200053e578287015190505b6200054a8582620004bd565b865550620005ba565b601f1984166200056386620002ff565b60005b828110156200058d5784890151825560018201915060208501945060208101905062000566565b86831015620005ad5784890151620005a9601f8916826200049d565b8355505b6001600288020188555050505b505050505050565b6000819050919050565b620005d781620005c2565b82525050565b620005e88162000387565b82525050565b600073ffffffffffffffffffffffffffffffffffffffff82169050919050565b60006200061b82620005ee565b9050919050565b6200062d816200060e565b82525050565b600060a0820190506200064a6000830188620005cc565b620006596020830187620005cc565b620006686040830186620005cc565b620006776060830185620005dd565b62000686608083018462000622565b9695505050505050565b600082825260208201905092915050565b60005b83811015620006c1578082015181840152602081019050620006a4565b60008484015250505050565b6000601f19601f8301169050919050565b6000620006eb8262000261565b620006f7818562000690565b935062000709818560208601620006a1565b6200071481620006cd565b840191505092915050565b600060208201905081810360008301526200073b8184620006de565b905092915050565b600081519050919050565b6000819050602082019050919050565b60006200076c8251620005c2565b80915050919050565b6000620007828262000743565b826200078e846200074e565b90506200079b816200075e565b92506020821015620007de57620007d97fffffffffffffffffffffffffffffffffffffffffffffffffffffffffffffffff8360200360080262000324565b831692505b5050919050565b60805160a05160c05160e0516101005161012051610140516115b66200084060003960006106530152600061061801526000610a5f01526000610a3e015260006106b50152600061070b0152600061073401526115b66000f3fe608060405234801561001057600080fd5b50600436106100575760003560e01c806322dae16c1461005c5780635232f0d71461008d57806384b0196e146100be578063bbbfe446146100e2578063f4034a9614610112575b600080fd5b61007660048036038101906100719190610da1565b610142565b604051610084929190610f2c565b60405180910390f35b6100a760048036038101906100a29190610f5c565b61030b565b6040516100b5929190610f2c565b60405180910390f35b6100c661036c565b6040516100d99796959493929190611119565b60405180910390f35b6100fc60048036038101906100f791906111c1565b610416565b6040516101099190611258565b60405180910390f35b61012c60048036038101906101279190611273565b6105ac565b60405161013991906112a0565b60405180910390f35b61014a610c67565b6000600260008773ffffffffffffffffffffffffffffffffffffffff1673ffffffffffffffffffffffffffffffffffffffff168152602001908152602001600020548310156102115782600260008873ffffffffffffffffffffffffffffffffffffffff1673ffffffffffffffffffffffffffffffffffffffff168152602001908152602001600020546040517f045f356c0000000000000000000000000000000000000000000000000000000081526004016102089291906112bb565b60405180910390fd5b600060405180606001604052808873ffffffffffffffffffffffffffffffffffffffff16815260200185815260200187878080601f016020809104026020016040519081016040528093929190818152602001838380828437600081840152601f19601f82011690508083019250505050505050815250905060006102f87f2c521d146a6f6c09462cb178367b028f1718b1f01d7995bb405dae702c2bee7d89878a8a6040516102c2929190611323565b60405180910390206040516020016102dd949392919061133c565b604051602081830303815290604052805190602001206105f5565b9050818193509350505094509492505050565b610313610c67565b6000610360858585600260008a73ffffffffffffffffffffffffffffffffffffffff1673ffffffffffffffffffffffffffffffffffffffff16815260200190815260200160002054610142565b91509150935093915050565b60006060806000806000606061038061060f565b61038861064a565b46306000801b600067ffffffffffffffff8111156103a9576103a8611381565b5b6040519080825280602002602001820160405280156103d75781602001602082028036833780820191505090505b507f0f00000000000000000000000000000000000000000000000000000000000000959493929190965096509650965096509650965090919293949596565b6000806104ff84848080601f016020809104026020016040519081016040528093929190818152602001838380828437600081840152601f19601f820116905080830192505050505050506104f17f2c521d146a6f6c09462cb178367b028f1718b1f01d7995bb405dae702c2bee7d8860000160208101906104989190611273565b89602001358a80604001906104ad91906113bf565b6040516104bb929190611323565b60405180910390206040516020016104d6949392919061133c565b604051602081830303815290604052805190602001206105f5565b61068590919063ffffffff16565b905084602001356002600087600001602081019061051d9190611273565b73ffffffffffffffffffffffffffffffffffffffff1673ffffffffffffffffffffffffffffffffffffffff168152602001908152602001600020541480156105a257508460000160208101906105739190611273565b73ffffffffffffffffffffffffffffffffffffffff168173ffffffffffffffffffffffffffffffffffffffff16145b9150509392505050565b6000600260008373ffffffffffffffffffffffffffffffffffffffff1673ffffffffffffffffffffffffffffffffffffffff168152602001908152602001600020549050919050565b60006106086106026106b1565b83610768565b9050919050565b606061064560007f00000000000000000000000000000000000000000000000000000000000000006107a990919063ffffffff16565b905090565b606061068060017f00000000000000000000000000000000000000000000000000000000000000006107a990919063ffffffff16565b905090565b6000806000806106958686610859565b9250925092506106a582826108b5565b82935050505092915050565b60007f000000000000000000000000000000000000000000000000000000000000000073ffffffffffffffffffffffffffffffffffffffff163073ffffffffffffffffffffffffffffffffffffffff1614801561072d57507f000000000000000000000000000000000000000000000000000000000000000046145b1561075a577f00000000000000000000000000000000000000000000000000000000000000009050610765565b610762610a19565b90505b90565b60006040517f190100000000000000000000000000000000000000000000000000000000000081528360028201528260228201526042812091505092915050565b606060ff60001b83146107c6576107bf83610aaf565b9050610853565b8180546107d290611451565b80601f01602080910402602001604051908101604052809291908181526020018280546107fe90611451565b801561084b5780601f106108205761010080835404028352916020019161084b565b820191906000526020600020905b81548152906001019060200180831161082e57829003601f168201915b505050505090505b92915050565b6000806000604184510361089e5760008060006020870151925060408701519150606087015160001a905061089088828585610b23565b9550955095505050506108ae565b60006002855160001b9250925092505b9250925092565b600060038111156108c9576108c8611482565b5b8260038111156108dc576108db611482565b5b0315610a1557600160038111156108f6576108f5611482565b5b82600381111561090957610908611482565b5b03610940576040517ff645eedf00000000000000000000000000000000000000000000000000000000815260040160405180910390fd5b6002600381111561095457610953611482565b5b82600381111561096757610966611482565b5b036109ac578060001c6040517ffce698f70000000000000000000000000000000000000000000000000000000081526004016109a391906112a0565b60405180910390fd5b6003808111156109bf576109be611482565b5b8260038111156109d2576109d1611482565b5b03610a1457806040517fd78bce0c000000000000000000000000000000000000000000000000000000008152600401610a0b91906114b1565b60405180910390fd5b5b5050565b60007f8b73c3c69bb8fe3d512ecc4cf759cc79239f7b179b0ffacaa9a75d522b39400f7f00000000000000000000000000000000000000000000000000000000000000007f00000000000000000000000000000000000000000000000000000000000000004630604051602001610a949594939291906114cc565b60405160208183030381529060405280519060200120905090565b60606000610abc83610c17565b90506000602067ffffffffffffffff811115610adb57610ada611381565b5b6040519080825280601f01601f191660200182016040528015610b0d5781602001600182028036833780820191505090505b5090508181528360208201528092505050919050565b60008060007f7fffffffffffffffffffffffffffffff5d576e7357a4501ddfe92f46681b20a08460001c1115610b63576000600385925092509250610c0d565b600060018888888860405160008152602001604052604051610b88949392919061153b565b6020604051602081039080840390855afa158015610baa573d6000803e3d6000fd5b505050602060405103519050600073ffffffffffffffffffffffffffffffffffffffff168173ffffffffffffffffffffffffffffffffffffffff1603610bfe57600060016000801b93509350935050610c0d565b8060008060001b935093509350505b9450945094915050565b60008060ff8360001c169050601f811115610c5e576040517fb3512b0c00000000000000000000000000000000000000000000000000000000815260040160405180910390fd5b80915050919050565b6040518060600160405280600073ffffffffffffffffffffffffffffffffffffffff16815260200160008152602001606081525090565b600080fd5b600080fd5b600073ffffffffffffffffffffffffffffffffffffffff82169050919050565b6000610cd382610ca8565b9050919050565b610ce381610cc8565b8114610cee57600080fd5b50565b600081359050610d0081610cda565b92915050565b600080fd5b600080fd5b600080fd5b60008083601f840112610d2b57610d2a610d06565b5b8235905067ffffffffffffffff811115610d4857610d47610d0b565b5b602083019150836001820283011115610d6457610d63610d10565b5b9250929050565b6000819050919050565b610d7e81610d6b565b8114610d8957600080fd5b50565b600081359050610d9b81610d75565b92915050565b60008060008060608587031215610dbb57610dba610c9e565b5b6000610dc987828801610cf1565b945050602085013567ffffffffffffffff811115610dea57610de9610ca3565b5b610df687828801610d15565b93509350506040610e0987828801610d8c565b91505092959194509250565b610e1e81610cc8565b82525050565b610e2d81610d6b565b82525050565b600081519050919050565b600082825260208201905092915050565b60005b83811015610e6d578082015181840152602081019050610e52565b60008484015250505050565b6000601f19601f8301169050919050565b6000610e9582610e33565b610e9f8185610e3e565b9350610eaf818560208601610e4f565b610eb881610e79565b840191505092915050565b6000606083016000830151610edb6000860182610e15565b506020830151610eee6020860182610e24565b5060408301518482036040860152610f068282610e8a565b9150508091505092915050565b6000819050919050565b610f2681610f13565b82525050565b60006040820190508181036000830152610f468185610ec3565b9050610f556020830184610f1d565b9392505050565b600080600060408486031215610f7557610f74610c9e565b5b6000610f8386828701610cf1565b935050602084013567ffffffffffffffff811115610fa457610fa3610ca3565b5b610fb086828701610d15565b92509250509250925092565b60007fff0000000000000000000000000000000000000000000000000000000000000082169050919050565b610ff181610fbc565b82525050565b600081519050919050565b600082825260208201905092915050565b600061101e82610ff7565b6110288185611002565b9350611038818560208601610e4f565b61104181610e79565b840191505092915050565b61105581610d6b565b82525050565b61106481610cc8565b82525050565b600081519050919050565b600082825260208201905092915050565b6000819050602082019050919050565b60006110a28383610e24565b60208301905092915050565b6000602082019050919050565b60006110c68261106a565b6110d08185611075565b93506110db83611086565b8060005b8381101561110c5781516110f38882611096565b97506110fe836110ae565b9250506001810190506110df565b5085935050505092915050565b600060e08201905061112e600083018a610fe8565b81810360208301526111408189611013565b905081810360408301526111548188611013565b9050611163606083018761104c565b611170608083018661105b565b61117d60a0830185610f1d565b81810360c083015261118f81846110bb565b905098975050505050505050565b600080fd5b6000606082840312156111b8576111b761119d565b5b81905092915050565b6000806000604084860312156111da576111d9610c9e565b5b600084013567ffffffffffffffff8111156111f8576111f7610ca3565b5b611204868287016111a2565b935050602084013567ffffffffffffffff81111561122557611224610ca3565b5b61123186828701610d15565b92509250509250925092565b60008115159050919050565b6112528161123d565b82525050565b600060208201905061126d6000830184611249565b92915050565b60006020828403121561128957611288610c9e565b5b600061129784828501610cf1565b91505092915050565b60006020820190506112b5600083018461104c565b92915050565b60006040820190506112d0600083018561104c565b6112dd602083018461104c565b9392505050565b600081905092915050565b82818337600083830152505050565b600061130a83856112e4565b93506113178385846112ef565b82840190509392505050565b60006113308284866112fe565b91508190509392505050565b60006080820190506113516000830187610f1d565b61135e602083018661105b565b61136b604083018561104c565b6113786060830184610f1d565b95945050505050565b7f4e487b7100000000000000000000000000000000000000000000000000000000600052604160045260246000fd5b600080fd5b600080fd5b600080fd5b600080833560016020038436030381126113dc576113db6113b0565b5b80840192508235915067ffffffffffffffff8211156113fe576113fd6113b5565b5b60208301925060018202360383131561141a576114196113ba565b5b509250929050565b7f4e487b7100000000000000000000000000000000000000000000000000000000600052602260045260246000fd5b6000600282049050600182168061146957607f821691505b60208210810361147c5761147b611422565b5b50919050565b7f4e487b7100000000000000000000000000000000000000000000000000000000600052602160045260246000fd5b60006020820190506114c66000830184610f1d565b92915050565b600060a0820190506114e16000830188610f1d565b6114ee6020830187610f1d565b6114fb6040830186610f1d565b611508606083018561104c565b611515608083018461105b565b9695505050505050565b600060ff82169050919050565b6115358161151f565b82525050565b60006080820190506115506000830187610f1d565b61155d602083018661152c565b61156a6040830185610f1d565b6115776060830184610f1d565b9594505050505056fea2646970667358221220e0ab3211ab79f01c19d4560eb838125d93bdc85e874684a64781c110eb9c348064736f6c63430008180033",
  "linkReferences": {},
  "deployedLinkReferences": {}
}