{
  "_format": "hh-sol-artifact-1",
  "contractName": "Config",
  "sourceName": "contracts/Config.sol",
  "abi": [
    {
      "anonymous": false,
      "inputs": [
        {
          "indexed": false,
          "internalType": "uint8",
          "name": "nbNumbers",
          "type": "uint8"
        },
        {
          "indexed": false,
          "internalType": "uint256",
          "name": "minNumber",
          "type": "uint256"
        },
        {
          "indexed": false,
          "internalType": "uint256",
          "name": "maxNumber",
          "type": "uint256"
        }
      ],
      "name": "ConfigUpdated",
      "type": "event"
    },
    {
      "inputs": [],
      "name": "maxNumber",
      "outputs": [
        {
          "internalType": "uint256",
          "name": "",
          "type": "uint256"
        }
      ],
      "stateMutability": "view",
      "type": "function"
    },
    {
      "inputs": [],
      "name": "minNumber",
      "outputs": [
        {
          "internalType": "uint256",
          "name": "",
          "type": "uint256"
        }
      ],
      "stateMutability": "view",
      "type": "function"
    },
    {
      "inputs": [],
      "name": "nbNumbers",
      "outputs": [
        {
          "internalType": "uint8",
          "name": "",
          "type": "uint8"
        }
      ],
      "stateMutability": "view",
      "type": "function"
    }
  ],
  "bytecode": "0x608060405234801561001057600080fd5b5061015e806100206000396000f3fe608060405234801561001057600080fd5b50600436106100415760003560e01c80633a4f69991461004657806355b9303114610064578063e32d6d5914610082575b600080fd5b61004e6100a0565b60405161005b91906100d6565b60405180910390f35b61006c6100a6565b60405161007991906100d6565b60405180910390f35b61008a6100ac565b604051610097919061010d565b60405180910390f35b60025481565b60015481565b60008054906101000a900460ff1681565b6000819050919050565b6100d0816100bd565b82525050565b60006020820190506100eb60008301846100c7565b92915050565b600060ff82169050919050565b610107816100f1565b82525050565b600060208201905061012260008301846100fe565b9291505056fea26469706673582212200d5a67fb33a6b575cf19d7abebafafb27084ac038fa1f1d22faaad04cadb20f864736f6c63430008180033",
  "linkReferences": {},
  "deployedLinkReferences": {}
}