{
  "_format": "hh-sol-artifact-1",
  "contractName": "RaffleRegistration",
  "sourceName": "contracts/RaffleRegistration.sol",
  "abi": [
    {
      "inputs": [
        {
          "internalType": "address",
          "name": "_address",
          "type": "address"
        }
      ],
      "stateMutability": "nonpayable",
      "type": "constructor"
    },
    {
      "inputs": [],
      "name": "AccessControlBadConfirmation",
      "type": "error"
    },
    {
      "inputs": [
        {
          "internalType": "address",
          "name": "account",
          "type": "address"
        },
        {
          "internalType": "bytes32",
          "name": "neededRole",
          "type": "bytes32"
        }
      ],
      "name": "AccessControlUnauthorizedAccount",
      "type": "error"
    },
    {
      "inputs": [],
      "name": "BadAttestor",
      "type": "error"
    },
    {
      "inputs": [
        {
          "internalType": "uint256",
          "name": "kenLen",
          "type": "uint256"
        },
        {
          "internalType": "uint256",
          "name": "valueLen",
          "type": "uint256"
        }
      ],
      "name": "BadCondLen",
      "type": "error"
    },
    {
      "inputs": [
        {
          "internalType": "uint256",
          "name": "kenLen",
          "type": "uint256"
        },
        {
          "internalType": "uint256",
          "name": "valueLen",
          "type": "uint256"
        }
      ],
      "name": "BadUpdateLen",
      "type": "error"
    },
    {
      "inputs": [
        {
          "internalType": "bytes",
          "name": "cond",
          "type": "bytes"
        },
        {
          "internalType": "uint32",
          "name": "expected",
          "type": "uint32"
        },
        {
          "internalType": "uint32",
          "name": "actual",
          "type": "uint32"
        }
      ],
      "name": "CondNotMet",
      "type": "error"
    },
    {
      "inputs": [],
      "name": "ECDSAInvalidSignature",
      "type": "error"
    },
    {
      "inputs": [
        {
          "internalType": "uint256",
          "name": "length",
          "type": "uint256"
        }
      ],
      "name": "ECDSAInvalidSignatureLength",
      "type": "error"
    },
    {
      "inputs": [
        {
          "internalType": "bytes32",
          "name": "s",
          "type": "bytes32"
        }
      ],
      "name": "ECDSAInvalidSignatureS",
      "type": "error"
    },
    {
      "inputs": [
        {
          "internalType": "bytes",
          "name": "data",
          "type": "bytes"
        }
      ],
      "name": "Internal_toUint32Strict_outOfBounds",
      "type": "error"
    },
    {
      "inputs": [],
      "name": "InvalidShortString",
      "type": "error"
    },
    {
      "inputs": [],
      "name": "MetaTxSignatureNotMatch",
      "type": "error"
    },
    {
      "inputs": [
        {
          "internalType": "uint256",
          "name": "actual",
          "type": "uint256"
        },
        {
          "internalType": "uint256",
          "name": "currentNonce",
          "type": "uint256"
        }
      ],
      "name": "NonceTooLow",
      "type": "error"
    },
    {
      "inputs": [
        {
          "internalType": "address",
          "name": "owner",
          "type": "address"
        }
      ],
      "name": "OwnableInvalidOwner",
      "type": "error"
    },
    {
      "inputs": [
        {
          "internalType": "address",
          "name": "account",
          "type": "address"
        }
      ],
      "name": "OwnableUnauthorizedAccount",
      "type": "error"
    },
    {
      "inputs": [],
      "name": "ReentrancyGuardReentrantCall",
      "type": "error"
    },
    {
      "inputs": [
        {
          "internalType": "string",
          "name": "str",
          "type": "string"
        }
      ],
      "name": "StringTooLong",
      "type": "error"
    },
    {
      "inputs": [
        {
          "internalType": "uint8",
          "name": "actionId",
          "type": "uint8"
        }
      ],
      "name": "UnsupportedAction",
      "type": "error"
    },
    {
      "anonymous": false,
      "inputs": [
        {
          "indexed": false,
          "internalType": "uint8",
          "name": "nbNumbers",
          "type": "uint8"
        },
        {
          "indexed": false,
          "internalType": "uint256",
          "name": "minNumber",
          "type": "uint256"
        },
        {
          "indexed": false,
          "internalType": "uint256",
          "name": "maxNumber",
          "type": "uint256"
        }
      ],
      "name": "ConfigUpdated",
      "type": "event"
    },
    {
      "anonymous": false,
      "inputs": [],
      "name": "EIP712DomainChanged",
      "type": "event"
    },
    {
      "anonymous": false,
      "inputs": [
        {
          "indexed": false,
          "internalType": "uint256",
          "name": "",
          "type": "uint256"
        }
      ],
      "name": "MessageProcessedTo",
      "type": "event"
    },
    {
      "anonymous": false,
      "inputs": [],
      "name": "MetaTxDecoded",
      "type": "event"
    },
    {
      "anonymous": false,
      "inputs": [
        {
          "indexed": true,
          "internalType": "address",
          "name": "previousOwner",
          "type": "address"
        },
        {
          "indexed": true,
          "internalType": "address",
          "name": "newOwner",
          "type": "address"
        }
      ],
      "name": "OwnershipTransferred",
      "type": "event"
    },
    {
      "anonymous": false,
      "inputs": [
        {
          "indexed": true,
          "internalType": "uint256",
          "name": "registrationContractId",
          "type": "uint256"
        },
        {
          "indexed": true,
          "internalType": "uint256",
          "name": "drawNumber",
          "type": "uint256"
        },
        {
          "indexed": true,
          "internalType": "address",
          "name": "participant",
          "type": "address"
        },
        {
          "indexed": false,
          "internalType": "uint256[]",
          "name": "numbers",
          "type": "uint256[]"
        }
      ],
      "name": "ParticipationRegistered",
      "type": "event"
    },
    {
      "anonymous": false,
      "inputs": [
        {
          "indexed": true,
          "internalType": "uint256",
          "name": "registrationContractId",
          "type": "uint256"
        },
        {
          "indexed": true,
          "internalType": "uint256",
          "name": "drawNumber",
          "type": "uint256"
        }
      ],
      "name": "RegistrationsClosed",
      "type": "event"
    },
    {
      "anonymous": false,
      "inputs": [
        {
          "indexed": true,
          "internalType": "uint256",
          "name": "registrationContractId",
          "type": "uint256"
        },
        {
          "indexed": true,
          "internalType": "uint256",
          "name": "drawNumber",
          "type": "uint256"
        }
      ],
      "name": "RegistrationsOpen",
      "type": "event"
    },
    {
      "anonymous": false,
      "inputs": [
        {
          "indexed": true,
          "internalType": "uint256",
          "name": "registrationContractId",
          "type": "uint256"
        },
        {
          "indexed": true,
          "internalType": "uint256",
          "name": "drawNumber",
          "type": "uint256"
        },
        {
          "indexed": false,
          "internalType": "uint256[]",
          "name": "numbers",
          "type": "uint256[]"
        },
        {
          "indexed": false,
          "internalType": "address[]",
          "name": "winners",
          "type": "address[]"
        }
      ],
      "name": "ResultsReceived",
      "type": "event"
    },
    {
      "anonymous": false,
      "inputs": [
        {
          "indexed": true,
          "internalType": "bytes32",
          "name": "role",
          "type": "bytes32"
        },
        {
          "indexed": true,
          "internalType": "bytes32",
          "name": "previousAdminRole",
          "type": "bytes32"
        },
        {
          "indexed": true,
          "internalType": "bytes32",
          "name": "newAdminRole",
          "type": "bytes32"
        }
      ],
      "name": "RoleAdminChanged",
      "type": "event"
    },
    {
      "anonymous": false,
      "inputs": [
        {
          "indexed": true,
          "internalType": "bytes32",
          "name": "role",
          "type": "bytes32"
        },
        {
          "indexed": true,
          "internalType": "address",
          "name": "account",
          "type": "address"
        },
        {
          "indexed": true,
          "internalType": "address",
          "name": "sender",
          "type": "address"
        }
      ],
      "name": "RoleGranted",
      "type": "event"
    },
    {
      "anonymous": false,
      "inputs": [
        {
          "indexed": true,
          "internalType": "bytes32",
          "name": "role",
          "type": "bytes32"
        },
        {
          "indexed": true,
          "internalType": "address",
          "name": "account",
          "type": "address"
        },
        {
          "indexed": true,
          "internalType": "address",
          "name": "sender",
          "type": "address"
        }
      ],
      "name": "RoleRevoked",
      "type": "event"
    },
    {
      "anonymous": false,
      "inputs": [
        {
          "indexed": true,
          "internalType": "uint256",
          "name": "registrationContractId",
          "type": "uint256"
        }
      ],
      "name": "Started",
      "type": "event"
    },
    {
      "inputs": [],
      "name": "ATTESTOR_ROLE",
      "outputs": [
        {
          "internalType": "bytes32",
          "name": "",
          "type": "bytes32"
        }
      ],
      "stateMutability": "view",
      "type": "function"
    },
    {
      "inputs": [],
      "name": "DEFAULT_ADMIN_ROLE",
      "outputs": [
        {
          "internalType": "bytes32",
          "name": "",
          "type": "bytes32"
        }
      ],
      "stateMutability": "view",
      "type": "function"
    },
    {
      "inputs": [],
      "name": "DRAW_NUMBER",
      "outputs": [
        {
          "internalType": "bytes",
          "name": "",
          "type": "bytes"
        }
      ],
      "stateMutability": "view",
      "type": "function"
    },
    {
      "inputs": [],
      "name": "STATUS",
      "outputs": [
        {
          "internalType": "bytes",
          "name": "",
          "type": "bytes"
        }
      ],
      "stateMutability": "view",
      "type": "function"
    },
    {
      "inputs": [],
      "name": "can_participate",
      "outputs": [
        {
          "internalType": "bool",
          "name": "",
          "type": "bool"
        }
      ],
      "stateMutability": "view",
      "type": "function"
    },
    {
      "inputs": [],
      "name": "eip712Domain",
      "outputs": [
        {
          "internalType": "bytes1",
          "name": "fields",
          "type": "bytes1"
        },
        {
          "internalType": "string",
          "name": "name",
          "type": "string"
        },
        {
          "internalType": "string",
          "name": "version",
          "type": "string"
        },
        {
          "internalType": "uint256",
          "name": "chainId",
          "type": "uint256"
        },
        {
          "internalType": "address",
          "name": "verifyingContract",
          "type": "address"
        },
        {
          "internalType": "bytes32",
          "name": "salt",
          "type": "bytes32"
        },
        {
          "internalType": "uint256[]",
          "name": "extensions",
          "type": "uint256[]"
        }
      ],
      "stateMutability": "view",
      "type": "function"
    },
    {
      "inputs": [],
      "name": "getDrawNumber",
      "outputs": [
        {
          "internalType": "uint256",
          "name": "",
          "type": "uint256"
        }
      ],
      "stateMutability": "view",
      "type": "function"
    },
    {
      "inputs": [
        {
          "internalType": "bytes32",
          "name": "role",
          "type": "bytes32"
        }
      ],
      "name": "getRoleAdmin",
      "outputs": [
        {
          "internalType": "bytes32",
          "name": "",
          "type": "bytes32"
        }
      ],
      "stateMutability": "view",
      "type": "function"
    },
    {
      "inputs": [],
      "name": "getStatus",
      "outputs": [
        {
          "internalType": "enum RaffleRegistration.Status",
          "name": "",
          "type": "uint8"
        }
      ],
      "stateMutability": "view",
      "type": "function"
    },
    {
      "inputs": [
        {
          "internalType": "bytes",
          "name": "key",
          "type": "bytes"
        }
      ],
      "name": "getStorage",
      "outputs": [
        {
          "internalType": "bytes",
          "name": "",
          "type": "bytes"
        }
      ],
      "stateMutability": "view",
      "type": "function"
    },
    {
      "inputs": [
        {
          "internalType": "bytes32",
          "name": "role",
          "type": "bytes32"
        },
        {
          "internalType": "address",
          "name": "account",
          "type": "address"
        }
      ],
      "name": "grantRole",
      "outputs": [],
      "stateMutability": "nonpayable",
      "type": "function"
    },
    {
      "inputs": [
        {
          "internalType": "bytes32",
          "name": "role",
          "type": "bytes32"
        },
        {
          "internalType": "address",
          "name": "account",
          "type": "address"
        }
      ],
      "name": "hasRole",
      "outputs": [
        {
          "internalType": "bool",
          "name": "",
          "type": "bool"
        }
      ],
      "stateMutability": "view",
      "type": "function"
    },
    {
      "inputs": [],
      "name": "maxNumber",
      "outputs": [
        {
          "internalType": "uint256",
          "name": "",
          "type": "uint256"
        }
      ],
      "stateMutability": "view",
      "type": "function"
    },
    {
      "inputs": [
        {
          "internalType": "address",
          "name": "from",
          "type": "address"
        }
      ],
      "name": "metaTxGetNonce",
      "outputs": [
        {
          "internalType": "uint256",
          "name": "",
          "type": "uint256"
        }
      ],
      "stateMutability": "view",
      "type": "function"
    },
    {
      "inputs": [
        {
          "internalType": "address",
          "name": "from",
          "type": "address"
        },
        {
          "internalType": "bytes",
          "name": "data",
          "type": "bytes"
        }
      ],
      "name": "metaTxPrepare",
      "outputs": [
        {
          "components": [
            {
              "internalType": "address",
              "name": "from",
              "type": "address"
            },
            {
              "internalType": "uint256",
              "name": "nonce",
              "type": "uint256"
            },
            {
              "internalType": "bytes",
              "name": "data",
              "type": "bytes"
            }
          ],
          "internalType": "struct MetaTxReceiver.ForwardRequest",
          "name": "",
          "type": "tuple"
        },
        {
          "internalType": "bytes32",
          "name": "",
          "type": "bytes32"
        }
      ],
      "stateMutability": "view",
      "type": "function"
    },
    {
      "inputs": [
        {
          "internalType": "address",
          "name": "from",
          "type": "address"
        },
        {
          "internalType": "bytes",
          "name": "data",
          "type": "bytes"
        },
        {
          "internalType": "uint256",
          "name": "nonce",
          "type": "uint256"
        }
      ],
      "name": "metaTxPrepareWithNonce",
      "outputs": [
        {
          "components": [
            {
              "internalType": "address",
              "name": "from",
              "type": "address"
            },
            {
              "internalType": "uint256",
              "name": "nonce",
              "type": "uint256"
            },
            {
              "internalType": "bytes",
              "name": "data",
              "type": "bytes"
            }
          ],
          "internalType": "struct MetaTxReceiver.ForwardRequest",
          "name": "",
          "type": "tuple"
        },
        {
          "internalType": "bytes32",
          "name": "",
          "type": "bytes32"
        }
      ],
      "stateMutability": "view",
      "type": "function"
    },
    {
      "inputs": [
        {
          "components": [
            {
              "internalType": "address",
              "name": "from",
              "type": "address"
            },
            {
              "internalType": "uint256",
              "name": "nonce",
              "type": "uint256"
            },
            {
              "internalType": "bytes",
              "name": "data",
              "type": "bytes"
            }
          ],
          "internalType": "struct MetaTxReceiver.ForwardRequest",
          "name": "req",
          "type": "tuple"
        },
        {
          "internalType": "bytes",
          "name": "signature",
          "type": "bytes"
        }
      ],
      "name": "metaTxRollupU256CondEq",
      "outputs": [
        {
          "internalType": "bool",
          "name": "",
          "type": "bool"
        }
      ],
      "stateMutability": "nonpayable",
      "type": "function"
    },
    {
      "inputs": [
        {
          "components": [
            {
              "internalType": "address",
              "name": "from",
              "type": "address"
            },
            {
              "internalType": "uint256",
              "name": "nonce",
              "type": "uint256"
            },
            {
              "internalType": "bytes",
              "name": "data",
              "type": "bytes"
            }
          ],
          "internalType": "struct MetaTxReceiver.ForwardRequest",
          "name": "req",
          "type": "tuple"
        },
        {
          "internalType": "bytes",
          "name": "signature",
          "type": "bytes"
        }
      ],
      "name": "metaTxVerify",
      "outputs": [
        {
          "internalType": "bool",
          "name": "",
          "type": "bool"
        }
      ],
      "stateMutability": "view",
      "type": "function"
    },
    {
      "inputs": [],
      "name": "minNumber",
      "outputs": [
        {
          "internalType": "uint256",
          "name": "",
          "type": "uint256"
        }
      ],
      "stateMutability": "view",
      "type": "function"
    },
    {
      "inputs": [],
      "name": "nbNumbers",
      "outputs": [
        {
          "internalType": "uint8",
          "name": "",
          "type": "uint8"
        }
      ],
      "stateMutability": "view",
      "type": "function"
    },
    {
      "inputs": [],
      "name": "owner",
      "outputs": [
        {
          "internalType": "address",
          "name": "",
          "type": "address"
        }
      ],
      "stateMutability": "view",
      "type": "function"
    },
    {
      "inputs": [
        {
          "internalType": "uint256[]",
          "name": "_numbers",
          "type": "uint256[]"
        }
      ],
      "name": "participate",
      "outputs": [],
      "stateMutability": "nonpayable",
      "type": "function"
    },
    {
      "inputs": [
        {
          "internalType": "address",
          "name": "_attestor",
          "type": "address"
        }
      ],
      "name": "registerAttestor",
      "outputs": [],
      "stateMutability": "nonpayable",
      "type": "function"
    },
    {
      "inputs": [],
      "name": "registrationContractId",
      "outputs": [
        {
          "internalType": "uint256",
          "name": "",
          "type": "uint256"
        }
      ],
      "stateMutability": "view",
      "type": "function"
    },
    {
      "inputs": [],
      "name": "renounceOwnership",
      "outputs": [],
      "stateMutability": "nonpayable",
      "type": "function"
    },
    {
      "inputs": [
        {
          "internalType": "bytes32",
          "name": "role",
          "type": "bytes32"
        },
        {
          "internalType": "address",
          "name": "callerConfirmation",
          "type": "address"
        }
      ],
      "name": "renounceRole",
      "outputs": [],
      "stateMutability": "nonpayable",
      "type": "function"
    },
    {
      "inputs": [
        {
          "internalType": "bytes32",
          "name": "role",
          "type": "bytes32"
        },
        {
          "internalType": "address",
          "name": "account",
          "type": "address"
        }
      ],
      "name": "revokeRole",
      "outputs": [],
      "stateMutability": "nonpayable",
      "type": "function"
    },
    {
      "inputs": [
        {
          "internalType": "bytes[]",
          "name": "condKeys",
          "type": "bytes[]"
        },
        {
          "internalType": "bytes[]",
          "name": "condValues",
          "type": "bytes[]"
        },
        {
          "internalType": "bytes[]",
          "name": "updateKeys",
          "type": "bytes[]"
        },
        {
          "internalType": "bytes[]",
          "name": "updateValues",
          "type": "bytes[]"
        },
        {
          "internalType": "bytes[]",
          "name": "actions",
          "type": "bytes[]"
        }
      ],
      "name": "rollupU256CondEq",
      "outputs": [
        {
          "internalType": "bool",
          "name": "",
          "type": "bool"
        }
      ],
      "stateMutability": "nonpayable",
      "type": "function"
    },
    {
      "inputs": [
        {
          "internalType": "bytes4",
          "name": "interfaceId",
          "type": "bytes4"
        }
      ],
      "name": "supportsInterface",
      "outputs": [
        {
          "internalType": "bool",
          "name": "",
          "type": "bool"
        }
      ],
      "stateMutability": "view",
      "type": "function"
    },
    {
      "inputs": [
        {
          "internalType": "bytes",
          "name": "_bytes",
          "type": "bytes"
        }
      ],
      "name": "toUint32Strict",
      "outputs": [
        {
          "internalType": "uint32",
          "name": "",
          "type": "uint32"
        }
      ],
      "stateMutability": "pure",
      "type": "function"
    },
    {
      "inputs": [
        {
          "internalType": "address",
          "name": "newOwner",
          "type": "address"
        }
      ],
      "name": "transferOwnership",
      "outputs": [],
      "stateMutability": "nonpayable",
      "type": "function"
    }
  ],
  "bytecode": "0x6101606040523480156200001257600080fd5b5060405162005e5038038062005e5083398181016040528101906200003891906200070a565b806040518060400160405280601881526020017f50686174526f6c6c75704d6574615478526563656976657200000000000000008152506040518060400160405280600581526020017f302e302e310000000000000000000000000000000000000000000000000000008152506001600381905550620000c36004836200022560201b90919060201c565b6101208181525050620000e16005826200022560201b90919060201c565b6101408181525050818051906020012060e08181525050808051906020012061010081815250504660a08181525050620001206200027d60201b60201c565b608081815250503073ffffffffffffffffffffffffffffffffffffffff1660c08173ffffffffffffffffffffffffffffffffffffffff16815250505050600073ffffffffffffffffffffffffffffffffffffffff168173ffffffffffffffffffffffffffffffffffffffff1603620001d25760006040517f1e4fbdf7000000000000000000000000000000000000000000000000000000008152600401620001c991906200074d565b60405180910390fd5b620001e381620002da60201b60201c565b50620001f96000801b82620003a060201b60201c565b506200020c6000620004a460201b60201c565b6200021e60006200052d60201b60201c565b5062000f0a565b60006020835110156200024b576200024383620005b660201b60201c565b905062000277565b826200025d836200062360201b60201c565b60000190816200026e9190620009e4565b5060ff60001b90505b92915050565b60007f8b73c3c69bb8fe3d512ecc4cf759cc79239f7b179b0ffacaa9a75d522b39400f60e051610100514630604051602001620002bf95949392919062000af7565b60405160208183030381529060405280519060200120905090565b6000600660009054906101000a900473ffffffffffffffffffffffffffffffffffffffff16905081600660006101000a81548173ffffffffffffffffffffffffffffffffffffffff021916908373ffffffffffffffffffffffffffffffffffffffff1602179055508173ffffffffffffffffffffffffffffffffffffffff168173ffffffffffffffffffffffffffffffffffffffff167f8be0079c531659141344cd1fd0a4f28419497f9722a3daafe3b4186f6b6457e060405160405180910390a35050565b6000620003b483836200062d60201b60201c565b620004995760016008600085815260200190815260200160002060000160008473ffffffffffffffffffffffffffffffffffffffff1673ffffffffffffffffffffffffffffffffffffffff16815260200190815260200160002060006101000a81548160ff021916908315150217905550620004356200069860201b60201c565b73ffffffffffffffffffffffffffffffffffffffff168273ffffffffffffffffffffffffffffffffffffffff16847f2f8788117e7eff1d82e926ec794901d17c78024a50270940304540a733656f0d60405160405180910390a4600190506200049e565b600090505b92915050565b80604051602001620004b7919062000bd4565b60405160208183030381529060405260096040518060400160405280600781526020017f5f737461747573000000000000000000000000000000000000000000000000008152506040516200050d919062000c6a565b9081526020016040518091039020908162000529919062000ce8565b5050565b8060405160200162000540919062000dcf565b60405160208183030381529060405260096040518060400160405280600b81526020017f5f647261774e756d62657200000000000000000000000000000000000000000081525060405162000596919062000c6a565b90815260200160405180910390209081620005b2919062000ce8565b5050565b600080829050601f815111156200060657826040517f305a27a9000000000000000000000000000000000000000000000000000000008152600401620005fd919062000e4f565b60405180910390fd5b805181620006149062000e9a565b60001c1760001b915050919050565b6000819050919050565b60006008600084815260200190815260200160002060000160008373ffffffffffffffffffffffffffffffffffffffff1673ffffffffffffffffffffffffffffffffffffffff16815260200190815260200160002060009054906101000a900460ff16905092915050565b600033905090565b600080fd5b600073ffffffffffffffffffffffffffffffffffffffff82169050919050565b6000620006d282620006a5565b9050919050565b620006e481620006c5565b8114620006f057600080fd5b50565b6000815190506200070481620006d9565b92915050565b600060208284031215620007235762000722620006a0565b5b60006200073384828501620006f3565b91505092915050565b6200074781620006c5565b82525050565b60006020820190506200076460008301846200073c565b92915050565b600081519050919050565b7f4e487b7100000000000000000000000000000000000000000000000000000000600052604160045260246000fd5b7f4e487b7100000000000000000000000000000000000000000000000000000000600052602260045260246000fd5b60006002820490506001821680620007ec57607f821691505b602082108103620008025762000801620007a4565b5b50919050565b60008190508160005260206000209050919050565b60006020601f8301049050919050565b600082821b905092915050565b6000600883026200086c7fffffffffffffffffffffffffffffffffffffffffffffffffffffffffffffffff826200082d565b6200087886836200082d565b95508019841693508086168417925050509392505050565b6000819050919050565b6000819050919050565b6000620008c5620008bf620008b98462000890565b6200089a565b62000890565b9050919050565b6000819050919050565b620008e183620008a4565b620008f9620008f082620008cc565b8484546200083a565b825550505050565b600090565b6200091062000901565b6200091d818484620008d6565b505050565b5b8181101562000945576200093960008262000906565b60018101905062000923565b5050565b601f82111562000994576200095e8162000808565b62000969846200081d565b8101602085101562000979578190505b6200099162000988856200081d565b83018262000922565b50505b505050565b600082821c905092915050565b6000620009b96000198460080262000999565b1980831691505092915050565b6000620009d48383620009a6565b9150826002028217905092915050565b620009ef826200076a565b67ffffffffffffffff81111562000a0b5762000a0a62000775565b5b62000a178254620007d3565b62000a2482828562000949565b600060209050601f83116001811462000a5c576000841562000a47578287015190505b62000a538582620009c6565b86555062000ac3565b601f19841662000a6c8662000808565b60005b8281101562000a965784890151825560018201915060208501945060208101905062000a6f565b8683101562000ab6578489015162000ab2601f891682620009a6565b8355505b6001600288020188555050505b505050505050565b6000819050919050565b62000ae08162000acb565b82525050565b62000af18162000890565b82525050565b600060a08201905062000b0e600083018862000ad5565b62000b1d602083018762000ad5565b62000b2c604083018662000ad5565b62000b3b606083018562000ae6565b62000b4a60808301846200073c565b9695505050505050565b7f4e487b7100000000000000000000000000000000000000000000000000000000600052602160045260246000fd5b6005811062000b975762000b9662000b54565b5b50565b600081905062000baa8262000b83565b919050565b600062000bbc8262000b9a565b9050919050565b62000bce8162000baf565b82525050565b600060208201905062000beb600083018462000bc3565b92915050565b600081519050919050565b600081905092915050565b60005b8381101562000c2757808201518184015260208101905062000c0a565b60008484015250505050565b600062000c408262000bf1565b62000c4c818562000bfc565b935062000c5e81856020860162000c07565b80840191505092915050565b600062000c78828462000c33565b915081905092915050565b60008190508160005260206000209050919050565b601f82111562000ce35762000cad8162000c83565b62000cb8846200081d565b8101602085101562000cc8578190505b62000ce062000cd7856200081d565b83018262000922565b50505b505050565b62000cf38262000bf1565b67ffffffffffffffff81111562000d0f5762000d0e62000775565b5b62000d1b8254620007d3565b62000d2882828562000c98565b600060209050601f83116001811462000d60576000841562000d4b578287015190505b62000d578582620009c6565b86555062000dc7565b601f19841662000d708662000c83565b60005b8281101562000d9a5784890151825560018201915060208501945060208101905062000d73565b8683101562000dba578489015162000db6601f891682620009a6565b8355505b6001600288020188555050505b505050505050565b600060208201905062000de6600083018462000ae6565b92915050565b600082825260208201905092915050565b6000601f19601f8301169050919050565b600062000e1b826200076a565b62000e27818562000dec565b935062000e3981856020860162000c07565b62000e448162000dfd565b840191505092915050565b6000602082019050818103600083015262000e6b818462000e0e565b905092915050565b6000819050602082019050919050565b600062000e91825162000acb565b80915050919050565b600062000ea78262000bf1565b8262000eb38462000e73565b905062000ec08162000e83565b9250602082101562000f035762000efe7fffffffffffffffffffffffffffffffffffffffffffffffffffffffffffffffff836020036008026200082d565b831692505b5050919050565b60805160a05160c05160e051610100516101205161014051614eeb62000f65600039600061195101526000611916015260006123a50152600061238401526000611e6f01526000611ec501526000611eee0152614eeb6000f3fe608060405234801561001057600080fd5b50600436106101e55760003560e01c8063715018a61161010f578063bbbfe446116100a2578063e33865b311610071578063e33865b3146105b4578063f2f9fa08146105d2578063f2fde38b146105ee578063f4034a961461060a576101e5565b8063bbbfe4461461051a578063caa0ff211461054a578063d547741f1461057a578063e32d6d5914610596576101e5565b806391d14854116100de57806391d148541461046c578063a217fddf1461049c578063a51831a8146104ba578063ad0bc464146104ea576101e5565b8063715018a6146104025780637be20a6d1461040c57806384b0196e1461042a5780638da5cb5b1461044e576101e5565b806336568abe116101875780635311613711610156578063531161371461037a57806355b93031146103aa578063602ad665146103c857806362723644146103e4576101e5565b806336568abe146102f15780633a4f69991461030d5780634e69d5601461032b5780635232f0d714610349576101e5565b8063248a9ca3116101c3578063248a9ca3146102695780632622705b146102995780632f2ff15d146102b757806333474363146102d3576101e5565b806301ffc9a7146101ea57806322dae16c1461021a5780632417b99c1461024b575b600080fd5b61020460048036038101906101ff9190612e6b565b61063a565b6040516102119190612eb3565b60405180910390f35b610234600480360381019061022f9190612fc7565b6106b4565b604051610242929190613152565b60405180910390f35b61025361087d565b60405161026091906131cc565b60405180910390f35b610283600480360381019061027e919061321a565b6108b6565b6040516102909190613247565b60405180910390f35b6102a16108d6565b6040516102ae9190613271565b60405180910390f35b6102d160048036038101906102cc919061328c565b6108dc565b005b6102db6108fe565b6040516102e89190612eb3565b60405180910390f35b61030b6004803603810190610306919061328c565b610934565b005b6103156109af565b6040516103229190613271565b60405180910390f35b6103336109b5565b6040516103409190613343565b60405180910390f35b610363600480360381019061035e919061335e565b610aab565b604051610371929190613152565b60405180910390f35b610394600480360381019061038f91906134ee565b610b0c565b6040516103a19190613556565b60405180910390f35b6103b2610b87565b6040516103bf9190613271565b60405180910390f35b6103e260048036038101906103dd9190613571565b610b8d565b005b6103ec610bc8565b6040516103f99190613247565b60405180910390f35b61040a610bec565b005b610414610c00565b6040516104219190613271565b60405180910390f35b610432610cf6565b60405161044597969594939291906136ec565b60405180910390f35b610456610da0565b6040516104639190613770565b60405180910390f35b6104866004803603810190610481919061328c565b610dca565b6040516104939190612eb3565b60405180910390f35b6104a4610e35565b6040516104b19190613247565b60405180910390f35b6104d460048036038101906104cf91906137e1565b610e3c565b6040516104e19190612eb3565b60405180910390f35b61050460048036038101906104ff9190613922565b610efa565b6040516105119190612eb3565b60405180910390f35b610534600480360381019061052f9190613922565b611108565b6040516105419190612eb3565b60405180910390f35b610564600480360381019061055f91906134ee565b61129e565b60405161057191906131cc565b60405180910390f35b610594600480360381019061058f919061328c565b61134e565b005b61059e611370565b6040516105ab91906139ba565b60405180910390f35b6105bc611381565b6040516105c991906131cc565b60405180910390f35b6105ec60048036038101906105e79190613a98565b6113ba565b005b61060860048036038101906106039190613571565b61146c565b005b610624600480360381019061061f9190613571565b6114f2565b6040516106319190613271565b60405180910390f35b60007f7965db0b000000000000000000000000000000000000000000000000000000007bffffffffffffffffffffffffffffffffffffffffffffffffffffffff1916827bffffffffffffffffffffffffffffffffffffffffffffffffffffffff191614806106ad57506106ac8261153b565b5b9050919050565b6106bc612dc8565b6000600760008773ffffffffffffffffffffffffffffffffffffffff1673ffffffffffffffffffffffffffffffffffffffff168152602001908152602001600020548310156107835782600760008873ffffffffffffffffffffffffffffffffffffffff1673ffffffffffffffffffffffffffffffffffffffff168152602001908152602001600020546040517f045f356c00000000000000000000000000000000000000000000000000000000815260040161077a929190613ae1565b60405180910390fd5b600060405180606001604052808873ffffffffffffffffffffffffffffffffffffffff16815260200185815260200187878080601f016020809104026020016040519081016040528093929190818152602001838380828437600081840152601f19601f820116905080830192505050505050508152509050600061086a7f2c521d146a6f6c09462cb178367b028f1718b1f01d7995bb405dae702c2bee7d89878a8a604051610834929190613b3a565b604051809103902060405160200161084f9493929190613b53565b604051602081830303815290604052805190602001206115a5565b9050818193509350505094509492505050565b6040518060400160405280600b81526020017f5f647261774e756d62657200000000000000000000000000000000000000000081525081565b600060086000838152602001908152602001600020600101549050919050565b600a5481565b6108e5826108b6565b6108ee816115bf565b6108f883836115d3565b50505050565b600060026004811115610914576109136132cc565b5b61091c6109b5565b600481111561092e5761092d6132cc565b5b14905090565b61093c6116c5565b73ffffffffffffffffffffffffffffffffffffffff168173ffffffffffffffffffffffffffffffffffffffff16146109a0576040517f6697b23200000000000000000000000000000000000000000000000000000000815260040160405180910390fd5b6109aa82826116cd565b505050565b60025481565b600060096040518060400160405280600781526020017f5f737461747573000000000000000000000000000000000000000000000000008152506040516109fc9190613bc9565b90815260200160405180910390208054610a1590613c0f565b80601f0160208091040260200160405190810160405280929190818152602001828054610a4190613c0f565b8015610a8e5780601f10610a6357610100808354040283529160200191610a8e565b820191906000526020600020905b815481529060010190602001808311610a7157829003601f168201915b5050505050806020019051810190610aa69190613c65565b905090565b610ab3612dc8565b6000610b00858585600760008a73ffffffffffffffffffffffffffffffffffffffff1673ffffffffffffffffffffffffffffffffffffffff168152602001908152602001600020546106b4565b91509150935093915050565b600080825103610b1f5760009050610b82565b6020825114610b6557816040517f3d7dc906000000000000000000000000000000000000000000000000000000008152600401610b5c91906131cc565b60405180910390fd5b600082806020019051810190610b7b9190613cbe565b9050809150505b919050565b60015481565b6000801b610b9a816115bf565b610bc47fa7e0cd0f2772b23ee4c329892293a6bd99d48c306b094d6d008c9a8bb8b731e4836108dc565b5050565b7fa7e0cd0f2772b23ee4c329892293a6bd99d48c306b094d6d008c9a8bb8b731e481565b610bf46117c0565b610bfe6000611847565b565b600060096040518060400160405280600b81526020017f5f647261774e756d626572000000000000000000000000000000000000000000815250604051610c479190613bc9565b90815260200160405180910390208054610c6090613c0f565b80601f0160208091040260200160405190810160405280929190818152602001828054610c8c90613c0f565b8015610cd95780601f10610cae57610100808354040283529160200191610cd9565b820191906000526020600020905b815481529060010190602001808311610cbc57829003601f168201915b5050505050806020019051810190610cf19190613d00565b905090565b600060608060008060006060610d0a61190d565b610d12611948565b46306000801b600067ffffffffffffffff811115610d3357610d326133c3565b5b604051908082528060200260200182016040528015610d615781602001602082028036833780820191505090505b507f0f00000000000000000000000000000000000000000000000000000000000000959493929190965096509650965096509650965090919293949596565b6000600660009054906101000a900473ffffffffffffffffffffffffffffffffffffffff16905090565b60006008600084815260200190815260200160002060000160008373ffffffffffffffffffffffffffffffffffffffff1673ffffffffffffffffffffffffffffffffffffffff16815260200190815260200160002060009054906101000a900460ff16905092915050565b6000801b81565b60003073ffffffffffffffffffffffffffffffffffffffff163373ffffffffffffffffffffffffffffffffffffffff1614158015610ea15750610e9f7fa7e0cd0f2772b23ee4c329892293a6bd99d48c306b094d6d008c9a8bb8b731e433610dca565b155b15610ed8576040517f20d82bef00000000000000000000000000000000000000000000000000000000815260040160405180910390fd5b610eea8b8b8b8b8b8b8b8b8b8b611983565b90509a9950505050505050505050565b6000838383610f0a838383611108565b610f40576040517fbde0493900000000000000000000000000000000000000000000000000000000815260040160405180910390fd5b60018360200135610f519190613d5c565b60076000856000016020810190610f689190613571565b73ffffffffffffffffffffffffffffffffffffffff1673ffffffffffffffffffffffffffffffffffffffff16815260200190815260200160002081905550610fe27fa7e0cd0f2772b23ee4c329892293a6bd99d48c306b094d6d008c9a8bb8b731e4886000016020810190610fdd9190613571565b610dca565b611018576040517f20d82bef00000000000000000000000000000000000000000000000000000000815260040160405180910390fd5b60008060008060008b80604001906110309190613d9f565b81019061103d9190613ee3565b945094509450945094507fd51c7c5244bba290f6c37777de0bc20a70c18abd55539658bc63251379297dcd60405160405180910390a13073ffffffffffffffffffffffffffffffffffffffff1663a51831a886868686866040518663ffffffff1660e01b81526004016110b49594939291906140ac565b6020604051808303816000875af11580156110d3573d6000803e3d6000fd5b505050506040513d601f19601f820116820180604052508101906110f7919061414e565b985050505050505050509392505050565b6000806111f184848080601f016020809104026020016040519081016040528093929190818152602001838380828437600081840152601f19601f820116905080830192505050505050506111e37f2c521d146a6f6c09462cb178367b028f1718b1f01d7995bb405dae702c2bee7d88600001602081019061118a9190613571565b89602001358a806040019061119f9190613d9f565b6040516111ad929190613b3a565b60405180910390206040516020016111c89493929190613b53565b604051602081830303815290604052805190602001206115a5565b611d0990919063ffffffff16565b905084602001356007600087600001602081019061120f9190613571565b73ffffffffffffffffffffffffffffffffffffffff1673ffffffffffffffffffffffffffffffffffffffff1681526020019081526020016000205414801561129457508460000160208101906112659190613571565b73ffffffffffffffffffffffffffffffffffffffff168173ffffffffffffffffffffffffffffffffffffffff16145b9150509392505050565b60606009826040516112b09190613bc9565b908152602001604051809103902080546112c990613c0f565b80601f01602080910402602001604051908101604052809291908181526020018280546112f590613c0f565b80156113425780601f1061131757610100808354040283529160200191611342565b820191906000526020600020905b81548152906001019060200180831161132557829003601f168201915b50505050509050919050565b611357826108b6565b611360816115bf565b61136a83836116cd565b50505050565b60008054906101000a900460ff1681565b6040518060400160405280600781526020017f5f7374617475730000000000000000000000000000000000000000000000000081525081565b6113c26108fe565b611401576040517f08c379a00000000000000000000000000000000000000000000000000000000081526004016113f8906141c7565b60405180910390fd5b61140a81611d35565b60003390508073ffffffffffffffffffffffffffffffffffffffff1661142e610c00565b600a547f09f77ef5a620f089b59340cfb5a6f53f6fd1067a1a6fe23620a1255356ebddb68560405161146091906141e7565b60405180910390a45050565b6114746117c0565b600073ffffffffffffffffffffffffffffffffffffffff168173ffffffffffffffffffffffffffffffffffffffff16036114e65760006040517f1e4fbdf70000000000000000000000000000000000000000000000000000000081526004016114dd9190613770565b60405180910390fd5b6114ef81611847565b50565b6000600760008373ffffffffffffffffffffffffffffffffffffffff1673ffffffffffffffffffffffffffffffffffffffff168152602001908152602001600020549050919050565b60007f01ffc9a7000000000000000000000000000000000000000000000000000000007bffffffffffffffffffffffffffffffffffffffffffffffffffffffff1916827bffffffffffffffffffffffffffffffffffffffffffffffffffffffff1916149050919050565b60006115b86115b2611e6b565b83611f22565b9050919050565b6115d0816115cb6116c5565b611f63565b50565b60006115df8383610dca565b6116ba5760016008600085815260200190815260200160002060000160008473ffffffffffffffffffffffffffffffffffffffff1673ffffffffffffffffffffffffffffffffffffffff16815260200190815260200160002060006101000a81548160ff0219169083151502179055506116576116c5565b73ffffffffffffffffffffffffffffffffffffffff168273ffffffffffffffffffffffffffffffffffffffff16847f2f8788117e7eff1d82e926ec794901d17c78024a50270940304540a733656f0d60405160405180910390a4600190506116bf565b600090505b92915050565b600033905090565b60006116d98383610dca565b156117b55760006008600085815260200190815260200160002060000160008473ffffffffffffffffffffffffffffffffffffffff1673ffffffffffffffffffffffffffffffffffffffff16815260200190815260200160002060006101000a81548160ff0219169083151502179055506117526116c5565b73ffffffffffffffffffffffffffffffffffffffff168273ffffffffffffffffffffffffffffffffffffffff16847ff6391f5c32d9c69d2a47ea670b442974b53935d1edc7fd64eb21e047a839171b60405160405180910390a4600190506117ba565b600090505b92915050565b6117c86116c5565b73ffffffffffffffffffffffffffffffffffffffff166117e6610da0565b73ffffffffffffffffffffffffffffffffffffffff1614611845576118096116c5565b6040517f118cdaa700000000000000000000000000000000000000000000000000000000815260040161183c9190613770565b60405180910390fd5b565b6000600660009054906101000a900473ffffffffffffffffffffffffffffffffffffffff16905081600660006101000a81548173ffffffffffffffffffffffffffffffffffffffff021916908373ffffffffffffffffffffffffffffffffffffffff1602179055508173ffffffffffffffffffffffffffffffffffffffff168173ffffffffffffffffffffffffffffffffffffffff167f8be0079c531659141344cd1fd0a4f28419497f9722a3daafe3b4186f6b6457e060405160405180910390a35050565b606061194360047f0000000000000000000000000000000000000000000000000000000000000000611fb490919063ffffffff16565b905090565b606061197e60057f0000000000000000000000000000000000000000000000000000000000000000611fb490919063ffffffff16565b905090565b600061198d612064565b888890508b8b9050146119df578a8a9050898990506040517f60e568880000000000000000000000000000000000000000000000000000000081526004016119d6929190613ae1565b60405180910390fd5b848490508787905014611a315786869050858590506040517fcca1bd42000000000000000000000000000000000000000000000000000000008152600401611a28929190613ae1565b60405180910390fd5b60005b8b8b9050811015611c13576000611b1560098e8e85818110611a5957611a58614209565b5b9050602002810190611a6b9190613d9f565b604051611a79929190613b3a565b90815260200160405180910390208054611a9290613c0f565b80601f0160208091040260200160405190810160405280929190818152602001828054611abe90613c0f565b8015611b0b5780601f10611ae057610100808354040283529160200191611b0b565b820191906000526020600020905b815481529060010190602001808311611aee57829003601f168201915b5050505050610b0c565b90506000611b898c8c85818110611b2f57611b2e614209565b5b9050602002810190611b419190613d9f565b8080601f016020809104026020016040519081016040528093929190818152602001838380828437600081840152601f19601f82011690508083019250505050505050610b0c565b90508063ffffffff168263ffffffff1614611c04578d8d84818110611bb157611bb0614209565b5b9050602002810190611bc39190613d9f565b82846040517fb2e58ea6000000000000000000000000000000000000000000000000000000008152600401611bfb9493929190614265565b60405180910390fd5b50508080600101915050611a34565b5060005b87879050811015611ca557858582818110611c3557611c34614209565b5b9050602002810190611c479190613d9f565b60098a8a85818110611c5c57611c5b614209565b5b9050602002810190611c6e9190613d9f565b604051611c7c929190613b3a565b90815260200160405180910390209182611c9792919061445c565b508080600101915050611c17565b5060005b83839050811015611cee57611ce1848483818110611cca57611cc9614209565b5b9050602002810190611cdc9190613d9f565b6120aa565b8080600101915050611ca9565b5060019050611cfb61213f565b9a9950505050505050505050565b600080600080611d198686612149565b925092509250611d2982826121a5565b82935050505092915050565b611d3d612309565b60008054906101000a900460ff1660ff16815114611d90576040517f08c379a0000000000000000000000000000000000000000000000000000000008152600401611d8790614578565b60405180910390fd5b60005b8151811015611e6757600154828281518110611db257611db1614209565b5b60200260200101511015611dfb576040517f08c379a0000000000000000000000000000000000000000000000000000000008152600401611df2906145e4565b60405180910390fd5b600254828281518110611e1157611e10614209565b5b60200260200101511115611e5a576040517f08c379a0000000000000000000000000000000000000000000000000000000008152600401611e5190614650565b60405180910390fd5b8080600101915050611d93565b5050565b60007f000000000000000000000000000000000000000000000000000000000000000073ffffffffffffffffffffffffffffffffffffffff163073ffffffffffffffffffffffffffffffffffffffff16148015611ee757507f000000000000000000000000000000000000000000000000000000000000000046145b15611f14577f00000000000000000000000000000000000000000000000000000000000000009050611f1f565b611f1c61235f565b90505b90565b60006040517f190100000000000000000000000000000000000000000000000000000000000081528360028201528260228201526042812091505092915050565b611f6d8282610dca565b611fb05780826040517fe2517d3f000000000000000000000000000000000000000000000000000000008152600401611fa7929190614670565b60405180910390fd5b5050565b606060ff60001b8314611fd157611fca836123f5565b905061205e565b818054611fdd90613c0f565b80601f016020809104026020016040519081016040528092919081815260200182805461200990613c0f565b80156120565780601f1061202b57610100808354040283529160200191612056565b820191906000526020600020905b81548152906001019060200180831161203957829003601f168201915b505050505090505b92915050565b6002600354036120a0576040517f3ee5aeb500000000000000000000000000000000000000000000000000000000815260040160405180910390fd5b6002600381905550565b6000828260008181106120c0576120bf614209565b5b9050013560f81c60f81b60f81c9050600060ff168160ff16036120fd576120f8838360019080926120f3939291906146a3565b612469565b61213a565b806040517f0e8b3d1d00000000000000000000000000000000000000000000000000000000815260040161213191906139ba565b60405180910390fd5b505050565b6001600381905550565b6000806000604184510361218e5760008060006020870151925060408701519150606087015160001a9050612180888285856126ee565b95509550955050505061219e565b60006002855160001b9250925092505b9250925092565b600060038111156121b9576121b86132cc565b5b8260038111156121cc576121cb6132cc565b5b031561230557600160038111156121e6576121e56132cc565b5b8260038111156121f9576121f86132cc565b5b03612230576040517ff645eedf00000000000000000000000000000000000000000000000000000000815260040160405180910390fd5b60026003811115612244576122436132cc565b5b826003811115612257576122566132cc565b5b0361229c578060001c6040517ffce698f70000000000000000000000000000000000000000000000000000000081526004016122939190613271565b60405180910390fd5b6003808111156122af576122ae6132cc565b5b8260038111156122c2576122c16132cc565b5b0361230457806040517fd78bce0c0000000000000000000000000000000000000000000000000000000081526004016122fb9190613247565b60405180910390fd5b5b5050565b60008060009054906101000a900460ff1660ff161161235d576040517f08c379a00000000000000000000000000000000000000000000000000000000081526004016123549061472a565b60405180910390fd5b565b60007f8b73c3c69bb8fe3d512ecc4cf759cc79239f7b179b0ffacaa9a75d522b39400f7f00000000000000000000000000000000000000000000000000000000000000007f000000000000000000000000000000000000000000000000000000000000000046306040516020016123da95949392919061474a565b60405160208183030381529060405280519060200120905090565b60606000612402836127e2565b90506000602067ffffffffffffffff811115612421576124206133c3565b5b6040519080825280601f01601f1916602001820160405280156124535781602001600182028036833780820191505090505b5090508181528360208201528092505050919050565b600080838381019061247b91906147c2565b9150915060006003811115612493576124926132cc565b5b8260038111156124a6576124a56132cc565b5b14806124d65750600160038111156124c1576124c06132cc565b5b8260038111156124d4576124d36132cc565b5b145b806125055750600260038111156124f0576124ef6132cc565b5b826003811115612503576125026132cc565b5b145b80612533575060038081111561251e5761251d6132cc565b5b826003811115612531576125306132cc565b5b145b612572576040517f08c379a00000000000000000000000000000000000000000000000000000000081526004016125699061486a565b60405180910390fd5b60006003811115612586576125856132cc565b5b826003811115612599576125986132cc565b5b036125dd57600080600080848060200190518101906125b891906148b6565b93509350935093506125cb848484612832565b6125d481612933565b505050506126e8565b600160038111156125f1576125f06132cc565b5b826003811115612604576126036132cc565b5b036126305760008180602001905181019061261f9190613d00565b905061262a816129e3565b506126e7565b60026003811115612644576126436132cc565b5b826003811115612657576126566132cc565b5b03612683576000818060200190518101906126729190613d00565b905061267d81612acb565b506126e6565b600380811115612696576126956132cc565b5b8260038111156126a9576126a86132cc565b5b036126e5576000806000838060200190518101906126c79190614a8c565b9250925092506126d682611d35565b6126e1838383612bbf565b5050505b5b5b5b50505050565b60008060007f7fffffffffffffffffffffffffffffff5d576e7357a4501ddfe92f46681b20a08460001c111561272e5760006003859250925092506127d8565b6000600188888888604051600081526020016040526040516127539493929190614b17565b6020604051602081039080840390855afa158015612775573d6000803e3d6000fd5b505050602060405103519050600073ffffffffffffffffffffffffffffffffffffffff168173ffffffffffffffffffffffffffffffffffffffff16036127c957600060016000801b935093509350506127d8565b8060008060001b935093509350505b9450945094915050565b60008060ff8360001c169050601f811115612829576040517fb3512b0c00000000000000000000000000000000000000000000000000000000815260040160405180910390fd5b80915050919050565b60008360ff1611612878576040517f08c379a000000000000000000000000000000000000000000000000000000000815260040161286f90614bce565b60405180910390fd5b8181116128ba576040517f08c379a00000000000000000000000000000000000000000000000000000000081526004016128b190614c3a565b60405180910390fd5b826000806101000a81548160ff021916908360ff16021790555081600181905550806002819055507f661124c8826d75343ee919baad251f50d4348b31f86cd88dabc18a6d96e351bd60008054906101000a900460ff1660015460025460405161292693929190614c5a565b60405180910390a1505050565b60006004811115612947576129466132cc565b5b61294f6109b5565b6004811115612961576129606132cc565b5b146129a1576040517f08c379a0000000000000000000000000000000000000000000000000000000008152600401612998906141c7565b60405180910390fd5b6129ab6001612cc2565b80600a81905550600a547e6e0c97de781a7389d44ba8fd35d1467cabb17ed04d038d166d34ab819213f360405160405180910390a250565b60006129ed6109b5565b905060016004811115612a0357612a026132cc565b5b816004811115612a1657612a156132cc565b5b1480612a455750600480811115612a3057612a2f6132cc565b5b816004811115612a4357612a426132cc565b5b145b612a84576040517f08c379a0000000000000000000000000000000000000000000000000000000008152600401612a7b906141c7565b60405180910390fd5b612a8d82612d45565b612a976002612cc2565b81600a547fb13a0ba3ad52c86ee11584148a76f518c4f4f69aa1f9538fd840f870d087db3560405160405180910390a35050565b60026004811115612adf57612ade6132cc565b5b612ae76109b5565b6004811115612af957612af86132cc565b5b14612b39576040517f08c379a0000000000000000000000000000000000000000000000000000000008152600401612b30906141c7565b60405180910390fd5b80612b42610c00565b14612b82576040517f08c379a0000000000000000000000000000000000000000000000000000000008152600401612b7990614cdd565b60405180910390fd5b612b8c6003612cc2565b80600a547fcd685fc2e41f356efee893f4a0fdabbd8db204a2d3370178ee140be6a7b862c860405160405180910390a350565b60036004811115612bd357612bd26132cc565b5b612bdb6109b5565b6004811115612bed57612bec6132cc565b5b14612c2d576040517f08c379a0000000000000000000000000000000000000000000000000000000008152600401612c24906141c7565b60405180910390fd5b82612c36610c00565b14612c76576040517f08c379a0000000000000000000000000000000000000000000000000000000008152600401612c6d90614cdd565b60405180910390fd5b612c806004612cc2565b82600a547fc4285c0fec32dd4ccb7481b26f7322c0a2951b28a5568db2821fc855e63fe3e28484604051612cb5929190614dac565b60405180910390a3505050565b80604051602001612cd39190613343565b60405160208183030381529060405260096040518060400160405280600781526020017f5f73746174757300000000000000000000000000000000000000000000000000815250604051612d279190613bc9565b90815260200160405180910390209081612d419190614de3565b5050565b80604051602001612d569190613271565b60405160208183030381529060405260096040518060400160405280600b81526020017f5f647261774e756d626572000000000000000000000000000000000000000000815250604051612daa9190613bc9565b90815260200160405180910390209081612dc49190614de3565b5050565b6040518060600160405280600073ffffffffffffffffffffffffffffffffffffffff16815260200160008152602001606081525090565b6000604051905090565b600080fd5b600080fd5b60007fffffffff0000000000000000000000000000000000000000000000000000000082169050919050565b612e4881612e13565b8114612e5357600080fd5b50565b600081359050612e6581612e3f565b92915050565b600060208284031215612e8157612e80612e09565b5b6000612e8f84828501612e56565b91505092915050565b60008115159050919050565b612ead81612e98565b82525050565b6000602082019050612ec86000830184612ea4565b92915050565b600073ffffffffffffffffffffffffffffffffffffffff82169050919050565b6000612ef982612ece565b9050919050565b612f0981612eee565b8114612f1457600080fd5b50565b600081359050612f2681612f00565b92915050565b600080fd5b600080fd5b600080fd5b60008083601f840112612f5157612f50612f2c565b5b8235905067ffffffffffffffff811115612f6e57612f6d612f31565b5b602083019150836001820283011115612f8a57612f89612f36565b5b9250929050565b6000819050919050565b612fa481612f91565b8114612faf57600080fd5b50565b600081359050612fc181612f9b565b92915050565b60008060008060608587031215612fe157612fe0612e09565b5b6000612fef87828801612f17565b945050602085013567ffffffffffffffff8111156130105761300f612e0e565b5b61301c87828801612f3b565b9350935050604061302f87828801612fb2565b91505092959194509250565b61304481612eee565b82525050565b61305381612f91565b82525050565b600081519050919050565b600082825260208201905092915050565b60005b83811015613093578082015181840152602081019050613078565b60008484015250505050565b6000601f19601f8301169050919050565b60006130bb82613059565b6130c58185613064565b93506130d5818560208601613075565b6130de8161309f565b840191505092915050565b6000606083016000830151613101600086018261303b565b506020830151613114602086018261304a565b506040830151848203604086015261312c82826130b0565b9150508091505092915050565b6000819050919050565b61314c81613139565b82525050565b6000604082019050818103600083015261316c81856130e9565b905061317b6020830184613143565b9392505050565b600082825260208201905092915050565b600061319e82613059565b6131a88185613182565b93506131b8818560208601613075565b6131c18161309f565b840191505092915050565b600060208201905081810360008301526131e68184613193565b905092915050565b6131f781613139565b811461320257600080fd5b50565b600081359050613214816131ee565b92915050565b6000602082840312156132305761322f612e09565b5b600061323e84828501613205565b91505092915050565b600060208201905061325c6000830184613143565b92915050565b61326b81612f91565b82525050565b60006020820190506132866000830184613262565b92915050565b600080604083850312156132a3576132a2612e09565b5b60006132b185828601613205565b92505060206132c285828601612f17565b9150509250929050565b7f4e487b7100000000000000000000000000000000000000000000000000000000600052602160045260246000fd5b6005811061330c5761330b6132cc565b5b50565b600081905061331d826132fb565b919050565b600061332d8261330f565b9050919050565b61333d81613322565b82525050565b60006020820190506133586000830184613334565b92915050565b60008060006040848603121561337757613376612e09565b5b600061338586828701612f17565b935050602084013567ffffffffffffffff8111156133a6576133a5612e0e565b5b6133b286828701612f3b565b92509250509250925092565b600080fd5b7f4e487b7100000000000000000000000000000000000000000000000000000000600052604160045260246000fd5b6133fb8261309f565b810181811067ffffffffffffffff8211171561341a576134196133c3565b5b80604052505050565b600061342d612dff565b905061343982826133f2565b919050565b600067ffffffffffffffff821115613459576134586133c3565b5b6134628261309f565b9050602081019050919050565b82818337600083830152505050565b600061349161348c8461343e565b613423565b9050828152602081018484840111156134ad576134ac6133be565b5b6134b884828561346f565b509392505050565b600082601f8301126134d5576134d4612f2c565b5b81356134e584826020860161347e565b91505092915050565b60006020828403121561350457613503612e09565b5b600082013567ffffffffffffffff81111561352257613521612e0e565b5b61352e848285016134c0565b91505092915050565b600063ffffffff82169050919050565b61355081613537565b82525050565b600060208201905061356b6000830184613547565b92915050565b60006020828403121561358757613586612e09565b5b600061359584828501612f17565b91505092915050565b60007fff0000000000000000000000000000000000000000000000000000000000000082169050919050565b6135d38161359e565b82525050565b600081519050919050565b600082825260208201905092915050565b6000613600826135d9565b61360a81856135e4565b935061361a818560208601613075565b6136238161309f565b840191505092915050565b61363781612eee565b82525050565b600081519050919050565b600082825260208201905092915050565b6000819050602082019050919050565b6000613675838361304a565b60208301905092915050565b6000602082019050919050565b60006136998261363d565b6136a38185613648565b93506136ae83613659565b8060005b838110156136df5781516136c68882613669565b97506136d183613681565b9250506001810190506136b2565b5085935050505092915050565b600060e082019050613701600083018a6135ca565b818103602083015261371381896135f5565b9050818103604083015261372781886135f5565b90506137366060830187613262565b613743608083018661362e565b61375060a0830185613143565b81810360c0830152613762818461368e565b905098975050505050505050565b6000602082019050613785600083018461362e565b92915050565b60008083601f8401126137a1576137a0612f2c565b5b8235905067ffffffffffffffff8111156137be576137bd612f31565b5b6020830191508360208202830111156137da576137d9612f36565b5b9250929050565b60008060008060008060008060008060a08b8d03121561380457613803612e09565b5b60008b013567ffffffffffffffff81111561382257613821612e0e565b5b61382e8d828e0161378b565b9a509a505060208b013567ffffffffffffffff81111561385157613850612e0e565b5b61385d8d828e0161378b565b985098505060408b013567ffffffffffffffff8111156138805761387f612e0e565b5b61388c8d828e0161378b565b965096505060608b013567ffffffffffffffff8111156138af576138ae612e0e565b5b6138bb8d828e0161378b565b945094505060808b013567ffffffffffffffff8111156138de576138dd612e0e565b5b6138ea8d828e0161378b565b92509250509295989b9194979a5092959850565b600080fd5b600060608284031215613919576139186138fe565b5b81905092915050565b60008060006040848603121561393b5761393a612e09565b5b600084013567ffffffffffffffff81111561395957613958612e0e565b5b61396586828701613903565b935050602084013567ffffffffffffffff81111561398657613985612e0e565b5b61399286828701612f3b565b92509250509250925092565b600060ff82169050919050565b6139b48161399e565b82525050565b60006020820190506139cf60008301846139ab565b92915050565b600067ffffffffffffffff8211156139f0576139ef6133c3565b5b602082029050602081019050919050565b6000613a14613a0f846139d5565b613423565b90508083825260208201905060208402830185811115613a3757613a36612f36565b5b835b81811015613a605780613a4c8882612fb2565b845260208401935050602081019050613a39565b5050509392505050565b600082601f830112613a7f57613a7e612f2c565b5b8135613a8f848260208601613a01565b91505092915050565b600060208284031215613aae57613aad612e09565b5b600082013567ffffffffffffffff811115613acc57613acb612e0e565b5b613ad884828501613a6a565b91505092915050565b6000604082019050613af66000830185613262565b613b036020830184613262565b9392505050565b600081905092915050565b6000613b218385613b0a565b9350613b2e83858461346f565b82840190509392505050565b6000613b47828486613b15565b91508190509392505050565b6000608082019050613b686000830187613143565b613b75602083018661362e565b613b826040830185613262565b613b8f6060830184613143565b95945050505050565b6000613ba382613059565b613bad8185613b0a565b9350613bbd818560208601613075565b80840191505092915050565b6000613bd58284613b98565b915081905092915050565b7f4e487b7100000000000000000000000000000000000000000000000000000000600052602260045260246000fd5b60006002820490506001821680613c2757607f821691505b602082108103613c3a57613c39613be0565b5b50919050565b60058110613c4d57600080fd5b50565b600081519050613c5f81613c40565b92915050565b600060208284031215613c7b57613c7a612e09565b5b6000613c8984828501613c50565b91505092915050565b613c9b81613537565b8114613ca657600080fd5b50565b600081519050613cb881613c92565b92915050565b600060208284031215613cd457613cd3612e09565b5b6000613ce284828501613ca9565b91505092915050565b600081519050613cfa81612f9b565b92915050565b600060208284031215613d1657613d15612e09565b5b6000613d2484828501613ceb565b91505092915050565b7f4e487b7100000000000000000000000000000000000000000000000000000000600052601160045260246000fd5b6000613d6782612f91565b9150613d7283612f91565b9250828201905080821115613d8a57613d89613d2d565b5b92915050565b600080fd5b600080fd5b600080fd5b60008083356001602003843603038112613dbc57613dbb613d90565b5b80840192508235915067ffffffffffffffff821115613dde57613ddd613d95565b5b602083019250600182023603831315613dfa57613df9613d9a565b5b509250929050565b600067ffffffffffffffff821115613e1d57613e1c6133c3565b5b602082029050602081019050919050565b6000613e41613e3c84613e02565b613423565b90508083825260208201905060208402830185811115613e6457613e63612f36565b5b835b81811015613eab57803567ffffffffffffffff811115613e8957613e88612f2c565b5b808601613e9689826134c0565b85526020850194505050602081019050613e66565b5050509392505050565b600082601f830112613eca57613ec9612f2c565b5b8135613eda848260208601613e2e565b91505092915050565b600080600080600060a08688031215613eff57613efe612e09565b5b600086013567ffffffffffffffff811115613f1d57613f1c612e0e565b5b613f2988828901613eb5565b955050602086013567ffffffffffffffff811115613f4a57613f49612e0e565b5b613f5688828901613eb5565b945050604086013567ffffffffffffffff811115613f7757613f76612e0e565b5b613f8388828901613eb5565b935050606086013567ffffffffffffffff811115613fa457613fa3612e0e565b5b613fb088828901613eb5565b925050608086013567ffffffffffffffff811115613fd157613fd0612e0e565b5b613fdd88828901613eb5565b9150509295509295909350565b600081519050919050565b600082825260208201905092915050565b6000819050602082019050919050565b600061402283836130b0565b905092915050565b6000602082019050919050565b600061404282613fea565b61404c8185613ff5565b93508360208202850161405e85614006565b8060005b8581101561409a578484038952815161407b8582614016565b94506140868361402a565b925060208a01995050600181019050614062565b50829750879550505050505092915050565b600060a08201905081810360008301526140c68188614037565b905081810360208301526140da8187614037565b905081810360408301526140ee8186614037565b905081810360608301526141028185614037565b905081810360808301526141168184614037565b90509695505050505050565b61412b81612e98565b811461413657600080fd5b50565b60008151905061414881614122565b92915050565b60006020828403121561416457614163612e09565b5b600061417284828501614139565b91505092915050565b7f496e636f72726563742053746174757300000000000000000000000000000000600082015250565b60006141b16010836135e4565b91506141bc8261417b565b602082019050919050565b600060208201905081810360008301526141e0816141a4565b9050919050565b60006020820190508181036000830152614201818461368e565b905092915050565b7f4e487b7100000000000000000000000000000000000000000000000000000000600052603260045260246000fd5b60006142448385613182565b935061425183858461346f565b61425a8361309f565b840190509392505050565b60006060820190508181036000830152614280818688614238565b905061428f6020830185613547565b61429c6040830184613547565b95945050505050565b600082905092915050565b60008190508160005260206000209050919050565b60006020601f8301049050919050565b600082821b905092915050565b6000600883026143127fffffffffffffffffffffffffffffffffffffffffffffffffffffffffffffffff826142d5565b61431c86836142d5565b95508019841693508086168417925050509392505050565b6000819050919050565b600061435961435461434f84612f91565b614334565b612f91565b9050919050565b6000819050919050565b6143738361433e565b61438761437f82614360565b8484546142e2565b825550505050565b600090565b61439c61438f565b6143a781848461436a565b505050565b5b818110156143cb576143c0600082614394565b6001810190506143ad565b5050565b601f821115614410576143e1816142b0565b6143ea846142c5565b810160208510156143f9578190505b61440d614405856142c5565b8301826143ac565b50505b505050565b600082821c905092915050565b600061443360001984600802614415565b1980831691505092915050565b600061444c8383614422565b9150826002028217905092915050565b61446683836142a5565b67ffffffffffffffff81111561447f5761447e6133c3565b5b6144898254613c0f565b6144948282856143cf565b6000601f8311600181146144c357600084156144b1578287013590505b6144bb8582614440565b865550614523565b601f1984166144d1866142b0565b60005b828110156144f9578489013582556001820191506020850194506020810190506144d4565b868310156145165784890135614512601f891682614422565b8355505b6001600288020188555050505b50505050505050565b7f496e636f7272656374206e62206e756d62657273000000000000000000000000600082015250565b60006145626014836135e4565b915061456d8261452c565b602082019050919050565b6000602082019050818103600083015261459181614555565b9050919050565b7f4e756d62657220746f6f206c6f77000000000000000000000000000000000000600082015250565b60006145ce600e836135e4565b91506145d982614598565b602082019050919050565b600060208201905081810360008301526145fd816145c1565b9050919050565b7f4e756d62657220746f6f20686967680000000000000000000000000000000000600082015250565b600061463a600f836135e4565b915061464582614604565b602082019050919050565b600060208201905081810360008301526146698161462d565b9050919050565b6000604082019050614685600083018561362e565b6146926020830184613143565b9392505050565b600080fd5b600080fd5b600080858511156146b7576146b6614699565b5b838611156146c8576146c761469e565b5b6001850283019150848603905094509492505050565b7f436f6e666967206e6f7420736574000000000000000000000000000000000000600082015250565b6000614714600e836135e4565b915061471f826146de565b602082019050919050565b6000602082019050818103600083015261474381614707565b9050919050565b600060a08201905061475f6000830188613143565b61476c6020830187613143565b6147796040830186613143565b6147866060830185613262565b614793608083018461362e565b9695505050505050565b600481106147aa57600080fd5b50565b6000813590506147bc8161479d565b92915050565b600080604083850312156147d9576147d8612e09565b5b60006147e7858286016147ad565b925050602083013567ffffffffffffffff81111561480857614807612e0e565b5b614814858286016134c0565b9150509250929050565b7f63616e6e6f7420706172736520616374696f6e00000000000000000000000000600082015250565b60006148546013836135e4565b915061485f8261481e565b602082019050919050565b6000602082019050818103600083015261488381614847565b9050919050565b6148938161399e565b811461489e57600080fd5b50565b6000815190506148b08161488a565b92915050565b600080600080608085870312156148d0576148cf612e09565b5b60006148de878288016148a1565b94505060206148ef87828801613ceb565b935050604061490087828801613ceb565b925050606061491187828801613ceb565b91505092959194509250565b600061493061492b846139d5565b613423565b9050808382526020820190506020840283018581111561495357614952612f36565b5b835b8181101561497c57806149688882613ceb565b845260208401935050602081019050614955565b5050509392505050565b600082601f83011261499b5761499a612f2c565b5b81516149ab84826020860161491d565b91505092915050565b600067ffffffffffffffff8211156149cf576149ce6133c3565b5b602082029050602081019050919050565b6000815190506149ef81612f00565b92915050565b6000614a08614a03846149b4565b613423565b90508083825260208201905060208402830185811115614a2b57614a2a612f36565b5b835b81811015614a545780614a4088826149e0565b845260208401935050602081019050614a2d565b5050509392505050565b600082601f830112614a7357614a72612f2c565b5b8151614a838482602086016149f5565b91505092915050565b600080600060608486031215614aa557614aa4612e09565b5b6000614ab386828701613ceb565b935050602084015167ffffffffffffffff811115614ad457614ad3612e0e565b5b614ae086828701614986565b925050604084015167ffffffffffffffff811115614b0157614b00612e0e565b5b614b0d86828701614a5e565b9150509250925092565b6000608082019050614b2c6000830187613143565b614b3960208301866139ab565b614b466040830185613143565b614b536060830184613143565b95945050505050565b7f4e62204e756d62657273206d7573742062652067726561746572207468616e2060008201527f3000000000000000000000000000000000000000000000000000000000000000602082015250565b6000614bb86021836135e4565b9150614bc382614b5c565b604082019050919050565b60006020820190508181036000830152614be781614bab565b9050919050565b7f6d6178206d7573742062652067726561746572207468616e206d696e00000000600082015250565b6000614c24601c836135e4565b9150614c2f82614bee565b602082019050919050565b60006020820190508181036000830152614c5381614c17565b9050919050565b6000606082019050614c6f60008301866139ab565b614c7c6020830185613262565b614c896040830184613262565b949350505050565b7f496e636f72726563742044726177204e756d6265720000000000000000000000600082015250565b6000614cc76015836135e4565b9150614cd282614c91565b602082019050919050565b60006020820190508181036000830152614cf681614cba565b9050919050565b600081519050919050565b600082825260208201905092915050565b6000819050602082019050919050565b6000614d35838361303b565b60208301905092915050565b6000602082019050919050565b6000614d5982614cfd565b614d638185614d08565b9350614d6e83614d19565b8060005b83811015614d9f578151614d868882614d29565b9750614d9183614d41565b925050600181019050614d72565b5085935050505092915050565b60006040820190508181036000830152614dc6818561368e565b90508181036020830152614dda8184614d4e565b90509392505050565b614dec82613059565b67ffffffffffffffff811115614e0557614e046133c3565b5b614e0f8254613c0f565b614e1a8282856143cf565b600060209050601f831160018114614e4d5760008415614e3b578287015190505b614e458582614440565b865550614ead565b601f198416614e5b866142b0565b60005b82811015614e8357848901518255600182019150602085019450602081019050614e5e565b86831015614ea05784890151614e9c601f891682614422565b8355505b6001600288020188555050505b50505050505056fea264697066735822122095781d59a4dd18713f7030e76ff007ae0049770df63a06c96536f612e318a65264736f6c63430008180033",
  "linkReferences": {},
  "deployedLinkReferences": {}
}