{
  "_format": "hh-sol-artifact-1",
  "contractName": "RaffleRegistration",
  "sourceName": "contracts/RaffleRegistration.sol",
  "abi": [
    {
      "inputs": [
        {
          "internalType": "address",
          "name": "_address",
          "type": "address"
        }
      ],
      "stateMutability": "nonpayable",
      "type": "constructor"
    },
    {
      "inputs": [],
      "name": "AccessControlBadConfirmation",
      "type": "error"
    },
    {
      "inputs": [
        {
          "internalType": "address",
          "name": "account",
          "type": "address"
        },
        {
          "internalType": "bytes32",
          "name": "neededRole",
          "type": "bytes32"
        }
      ],
      "name": "AccessControlUnauthorizedAccount",
      "type": "error"
    },
    {
      "inputs": [],
      "name": "BadAttestor",
      "type": "error"
    },
    {
      "inputs": [
        {
          "internalType": "uint256",
          "name": "kenLen",
          "type": "uint256"
        },
        {
          "internalType": "uint256",
          "name": "valueLen",
          "type": "uint256"
        }
      ],
      "name": "BadCondLen",
      "type": "error"
    },
    {
      "inputs": [
        {
          "internalType": "uint256",
          "name": "kenLen",
          "type": "uint256"
        },
        {
          "internalType": "uint256",
          "name": "valueLen",
          "type": "uint256"
        }
      ],
      "name": "BadUpdateLen",
      "type": "error"
    },
    {
      "inputs": [
        {
          "internalType": "bytes",
          "name": "cond",
          "type": "bytes"
        },
        {
          "internalType": "uint32",
          "name": "expected",
          "type": "uint32"
        },
        {
          "internalType": "uint32",
          "name": "actual",
          "type": "uint32"
        }
      ],
      "name": "CondNotMet",
      "type": "error"
    },
    {
      "inputs": [],
      "name": "ECDSAInvalidSignature",
      "type": "error"
    },
    {
      "inputs": [
        {
          "internalType": "uint256",
          "name": "length",
          "type": "uint256"
        }
      ],
      "name": "ECDSAInvalidSignatureLength",
      "type": "error"
    },
    {
      "inputs": [
        {
          "internalType": "bytes32",
          "name": "s",
          "type": "bytes32"
        }
      ],
      "name": "ECDSAInvalidSignatureS",
      "type": "error"
    },
    {
      "inputs": [
        {
          "internalType": "bytes",
          "name": "data",
          "type": "bytes"
        }
      ],
      "name": "Internal_toUint32Strict_outOfBounds",
      "type": "error"
    },
    {
      "inputs": [],
      "name": "InvalidShortString",
      "type": "error"
    },
    {
      "inputs": [],
      "name": "MetaTxSignatureNotMatch",
      "type": "error"
    },
    {
      "inputs": [
        {
          "internalType": "uint256",
          "name": "actual",
          "type": "uint256"
        },
        {
          "internalType": "uint256",
          "name": "currentNonce",
          "type": "uint256"
        }
      ],
      "name": "NonceTooLow",
      "type": "error"
    },
    {
      "inputs": [
        {
          "internalType": "address",
          "name": "owner",
          "type": "address"
        }
      ],
      "name": "OwnableInvalidOwner",
      "type": "error"
    },
    {
      "inputs": [
        {
          "internalType": "address",
          "name": "account",
          "type": "address"
        }
      ],
      "name": "OwnableUnauthorizedAccount",
      "type": "error"
    },
    {
      "inputs": [],
      "name": "ReentrancyGuardReentrantCall",
      "type": "error"
    },
    {
      "inputs": [
        {
          "internalType": "string",
          "name": "str",
          "type": "string"
        }
      ],
      "name": "StringTooLong",
      "type": "error"
    },
    {
      "inputs": [
        {
          "internalType": "uint8",
          "name": "actionId",
          "type": "uint8"
        }
      ],
      "name": "UnsupportedAction",
      "type": "error"
    },
    {
      "anonymous": false,
      "inputs": [
        {
          "indexed": false,
          "internalType": "uint8",
          "name": "nbNumbers",
          "type": "uint8"
        },
        {
          "indexed": false,
          "internalType": "uint256",
          "name": "minNumber",
          "type": "uint256"
        },
        {
          "indexed": false,
          "internalType": "uint256",
          "name": "maxNumber",
          "type": "uint256"
        }
      ],
      "name": "ConfigUpdated",
      "type": "event"
    },
    {
      "anonymous": false,
      "inputs": [],
      "name": "EIP712DomainChanged",
      "type": "event"
    },
    {
      "anonymous": false,
      "inputs": [
        {
          "indexed": false,
          "internalType": "uint256",
          "name": "",
          "type": "uint256"
        }
      ],
      "name": "MessageProcessedTo",
      "type": "event"
    },
    {
      "anonymous": false,
      "inputs": [],
      "name": "MetaTxDecoded",
      "type": "event"
    },
    {
      "anonymous": false,
      "inputs": [
        {
          "indexed": true,
          "internalType": "address",
          "name": "previousOwner",
          "type": "address"
        },
        {
          "indexed": true,
          "internalType": "address",
          "name": "newOwner",
          "type": "address"
        }
      ],
      "name": "OwnershipTransferred",
      "type": "event"
    },
    {
      "anonymous": false,
      "inputs": [
        {
          "indexed": true,
          "internalType": "uint256",
          "name": "registrationContractId",
          "type": "uint256"
        },
        {
          "indexed": true,
          "internalType": "uint256",
          "name": "drawNumber",
          "type": "uint256"
        },
        {
          "indexed": true,
          "internalType": "address",
          "name": "participant",
          "type": "address"
        },
        {
          "indexed": false,
          "internalType": "uint256[]",
          "name": "numbers",
          "type": "uint256[]"
        }
      ],
      "name": "ParticipationRegistered",
      "type": "event"
    },
    {
      "anonymous": false,
      "inputs": [
        {
          "indexed": true,
          "internalType": "uint256",
          "name": "registrationContractId",
          "type": "uint256"
        },
        {
          "indexed": true,
          "internalType": "uint256",
          "name": "drawNumber",
          "type": "uint256"
        }
      ],
      "name": "RegistrationsClosed",
      "type": "event"
    },
    {
      "anonymous": false,
      "inputs": [
        {
          "indexed": true,
          "internalType": "uint256",
          "name": "registrationContractId",
          "type": "uint256"
        },
        {
          "indexed": true,
          "internalType": "uint256",
          "name": "drawNumber",
          "type": "uint256"
        }
      ],
      "name": "RegistrationsOpen",
      "type": "event"
    },
    {
      "anonymous": false,
      "inputs": [
        {
          "indexed": true,
          "internalType": "uint256",
          "name": "registrationContractId",
          "type": "uint256"
        },
        {
          "indexed": true,
          "internalType": "uint256",
          "name": "drawNumber",
          "type": "uint256"
        },
        {
          "indexed": false,
          "internalType": "uint256[]",
          "name": "numbers",
          "type": "uint256[]"
        },
        {
          "indexed": false,
          "internalType": "bool",
          "name": "hasWinner",
          "type": "bool"
        }
      ],
      "name": "ResultsReceived",
      "type": "event"
    },
    {
      "anonymous": false,
      "inputs": [
        {
          "indexed": true,
          "internalType": "bytes32",
          "name": "role",
          "type": "bytes32"
        },
        {
          "indexed": true,
          "internalType": "bytes32",
          "name": "previousAdminRole",
          "type": "bytes32"
        },
        {
          "indexed": true,
          "internalType": "bytes32",
          "name": "newAdminRole",
          "type": "bytes32"
        }
      ],
      "name": "RoleAdminChanged",
      "type": "event"
    },
    {
      "anonymous": false,
      "inputs": [
        {
          "indexed": true,
          "internalType": "bytes32",
          "name": "role",
          "type": "bytes32"
        },
        {
          "indexed": true,
          "internalType": "address",
          "name": "account",
          "type": "address"
        },
        {
          "indexed": true,
          "internalType": "address",
          "name": "sender",
          "type": "address"
        }
      ],
      "name": "RoleGranted",
      "type": "event"
    },
    {
      "anonymous": false,
      "inputs": [
        {
          "indexed": true,
          "internalType": "bytes32",
          "name": "role",
          "type": "bytes32"
        },
        {
          "indexed": true,
          "internalType": "address",
          "name": "account",
          "type": "address"
        },
        {
          "indexed": true,
          "internalType": "address",
          "name": "sender",
          "type": "address"
        }
      ],
      "name": "RoleRevoked",
      "type": "event"
    },
    {
      "anonymous": false,
      "inputs": [
        {
          "indexed": true,
          "internalType": "uint256",
          "name": "registrationContractId",
          "type": "uint256"
        },
        {
          "indexed": true,
          "internalType": "uint256",
          "name": "drawNumber",
          "type": "uint256"
        }
      ],
      "name": "SaltGenerated",
      "type": "event"
    },
    {
      "anonymous": false,
      "inputs": [
        {
          "indexed": true,
          "internalType": "uint256",
          "name": "registrationContractId",
          "type": "uint256"
        }
      ],
      "name": "Started",
      "type": "event"
    },
    {
      "inputs": [],
      "name": "ATTESTOR_ROLE",
      "outputs": [
        {
          "internalType": "bytes32",
          "name": "",
          "type": "bytes32"
        }
      ],
      "stateMutability": "view",
      "type": "function"
    },
    {
      "inputs": [],
      "name": "DEFAULT_ADMIN_ROLE",
      "outputs": [
        {
          "internalType": "bytes32",
          "name": "",
          "type": "bytes32"
        }
      ],
      "stateMutability": "view",
      "type": "function"
    },
    {
      "inputs": [],
      "name": "DRAW_NUMBER",
      "outputs": [
        {
          "internalType": "bytes",
          "name": "",
          "type": "bytes"
        }
      ],
      "stateMutability": "view",
      "type": "function"
    },
    {
      "inputs": [],
      "name": "STATUS",
      "outputs": [
        {
          "internalType": "bytes",
          "name": "",
          "type": "bytes"
        }
      ],
      "stateMutability": "view",
      "type": "function"
    },
    {
      "inputs": [],
      "name": "canParticipate",
      "outputs": [
        {
          "internalType": "bool",
          "name": "",
          "type": "bool"
        }
      ],
      "stateMutability": "view",
      "type": "function"
    },
    {
      "inputs": [],
      "name": "eip712Domain",
      "outputs": [
        {
          "internalType": "bytes1",
          "name": "fields",
          "type": "bytes1"
        },
        {
          "internalType": "string",
          "name": "name",
          "type": "string"
        },
        {
          "internalType": "string",
          "name": "version",
          "type": "string"
        },
        {
          "internalType": "uint256",
          "name": "chainId",
          "type": "uint256"
        },
        {
          "internalType": "address",
          "name": "verifyingContract",
          "type": "address"
        },
        {
          "internalType": "bytes32",
          "name": "salt",
          "type": "bytes32"
        },
        {
          "internalType": "uint256[]",
          "name": "extensions",
          "type": "uint256[]"
        }
      ],
      "stateMutability": "view",
      "type": "function"
    },
    {
      "inputs": [],
      "name": "getDrawNumber",
      "outputs": [
        {
          "internalType": "uint256",
          "name": "",
          "type": "uint256"
        }
      ],
      "stateMutability": "view",
      "type": "function"
    },
    {
      "inputs": [
        {
          "internalType": "bytes32",
          "name": "role",
          "type": "bytes32"
        }
      ],
      "name": "getRoleAdmin",
      "outputs": [
        {
          "internalType": "bytes32",
          "name": "",
          "type": "bytes32"
        }
      ],
      "stateMutability": "view",
      "type": "function"
    },
    {
      "inputs": [],
      "name": "getStatus",
      "outputs": [
        {
          "internalType": "enum RaffleRegistration.Status",
          "name": "",
          "type": "uint8"
        }
      ],
      "stateMutability": "view",
      "type": "function"
    },
    {
      "inputs": [
        {
          "internalType": "bytes",
          "name": "key",
          "type": "bytes"
        }
      ],
      "name": "getStorage",
      "outputs": [
        {
          "internalType": "bytes",
          "name": "",
          "type": "bytes"
        }
      ],
      "stateMutability": "view",
      "type": "function"
    },
    {
      "inputs": [
        {
          "internalType": "bytes32",
          "name": "role",
          "type": "bytes32"
        },
        {
          "internalType": "address",
          "name": "account",
          "type": "address"
        }
      ],
      "name": "grantRole",
      "outputs": [],
      "stateMutability": "nonpayable",
      "type": "function"
    },
    {
      "inputs": [
        {
          "internalType": "bytes32",
          "name": "role",
          "type": "bytes32"
        },
        {
          "internalType": "address",
          "name": "account",
          "type": "address"
        }
      ],
      "name": "hasRole",
      "outputs": [
        {
          "internalType": "bool",
          "name": "",
          "type": "bool"
        }
      ],
      "stateMutability": "view",
      "type": "function"
    },
    {
      "inputs": [],
      "name": "maxNumber",
      "outputs": [
        {
          "internalType": "uint256",
          "name": "",
          "type": "uint256"
        }
      ],
      "stateMutability": "view",
      "type": "function"
    },
    {
      "inputs": [
        {
          "internalType": "address",
          "name": "from",
          "type": "address"
        }
      ],
      "name": "metaTxGetNonce",
      "outputs": [
        {
          "internalType": "uint256",
          "name": "",
          "type": "uint256"
        }
      ],
      "stateMutability": "view",
      "type": "function"
    },
    {
      "inputs": [
        {
          "internalType": "address",
          "name": "from",
          "type": "address"
        },
        {
          "internalType": "bytes",
          "name": "data",
          "type": "bytes"
        }
      ],
      "name": "metaTxPrepare",
      "outputs": [
        {
          "components": [
            {
              "internalType": "address",
              "name": "from",
              "type": "address"
            },
            {
              "internalType": "uint256",
              "name": "nonce",
              "type": "uint256"
            },
            {
              "internalType": "bytes",
              "name": "data",
              "type": "bytes"
            }
          ],
          "internalType": "struct MetaTxReceiver.ForwardRequest",
          "name": "",
          "type": "tuple"
        },
        {
          "internalType": "bytes32",
          "name": "",
          "type": "bytes32"
        }
      ],
      "stateMutability": "view",
      "type": "function"
    },
    {
      "inputs": [
        {
          "internalType": "address",
          "name": "from",
          "type": "address"
        },
        {
          "internalType": "bytes",
          "name": "data",
          "type": "bytes"
        },
        {
          "internalType": "uint256",
          "name": "nonce",
          "type": "uint256"
        }
      ],
      "name": "metaTxPrepareWithNonce",
      "outputs": [
        {
          "components": [
            {
              "internalType": "address",
              "name": "from",
              "type": "address"
            },
            {
              "internalType": "uint256",
              "name": "nonce",
              "type": "uint256"
            },
            {
              "internalType": "bytes",
              "name": "data",
              "type": "bytes"
            }
          ],
          "internalType": "struct MetaTxReceiver.ForwardRequest",
          "name": "",
          "type": "tuple"
        },
        {
          "internalType": "bytes32",
          "name": "",
          "type": "bytes32"
        }
      ],
      "stateMutability": "view",
      "type": "function"
    },
    {
      "inputs": [
        {
          "components": [
            {
              "internalType": "address",
              "name": "from",
              "type": "address"
            },
            {
              "internalType": "uint256",
              "name": "nonce",
              "type": "uint256"
            },
            {
              "internalType": "bytes",
              "name": "data",
              "type": "bytes"
            }
          ],
          "internalType": "struct MetaTxReceiver.ForwardRequest",
          "name": "req",
          "type": "tuple"
        },
        {
          "internalType": "bytes",
          "name": "signature",
          "type": "bytes"
        }
      ],
      "name": "metaTxRollupU256CondEq",
      "outputs": [
        {
          "internalType": "bool",
          "name": "",
          "type": "bool"
        }
      ],
      "stateMutability": "nonpayable",
      "type": "function"
    },
    {
      "inputs": [
        {
          "components": [
            {
              "internalType": "address",
              "name": "from",
              "type": "address"
            },
            {
              "internalType": "uint256",
              "name": "nonce",
              "type": "uint256"
            },
            {
              "internalType": "bytes",
              "name": "data",
              "type": "bytes"
            }
          ],
          "internalType": "struct MetaTxReceiver.ForwardRequest",
          "name": "req",
          "type": "tuple"
        },
        {
          "internalType": "bytes",
          "name": "signature",
          "type": "bytes"
        }
      ],
      "name": "metaTxVerify",
      "outputs": [
        {
          "internalType": "bool",
          "name": "",
          "type": "bool"
        }
      ],
      "stateMutability": "view",
      "type": "function"
    },
    {
      "inputs": [],
      "name": "minNumber",
      "outputs": [
        {
          "internalType": "uint256",
          "name": "",
          "type": "uint256"
        }
      ],
      "stateMutability": "view",
      "type": "function"
    },
    {
      "inputs": [],
      "name": "nbNumbers",
      "outputs": [
        {
          "internalType": "uint8",
          "name": "",
          "type": "uint8"
        }
      ],
      "stateMutability": "view",
      "type": "function"
    },
    {
      "inputs": [],
      "name": "owner",
      "outputs": [
        {
          "internalType": "address",
          "name": "",
          "type": "address"
        }
      ],
      "stateMutability": "view",
      "type": "function"
    },
    {
      "inputs": [
        {
          "internalType": "uint256[]",
          "name": "_numbers",
          "type": "uint256[]"
        }
      ],
      "name": "participate",
      "outputs": [],
      "stateMutability": "nonpayable",
      "type": "function"
    },
    {
      "inputs": [
        {
          "internalType": "address",
          "name": "_attestor",
          "type": "address"
        }
      ],
      "name": "registerAttestor",
      "outputs": [],
      "stateMutability": "nonpayable",
      "type": "function"
    },
    {
      "inputs": [],
      "name": "registrationContractId",
      "outputs": [
        {
          "internalType": "uint256",
          "name": "",
          "type": "uint256"
        }
      ],
      "stateMutability": "view",
      "type": "function"
    },
    {
      "inputs": [],
      "name": "renounceOwnership",
      "outputs": [],
      "stateMutability": "nonpayable",
      "type": "function"
    },
    {
      "inputs": [
        {
          "internalType": "bytes32",
          "name": "role",
          "type": "bytes32"
        },
        {
          "internalType": "address",
          "name": "callerConfirmation",
          "type": "address"
        }
      ],
      "name": "renounceRole",
      "outputs": [],
      "stateMutability": "nonpayable",
      "type": "function"
    },
    {
      "inputs": [
        {
          "internalType": "bytes32",
          "name": "role",
          "type": "bytes32"
        },
        {
          "internalType": "address",
          "name": "account",
          "type": "address"
        }
      ],
      "name": "revokeRole",
      "outputs": [],
      "stateMutability": "nonpayable",
      "type": "function"
    },
    {
      "inputs": [
        {
          "internalType": "bytes[]",
          "name": "condKeys",
          "type": "bytes[]"
        },
        {
          "internalType": "bytes[]",
          "name": "condValues",
          "type": "bytes[]"
        },
        {
          "internalType": "bytes[]",
          "name": "updateKeys",
          "type": "bytes[]"
        },
        {
          "internalType": "bytes[]",
          "name": "updateValues",
          "type": "bytes[]"
        },
        {
          "internalType": "bytes[]",
          "name": "actions",
          "type": "bytes[]"
        }
      ],
      "name": "rollupU256CondEq",
      "outputs": [
        {
          "internalType": "bool",
          "name": "",
          "type": "bool"
        }
      ],
      "stateMutability": "nonpayable",
      "type": "function"
    },
    {
      "inputs": [
        {
          "internalType": "bytes4",
          "name": "interfaceId",
          "type": "bytes4"
        }
      ],
      "name": "supportsInterface",
      "outputs": [
        {
          "internalType": "bool",
          "name": "",
          "type": "bool"
        }
      ],
      "stateMutability": "view",
      "type": "function"
    },
    {
      "inputs": [
        {
          "internalType": "bytes",
          "name": "_bytes",
          "type": "bytes"
        }
      ],
      "name": "toUint32Strict",
      "outputs": [
        {
          "internalType": "uint32",
          "name": "",
          "type": "uint32"
        }
      ],
      "stateMutability": "pure",
      "type": "function"
    },
    {
      "inputs": [
        {
          "internalType": "address",
          "name": "newOwner",
          "type": "address"
        }
      ],
      "name": "transferOwnership",
      "outputs": [],
      "stateMutability": "nonpayable",
      "type": "function"
    }
  ],
  "bytecode": "0x6101606040523480156200001257600080fd5b5060405162005e5238038062005e5283398181016040528101906200003891906200070a565b806040518060400160405280601881526020017f50686174526f6c6c75704d6574615478526563656976657200000000000000008152506040518060400160405280600581526020017f302e302e310000000000000000000000000000000000000000000000000000008152506001600381905550620000c36004836200022560201b90919060201c565b6101208181525050620000e16005826200022560201b90919060201c565b6101408181525050818051906020012060e08181525050808051906020012061010081815250504660a08181525050620001206200027d60201b60201c565b608081815250503073ffffffffffffffffffffffffffffffffffffffff1660c08173ffffffffffffffffffffffffffffffffffffffff16815250505050600073ffffffffffffffffffffffffffffffffffffffff168173ffffffffffffffffffffffffffffffffffffffff1603620001d25760006040517f1e4fbdf7000000000000000000000000000000000000000000000000000000008152600401620001c991906200074d565b60405180910390fd5b620001e381620002da60201b60201c565b50620001f96000801b82620003a060201b60201c565b506200020c6000620004a460201b60201c565b6200021e60006200052d60201b60201c565b5062000f0a565b60006020835110156200024b576200024383620005b660201b60201c565b905062000277565b826200025d836200062360201b60201c565b60000190816200026e9190620009e4565b5060ff60001b90505b92915050565b60007f8b73c3c69bb8fe3d512ecc4cf759cc79239f7b179b0ffacaa9a75d522b39400f60e051610100514630604051602001620002bf95949392919062000af7565b60405160208183030381529060405280519060200120905090565b6000600660009054906101000a900473ffffffffffffffffffffffffffffffffffffffff16905081600660006101000a81548173ffffffffffffffffffffffffffffffffffffffff021916908373ffffffffffffffffffffffffffffffffffffffff1602179055508173ffffffffffffffffffffffffffffffffffffffff168173ffffffffffffffffffffffffffffffffffffffff167f8be0079c531659141344cd1fd0a4f28419497f9722a3daafe3b4186f6b6457e060405160405180910390a35050565b6000620003b483836200062d60201b60201c565b620004995760016008600085815260200190815260200160002060000160008473ffffffffffffffffffffffffffffffffffffffff1673ffffffffffffffffffffffffffffffffffffffff16815260200190815260200160002060006101000a81548160ff021916908315150217905550620004356200069860201b60201c565b73ffffffffffffffffffffffffffffffffffffffff168273ffffffffffffffffffffffffffffffffffffffff16847f2f8788117e7eff1d82e926ec794901d17c78024a50270940304540a733656f0d60405160405180910390a4600190506200049e565b600090505b92915050565b80604051602001620004b7919062000bd4565b60405160208183030381529060405260096040518060400160405280600781526020017f5f737461747573000000000000000000000000000000000000000000000000008152506040516200050d919062000c6a565b9081526020016040518091039020908162000529919062000ce8565b5050565b8060405160200162000540919062000dcf565b60405160208183030381529060405260096040518060400160405280600b81526020017f5f647261774e756d62657200000000000000000000000000000000000000000081525060405162000596919062000c6a565b90815260200160405180910390209081620005b2919062000ce8565b5050565b600080829050601f815111156200060657826040517f305a27a9000000000000000000000000000000000000000000000000000000008152600401620005fd919062000e4f565b60405180910390fd5b805181620006149062000e9a565b60001c1760001b915050919050565b6000819050919050565b60006008600084815260200190815260200160002060000160008373ffffffffffffffffffffffffffffffffffffffff1673ffffffffffffffffffffffffffffffffffffffff16815260200190815260200160002060009054906101000a900460ff16905092915050565b600033905090565b600080fd5b600073ffffffffffffffffffffffffffffffffffffffff82169050919050565b6000620006d282620006a5565b9050919050565b620006e481620006c5565b8114620006f057600080fd5b50565b6000815190506200070481620006d9565b92915050565b600060208284031215620007235762000722620006a0565b5b60006200073384828501620006f3565b91505092915050565b6200074781620006c5565b82525050565b60006020820190506200076460008301846200073c565b92915050565b600081519050919050565b7f4e487b7100000000000000000000000000000000000000000000000000000000600052604160045260246000fd5b7f4e487b7100000000000000000000000000000000000000000000000000000000600052602260045260246000fd5b60006002820490506001821680620007ec57607f821691505b602082108103620008025762000801620007a4565b5b50919050565b60008190508160005260206000209050919050565b60006020601f8301049050919050565b600082821b905092915050565b6000600883026200086c7fffffffffffffffffffffffffffffffffffffffffffffffffffffffffffffffff826200082d565b6200087886836200082d565b95508019841693508086168417925050509392505050565b6000819050919050565b6000819050919050565b6000620008c5620008bf620008b98462000890565b6200089a565b62000890565b9050919050565b6000819050919050565b620008e183620008a4565b620008f9620008f082620008cc565b8484546200083a565b825550505050565b600090565b6200091062000901565b6200091d818484620008d6565b505050565b5b8181101562000945576200093960008262000906565b60018101905062000923565b5050565b601f82111562000994576200095e8162000808565b62000969846200081d565b8101602085101562000979578190505b6200099162000988856200081d565b83018262000922565b50505b505050565b600082821c905092915050565b6000620009b96000198460080262000999565b1980831691505092915050565b6000620009d48383620009a6565b9150826002028217905092915050565b620009ef826200076a565b67ffffffffffffffff81111562000a0b5762000a0a62000775565b5b62000a178254620007d3565b62000a2482828562000949565b600060209050601f83116001811462000a5c576000841562000a47578287015190505b62000a538582620009c6565b86555062000ac3565b601f19841662000a6c8662000808565b60005b8281101562000a965784890151825560018201915060208501945060208101905062000a6f565b8683101562000ab6578489015162000ab2601f891682620009a6565b8355505b6001600288020188555050505b505050505050565b6000819050919050565b62000ae08162000acb565b82525050565b62000af18162000890565b82525050565b600060a08201905062000b0e600083018862000ad5565b62000b1d602083018762000ad5565b62000b2c604083018662000ad5565b62000b3b606083018562000ae6565b62000b4a60808301846200073c565b9695505050505050565b7f4e487b7100000000000000000000000000000000000000000000000000000000600052602160045260246000fd5b6006811062000b975762000b9662000b54565b5b50565b600081905062000baa8262000b83565b919050565b600062000bbc8262000b9a565b9050919050565b62000bce8162000baf565b82525050565b600060208201905062000beb600083018462000bc3565b92915050565b600081519050919050565b600081905092915050565b60005b8381101562000c2757808201518184015260208101905062000c0a565b60008484015250505050565b600062000c408262000bf1565b62000c4c818562000bfc565b935062000c5e81856020860162000c07565b80840191505092915050565b600062000c78828462000c33565b915081905092915050565b60008190508160005260206000209050919050565b601f82111562000ce35762000cad8162000c83565b62000cb8846200081d565b8101602085101562000cc8578190505b62000ce062000cd7856200081d565b83018262000922565b50505b505050565b62000cf38262000bf1565b67ffffffffffffffff81111562000d0f5762000d0e62000775565b5b62000d1b8254620007d3565b62000d2882828562000c98565b600060209050601f83116001811462000d60576000841562000d4b578287015190505b62000d578582620009c6565b86555062000dc7565b601f19841662000d708662000c83565b60005b8281101562000d9a5784890151825560018201915060208501945060208101905062000d73565b8683101562000dba578489015162000db6601f891682620009a6565b8355505b6001600288020188555050505b505050505050565b600060208201905062000de6600083018462000ae6565b92915050565b600082825260208201905092915050565b6000601f19601f8301169050919050565b600062000e1b826200076a565b62000e27818562000dec565b935062000e3981856020860162000c07565b62000e448162000dfd565b840191505092915050565b6000602082019050818103600083015262000e6b818462000e0e565b905092915050565b6000819050602082019050919050565b600062000e91825162000acb565b80915050919050565b600062000ea78262000bf1565b8262000eb38462000e73565b905062000ec08162000e83565b9250602082101562000f035762000efe7fffffffffffffffffffffffffffffffffffffffffffffffffffffffffffffffff836020036008026200082d565b831692505b5050919050565b60805160a05160c05160e051610100516101205161014051614eed62000f65600039600061195101526000611916015260006123a50152600061238401526000611e6f01526000611ec501526000611eee0152614eed6000f3fe608060405234801561001057600080fd5b50600436106101e55760003560e01c80637be20a6d1161010f578063bbbfe446116100a2578063e33865b311610071578063e33865b3146105b4578063f2f9fa08146105d2578063f2fde38b146105ee578063f4034a961461060a576101e5565b8063bbbfe4461461051a578063caa0ff211461054a578063d547741f1461057a578063e32d6d5914610596576101e5565b8063a217fddf116100de578063a217fddf1461047e578063a51831a81461049c578063a7d257f6146104cc578063ad0bc464146104ea576101e5565b80637be20a6d146103ee57806384b0196e1461040c5780638da5cb5b1461043057806391d148541461044e576101e5565b80633a4f69991161018757806355b930311161015657806355b930311461038c578063602ad665146103aa57806362723644146103c6578063715018a6146103e4576101e5565b80633a4f6999146102ef5780634e69d5601461030d5780635232f0d71461032b578063531161371461035c576101e5565b8063248a9ca3116101c3578063248a9ca3146102695780632622705b146102995780632f2ff15d146102b757806336568abe146102d3576101e5565b806301ffc9a7146101ea57806322dae16c1461021a5780632417b99c1461024b575b600080fd5b61020460048036038101906101ff9190613017565b61063a565b604051610211919061305f565b60405180910390f35b610234600480360381019061022f9190613173565b6106b4565b6040516102429291906132fe565b60405180910390f35b61025361087d565b6040516102609190613378565b60405180910390f35b610283600480360381019061027e91906133c6565b6108b6565b60405161029091906133f3565b60405180910390f35b6102a16108d6565b6040516102ae919061341d565b60405180910390f35b6102d160048036038101906102cc9190613438565b6108dc565b005b6102ed60048036038101906102e89190613438565b6108fe565b005b6102f7610979565b604051610304919061341d565b60405180910390f35b61031561097f565b60405161032291906134ef565b60405180910390f35b6103456004803603810190610340919061350a565b610a75565b6040516103539291906132fe565b60405180910390f35b6103766004803603810190610371919061369a565b610ad6565b6040516103839190613702565b60405180910390f35b610394610b51565b6040516103a1919061341d565b60405180910390f35b6103c460048036038101906103bf919061371d565b610b57565b005b6103ce610b92565b6040516103db91906133f3565b60405180910390f35b6103ec610bb6565b005b6103f6610bca565b604051610403919061341d565b60405180910390f35b610414610cc0565b6040516104279796959493929190613898565b60405180910390f35b610438610d6a565b604051610445919061391c565b60405180910390f35b61046860048036038101906104639190613438565b610d94565b604051610475919061305f565b60405180910390f35b610486610dff565b60405161049391906133f3565b60405180910390f35b6104b660048036038101906104b1919061398d565b610e06565b6040516104c3919061305f565b60405180910390f35b6104d4610ec4565b6040516104e1919061305f565b60405180910390f35b61050460048036038101906104ff9190613ace565b610efa565b604051610511919061305f565b60405180910390f35b610534600480360381019061052f9190613ace565b611108565b604051610541919061305f565b60405180910390f35b610564600480360381019061055f919061369a565b61129e565b6040516105719190613378565b60405180910390f35b610594600480360381019061058f9190613438565b61134e565b005b61059e611370565b6040516105ab9190613b66565b60405180910390f35b6105bc611381565b6040516105c99190613378565b60405180910390f35b6105ec60048036038101906105e79190613c44565b6113ba565b005b6106086004803603810190610603919061371d565b61146c565b005b610624600480360381019061061f919061371d565b6114f2565b604051610631919061341d565b60405180910390f35b60007f7965db0b000000000000000000000000000000000000000000000000000000007bffffffffffffffffffffffffffffffffffffffffffffffffffffffff1916827bffffffffffffffffffffffffffffffffffffffffffffffffffffffff191614806106ad57506106ac8261153b565b5b9050919050565b6106bc612f74565b6000600760008773ffffffffffffffffffffffffffffffffffffffff1673ffffffffffffffffffffffffffffffffffffffff168152602001908152602001600020548310156107835782600760008873ffffffffffffffffffffffffffffffffffffffff1673ffffffffffffffffffffffffffffffffffffffff168152602001908152602001600020546040517f045f356c00000000000000000000000000000000000000000000000000000000815260040161077a929190613c8d565b60405180910390fd5b600060405180606001604052808873ffffffffffffffffffffffffffffffffffffffff16815260200185815260200187878080601f016020809104026020016040519081016040528093929190818152602001838380828437600081840152601f19601f820116905080830192505050505050508152509050600061086a7f2c521d146a6f6c09462cb178367b028f1718b1f01d7995bb405dae702c2bee7d89878a8a604051610834929190613ce6565b604051809103902060405160200161084f9493929190613cff565b604051602081830303815290604052805190602001206115a5565b9050818193509350505094509492505050565b6040518060400160405280600b81526020017f5f647261774e756d62657200000000000000000000000000000000000000000081525081565b600060086000838152602001908152602001600020600101549050919050565b600a5481565b6108e5826108b6565b6108ee816115bf565b6108f883836115d3565b50505050565b6109066116c5565b73ffffffffffffffffffffffffffffffffffffffff168173ffffffffffffffffffffffffffffffffffffffff161461096a576040517f6697b23200000000000000000000000000000000000000000000000000000000815260040160405180910390fd5b61097482826116cd565b505050565b60025481565b600060096040518060400160405280600781526020017f5f737461747573000000000000000000000000000000000000000000000000008152506040516109c69190613d75565b908152602001604051809103902080546109df90613dbb565b80601f0160208091040260200160405190810160405280929190818152602001828054610a0b90613dbb565b8015610a585780601f10610a2d57610100808354040283529160200191610a58565b820191906000526020600020905b815481529060010190602001808311610a3b57829003601f168201915b5050505050806020019051810190610a709190613e11565b905090565b610a7d612f74565b6000610aca858585600760008a73ffffffffffffffffffffffffffffffffffffffff1673ffffffffffffffffffffffffffffffffffffffff168152602001908152602001600020546106b4565b91509150935093915050565b600080825103610ae95760009050610b4c565b6020825114610b2f57816040517f3d7dc906000000000000000000000000000000000000000000000000000000008152600401610b269190613378565b60405180910390fd5b600082806020019051810190610b459190613e6a565b9050809150505b919050565b60015481565b6000801b610b64816115bf565b610b8e7fa7e0cd0f2772b23ee4c329892293a6bd99d48c306b094d6d008c9a8bb8b731e4836108dc565b5050565b7fa7e0cd0f2772b23ee4c329892293a6bd99d48c306b094d6d008c9a8bb8b731e481565b610bbe6117c0565b610bc86000611847565b565b600060096040518060400160405280600b81526020017f5f647261774e756d626572000000000000000000000000000000000000000000815250604051610c119190613d75565b90815260200160405180910390208054610c2a90613dbb565b80601f0160208091040260200160405190810160405280929190818152602001828054610c5690613dbb565b8015610ca35780601f10610c7857610100808354040283529160200191610ca3565b820191906000526020600020905b815481529060010190602001808311610c8657829003601f168201915b5050505050806020019051810190610cbb9190613eac565b905090565b600060608060008060006060610cd461190d565b610cdc611948565b46306000801b600067ffffffffffffffff811115610cfd57610cfc61356f565b5b604051908082528060200260200182016040528015610d2b5781602001602082028036833780820191505090505b507f0f00000000000000000000000000000000000000000000000000000000000000959493929190965096509650965096509650965090919293949596565b6000600660009054906101000a900473ffffffffffffffffffffffffffffffffffffffff16905090565b60006008600084815260200190815260200160002060000160008373ffffffffffffffffffffffffffffffffffffffff1673ffffffffffffffffffffffffffffffffffffffff16815260200190815260200160002060009054906101000a900460ff16905092915050565b6000801b81565b60003073ffffffffffffffffffffffffffffffffffffffff163373ffffffffffffffffffffffffffffffffffffffff1614158015610e6b5750610e697fa7e0cd0f2772b23ee4c329892293a6bd99d48c306b094d6d008c9a8bb8b731e433610d94565b155b15610ea2576040517f20d82bef00000000000000000000000000000000000000000000000000000000815260040160405180910390fd5b610eb48b8b8b8b8b8b8b8b8b8b611983565b90509a9950505050505050505050565b600060026005811115610eda57610ed9613478565b5b610ee261097f565b6005811115610ef457610ef3613478565b5b14905090565b6000838383610f0a838383611108565b610f40576040517fbde0493900000000000000000000000000000000000000000000000000000000815260040160405180910390fd5b60018360200135610f519190613f08565b60076000856000016020810190610f68919061371d565b73ffffffffffffffffffffffffffffffffffffffff1673ffffffffffffffffffffffffffffffffffffffff16815260200190815260200160002081905550610fe27fa7e0cd0f2772b23ee4c329892293a6bd99d48c306b094d6d008c9a8bb8b731e4886000016020810190610fdd919061371d565b610d94565b611018576040517f20d82bef00000000000000000000000000000000000000000000000000000000815260040160405180910390fd5b60008060008060008b80604001906110309190613f4b565b81019061103d919061408f565b945094509450945094507fd51c7c5244bba290f6c37777de0bc20a70c18abd55539658bc63251379297dcd60405160405180910390a13073ffffffffffffffffffffffffffffffffffffffff1663a51831a886868686866040518663ffffffff1660e01b81526004016110b4959493929190614258565b6020604051808303816000875af11580156110d3573d6000803e3d6000fd5b505050506040513d601f19601f820116820180604052508101906110f791906142fa565b985050505050505050509392505050565b6000806111f184848080601f016020809104026020016040519081016040528093929190818152602001838380828437600081840152601f19601f820116905080830192505050505050506111e37f2c521d146a6f6c09462cb178367b028f1718b1f01d7995bb405dae702c2bee7d88600001602081019061118a919061371d565b89602001358a806040019061119f9190613f4b565b6040516111ad929190613ce6565b60405180910390206040516020016111c89493929190613cff565b604051602081830303815290604052805190602001206115a5565b611d0990919063ffffffff16565b905084602001356007600087600001602081019061120f919061371d565b73ffffffffffffffffffffffffffffffffffffffff1673ffffffffffffffffffffffffffffffffffffffff168152602001908152602001600020541480156112945750846000016020810190611265919061371d565b73ffffffffffffffffffffffffffffffffffffffff168173ffffffffffffffffffffffffffffffffffffffff16145b9150509392505050565b60606009826040516112b09190613d75565b908152602001604051809103902080546112c990613dbb565b80601f01602080910402602001604051908101604052809291908181526020018280546112f590613dbb565b80156113425780601f1061131757610100808354040283529160200191611342565b820191906000526020600020905b81548152906001019060200180831161132557829003601f168201915b50505050509050919050565b611357826108b6565b611360816115bf565b61136a83836116cd565b50505050565b60008054906101000a900460ff1681565b6040518060400160405280600781526020017f5f7374617475730000000000000000000000000000000000000000000000000081525081565b6113c2610ec4565b611401576040517f08c379a00000000000000000000000000000000000000000000000000000000081526004016113f890614373565b60405180910390fd5b61140a81611d35565b60003390508073ffffffffffffffffffffffffffffffffffffffff1661142e610bca565b600a547f09f77ef5a620f089b59340cfb5a6f53f6fd1067a1a6fe23620a1255356ebddb6856040516114609190614393565b60405180910390a45050565b6114746117c0565b600073ffffffffffffffffffffffffffffffffffffffff168173ffffffffffffffffffffffffffffffffffffffff16036114e65760006040517f1e4fbdf70000000000000000000000000000000000000000000000000000000081526004016114dd919061391c565b60405180910390fd5b6114ef81611847565b50565b6000600760008373ffffffffffffffffffffffffffffffffffffffff1673ffffffffffffffffffffffffffffffffffffffff168152602001908152602001600020549050919050565b60007f01ffc9a7000000000000000000000000000000000000000000000000000000007bffffffffffffffffffffffffffffffffffffffffffffffffffffffff1916827bffffffffffffffffffffffffffffffffffffffffffffffffffffffff1916149050919050565b60006115b86115b2611e6b565b83611f22565b9050919050565b6115d0816115cb6116c5565b611f63565b50565b60006115df8383610d94565b6116ba5760016008600085815260200190815260200160002060000160008473ffffffffffffffffffffffffffffffffffffffff1673ffffffffffffffffffffffffffffffffffffffff16815260200190815260200160002060006101000a81548160ff0219169083151502179055506116576116c5565b73ffffffffffffffffffffffffffffffffffffffff168273ffffffffffffffffffffffffffffffffffffffff16847f2f8788117e7eff1d82e926ec794901d17c78024a50270940304540a733656f0d60405160405180910390a4600190506116bf565b600090505b92915050565b600033905090565b60006116d98383610d94565b156117b55760006008600085815260200190815260200160002060000160008473ffffffffffffffffffffffffffffffffffffffff1673ffffffffffffffffffffffffffffffffffffffff16815260200190815260200160002060006101000a81548160ff0219169083151502179055506117526116c5565b73ffffffffffffffffffffffffffffffffffffffff168273ffffffffffffffffffffffffffffffffffffffff16847ff6391f5c32d9c69d2a47ea670b442974b53935d1edc7fd64eb21e047a839171b60405160405180910390a4600190506117ba565b600090505b92915050565b6117c86116c5565b73ffffffffffffffffffffffffffffffffffffffff166117e6610d6a565b73ffffffffffffffffffffffffffffffffffffffff1614611845576118096116c5565b6040517f118cdaa700000000000000000000000000000000000000000000000000000000815260040161183c919061391c565b60405180910390fd5b565b6000600660009054906101000a900473ffffffffffffffffffffffffffffffffffffffff16905081600660006101000a81548173ffffffffffffffffffffffffffffffffffffffff021916908373ffffffffffffffffffffffffffffffffffffffff1602179055508173ffffffffffffffffffffffffffffffffffffffff168173ffffffffffffffffffffffffffffffffffffffff167f8be0079c531659141344cd1fd0a4f28419497f9722a3daafe3b4186f6b6457e060405160405180910390a35050565b606061194360047f0000000000000000000000000000000000000000000000000000000000000000611fb490919063ffffffff16565b905090565b606061197e60057f0000000000000000000000000000000000000000000000000000000000000000611fb490919063ffffffff16565b905090565b600061198d612064565b888890508b8b9050146119df578a8a9050898990506040517f60e568880000000000000000000000000000000000000000000000000000000081526004016119d6929190613c8d565b60405180910390fd5b848490508787905014611a315786869050858590506040517fcca1bd42000000000000000000000000000000000000000000000000000000008152600401611a28929190613c8d565b60405180910390fd5b60005b8b8b9050811015611c13576000611b1560098e8e85818110611a5957611a586143b5565b5b9050602002810190611a6b9190613f4b565b604051611a79929190613ce6565b90815260200160405180910390208054611a9290613dbb565b80601f0160208091040260200160405190810160405280929190818152602001828054611abe90613dbb565b8015611b0b5780601f10611ae057610100808354040283529160200191611b0b565b820191906000526020600020905b815481529060010190602001808311611aee57829003601f168201915b5050505050610ad6565b90506000611b898c8c85818110611b2f57611b2e6143b5565b5b9050602002810190611b419190613f4b565b8080601f016020809104026020016040519081016040528093929190818152602001838380828437600081840152601f19601f82011690508083019250505050505050610ad6565b90508063ffffffff168263ffffffff1614611c04578d8d84818110611bb157611bb06143b5565b5b9050602002810190611bc39190613f4b565b82846040517fb2e58ea6000000000000000000000000000000000000000000000000000000008152600401611bfb9493929190614411565b60405180910390fd5b50508080600101915050611a34565b5060005b87879050811015611ca557858582818110611c3557611c346143b5565b5b9050602002810190611c479190613f4b565b60098a8a85818110611c5c57611c5b6143b5565b5b9050602002810190611c6e9190613f4b565b604051611c7c929190613ce6565b90815260200160405180910390209182611c97929190614608565b508080600101915050611c17565b5060005b83839050811015611cee57611ce1848483818110611cca57611cc96143b5565b5b9050602002810190611cdc9190613f4b565b6120aa565b8080600101915050611ca9565b5060019050611cfb61213f565b9a9950505050505050505050565b600080600080611d198686612149565b925092509250611d2982826121a5565b82935050505092915050565b611d3d612309565b60008054906101000a900460ff1660ff16815114611d90576040517f08c379a0000000000000000000000000000000000000000000000000000000008152600401611d8790614724565b60405180910390fd5b60005b8151811015611e6757600154828281518110611db257611db16143b5565b5b60200260200101511015611dfb576040517f08c379a0000000000000000000000000000000000000000000000000000000008152600401611df290614790565b60405180910390fd5b600254828281518110611e1157611e106143b5565b5b60200260200101511115611e5a576040517f08c379a0000000000000000000000000000000000000000000000000000000008152600401611e51906147fc565b60405180910390fd5b8080600101915050611d93565b5050565b60007f000000000000000000000000000000000000000000000000000000000000000073ffffffffffffffffffffffffffffffffffffffff163073ffffffffffffffffffffffffffffffffffffffff16148015611ee757507f000000000000000000000000000000000000000000000000000000000000000046145b15611f14577f00000000000000000000000000000000000000000000000000000000000000009050611f1f565b611f1c61235f565b90505b90565b60006040517f190100000000000000000000000000000000000000000000000000000000000081528360028201528260228201526042812091505092915050565b611f6d8282610d94565b611fb05780826040517fe2517d3f000000000000000000000000000000000000000000000000000000008152600401611fa792919061481c565b60405180910390fd5b5050565b606060ff60001b8314611fd157611fca836123f5565b905061205e565b818054611fdd90613dbb565b80601f016020809104026020016040519081016040528092919081815260200182805461200990613dbb565b80156120565780601f1061202b57610100808354040283529160200191612056565b820191906000526020600020905b81548152906001019060200180831161203957829003601f168201915b505050505090505b92915050565b6002600354036120a0576040517f3ee5aeb500000000000000000000000000000000000000000000000000000000815260040160405180910390fd5b6002600381905550565b6000828260008181106120c0576120bf6143b5565b5b9050013560f81c60f81b60f81c9050600060ff168160ff16036120fd576120f8838360019080926120f39392919061484f565b612469565b61213a565b806040517f0e8b3d1d0000000000000000000000000000000000000000000000000000000081526004016121319190613b66565b60405180910390fd5b505050565b6001600381905550565b6000806000604184510361218e5760008060006020870151925060408701519150606087015160001a905061218088828585612771565b95509550955050505061219e565b60006002855160001b9250925092505b9250925092565b600060038111156121b9576121b8613478565b5b8260038111156121cc576121cb613478565b5b031561230557600160038111156121e6576121e5613478565b5b8260038111156121f9576121f8613478565b5b03612230576040517ff645eedf00000000000000000000000000000000000000000000000000000000815260040160405180910390fd5b6002600381111561224457612243613478565b5b82600381111561225757612256613478565b5b0361229c578060001c6040517ffce698f7000000000000000000000000000000000000000000000000000000008152600401612293919061341d565b60405180910390fd5b6003808111156122af576122ae613478565b5b8260038111156122c2576122c1613478565b5b0361230457806040517fd78bce0c0000000000000000000000000000000000000000000000000000000081526004016122fb91906133f3565b60405180910390fd5b5b5050565b60008060009054906101000a900460ff1660ff161161235d576040517f08c379a0000000000000000000000000000000000000000000000000000000008152600401612354906148d6565b60405180910390fd5b565b60007f8b73c3c69bb8fe3d512ecc4cf759cc79239f7b179b0ffacaa9a75d522b39400f7f00000000000000000000000000000000000000000000000000000000000000007f000000000000000000000000000000000000000000000000000000000000000046306040516020016123da9594939291906148f6565b60405160208183030381529060405280519060200120905090565b6060600061240283612865565b90506000602067ffffffffffffffff8111156124215761242061356f565b5b6040519080825280601f01601f1916602001820160405280156124535781602001600182028036833780820191505090505b5090508181528360208201528092505050919050565b600080838381019061247b919061496e565b915091506000600481111561249357612492613478565b5b8260048111156124a6576124a5613478565b5b14806124d65750600160048111156124c1576124c0613478565b5b8260048111156124d4576124d3613478565b5b145b806125055750600260048111156124f0576124ef613478565b5b82600481111561250357612502613478565b5b145b8061253457506003600481111561251f5761251e613478565b5b82600481111561253257612531613478565b5b145b80612562575060048081111561254d5761254c613478565b5b8260048111156125605761255f613478565b5b145b6125a1576040517f08c379a000000000000000000000000000000000000000000000000000000000815260040161259890614a16565b60405180910390fd5b600060048111156125b5576125b4613478565b5b8260048111156125c8576125c7613478565b5b0361260c57600080600080848060200190518101906125e79190614a62565b93509350935093506125fa8484846128b5565b612603816129b6565b5050505061276b565b600160048111156126205761261f613478565b5b82600481111561263357612632613478565b5b0361265f5760008180602001905181019061264e9190613eac565b905061265981612a66565b5061276a565b6002600481111561267357612672613478565b5b82600481111561268657612685613478565b5b036126b2576000818060200190518101906126a19190613eac565b90506126ac81612b4e565b50612769565b600360048111156126c6576126c5613478565b5b8260048111156126d9576126d8613478565b5b03612705576000818060200190518101906126f49190613eac565b90506126ff81612c42565b50612768565b60048081111561271857612717613478565b5b82600481111561272b5761272a613478565b5b03612767576000806000838060200190518101906127499190614b60565b92509250925061275882611d35565b612763838383612d36565b5050505b5b5b5b5b50505050565b60008060007f7fffffffffffffffffffffffffffffff5d576e7357a4501ddfe92f46681b20a08460001c11156127b157600060038592509250925061285b565b6000600188888888604051600081526020016040526040516127d69493929190614bcf565b6020604051602081039080840390855afa1580156127f8573d6000803e3d6000fd5b505050602060405103519050600073ffffffffffffffffffffffffffffffffffffffff168173ffffffffffffffffffffffffffffffffffffffff160361284c57600060016000801b9350935093505061285b565b8060008060001b935093509350505b9450945094915050565b60008060ff8360001c169050601f8111156128ac576040517fb3512b0c00000000000000000000000000000000000000000000000000000000815260040160405180910390fd5b80915050919050565b60008360ff16116128fb576040517f08c379a00000000000000000000000000000000000000000000000000000000081526004016128f290614c86565b60405180910390fd5b81811161293d576040517f08c379a000000000000000000000000000000000000000000000000000000000815260040161293490614cf2565b60405180910390fd5b826000806101000a81548160ff021916908360ff16021790555081600181905550806002819055507f661124c8826d75343ee919baad251f50d4348b31f86cd88dabc18a6d96e351bd60008054906101000a900460ff166001546002546040516129a993929190614d12565b60405180910390a1505050565b600060058111156129ca576129c9613478565b5b6129d261097f565b60058111156129e4576129e3613478565b5b14612a24576040517f08c379a0000000000000000000000000000000000000000000000000000000008152600401612a1b90614373565b60405180910390fd5b612a2e6001612e6e565b80600a81905550600a547e6e0c97de781a7389d44ba8fd35d1467cabb17ed04d038d166d34ab819213f360405160405180910390a250565b6000612a7061097f565b905060016005811115612a8657612a85613478565b5b816005811115612a9957612a98613478565b5b1480612ac85750600580811115612ab357612ab2613478565b5b816005811115612ac657612ac5613478565b5b145b612b07576040517f08c379a0000000000000000000000000000000000000000000000000000000008152600401612afe90614373565b60405180910390fd5b612b1082612ef1565b612b1a6002612e6e565b81600a547fb13a0ba3ad52c86ee11584148a76f518c4f4f69aa1f9538fd840f870d087db3560405160405180910390a35050565b60026005811115612b6257612b61613478565b5b612b6a61097f565b6005811115612b7c57612b7b613478565b5b14612bbc576040517f08c379a0000000000000000000000000000000000000000000000000000000008152600401612bb390614373565b60405180910390fd5b80612bc5610bca565b14612c05576040517f08c379a0000000000000000000000000000000000000000000000000000000008152600401612bfc90614d95565b60405180910390fd5b612c0f6003612e6e565b80600a547fcd685fc2e41f356efee893f4a0fdabbd8db204a2d3370178ee140be6a7b862c860405160405180910390a350565b60036005811115612c5657612c55613478565b5b612c5e61097f565b6005811115612c7057612c6f613478565b5b14612cb0576040517f08c379a0000000000000000000000000000000000000000000000000000000008152600401612ca790614373565b60405180910390fd5b80612cb9610bca565b14612cf9576040517f08c379a0000000000000000000000000000000000000000000000000000000008152600401612cf090614d95565b60405180910390fd5b612d036004612e6e565b80600a547f0431008c3c12c25ab760821c95df6b194e9565847dc268c39700c60918bd753d60405160405180910390a350565b6000612d4061097f565b905060036005811115612d5657612d55613478565b5b816005811115612d6957612d68613478565b5b1480612d99575060046005811115612d8457612d83613478565b5b816005811115612d9757612d96613478565b5b145b612dd8576040517f08c379a0000000000000000000000000000000000000000000000000000000008152600401612dcf90614373565b60405180910390fd5b83612de1610bca565b14612e21576040517f08c379a0000000000000000000000000000000000000000000000000000000008152600401612e1890614d95565b60405180910390fd5b612e2b6005612e6e565b83600a547f36da6afdab9c7204750d9f550024b9e4fac142f3bb4c7652360647c90adeb66d8585604051612e60929190614db5565b60405180910390a350505050565b80604051602001612e7f91906134ef565b60405160208183030381529060405260096040518060400160405280600781526020017f5f73746174757300000000000000000000000000000000000000000000000000815250604051612ed39190613d75565b90815260200160405180910390209081612eed9190614de5565b5050565b80604051602001612f02919061341d565b60405160208183030381529060405260096040518060400160405280600b81526020017f5f647261774e756d626572000000000000000000000000000000000000000000815250604051612f569190613d75565b90815260200160405180910390209081612f709190614de5565b5050565b6040518060600160405280600073ffffffffffffffffffffffffffffffffffffffff16815260200160008152602001606081525090565b6000604051905090565b600080fd5b600080fd5b60007fffffffff0000000000000000000000000000000000000000000000000000000082169050919050565b612ff481612fbf565b8114612fff57600080fd5b50565b60008135905061301181612feb565b92915050565b60006020828403121561302d5761302c612fb5565b5b600061303b84828501613002565b91505092915050565b60008115159050919050565b61305981613044565b82525050565b60006020820190506130746000830184613050565b92915050565b600073ffffffffffffffffffffffffffffffffffffffff82169050919050565b60006130a58261307a565b9050919050565b6130b58161309a565b81146130c057600080fd5b50565b6000813590506130d2816130ac565b92915050565b600080fd5b600080fd5b600080fd5b60008083601f8401126130fd576130fc6130d8565b5b8235905067ffffffffffffffff81111561311a576131196130dd565b5b602083019150836001820283011115613136576131356130e2565b5b9250929050565b6000819050919050565b6131508161313d565b811461315b57600080fd5b50565b60008135905061316d81613147565b92915050565b6000806000806060858703121561318d5761318c612fb5565b5b600061319b878288016130c3565b945050602085013567ffffffffffffffff8111156131bc576131bb612fba565b5b6131c8878288016130e7565b935093505060406131db8782880161315e565b91505092959194509250565b6131f08161309a565b82525050565b6131ff8161313d565b82525050565b600081519050919050565b600082825260208201905092915050565b60005b8381101561323f578082015181840152602081019050613224565b60008484015250505050565b6000601f19601f8301169050919050565b600061326782613205565b6132718185613210565b9350613281818560208601613221565b61328a8161324b565b840191505092915050565b60006060830160008301516132ad60008601826131e7565b5060208301516132c060208601826131f6565b50604083015184820360408601526132d8828261325c565b9150508091505092915050565b6000819050919050565b6132f8816132e5565b82525050565b600060408201905081810360008301526133188185613295565b905061332760208301846132ef565b9392505050565b600082825260208201905092915050565b600061334a82613205565b613354818561332e565b9350613364818560208601613221565b61336d8161324b565b840191505092915050565b60006020820190508181036000830152613392818461333f565b905092915050565b6133a3816132e5565b81146133ae57600080fd5b50565b6000813590506133c08161339a565b92915050565b6000602082840312156133dc576133db612fb5565b5b60006133ea848285016133b1565b91505092915050565b600060208201905061340860008301846132ef565b92915050565b6134178161313d565b82525050565b6000602082019050613432600083018461340e565b92915050565b6000806040838503121561344f5761344e612fb5565b5b600061345d858286016133b1565b925050602061346e858286016130c3565b9150509250929050565b7f4e487b7100000000000000000000000000000000000000000000000000000000600052602160045260246000fd5b600681106134b8576134b7613478565b5b50565b60008190506134c9826134a7565b919050565b60006134d9826134bb565b9050919050565b6134e9816134ce565b82525050565b600060208201905061350460008301846134e0565b92915050565b60008060006040848603121561352357613522612fb5565b5b6000613531868287016130c3565b935050602084013567ffffffffffffffff81111561355257613551612fba565b5b61355e868287016130e7565b92509250509250925092565b600080fd5b7f4e487b7100000000000000000000000000000000000000000000000000000000600052604160045260246000fd5b6135a78261324b565b810181811067ffffffffffffffff821117156135c6576135c561356f565b5b80604052505050565b60006135d9612fab565b90506135e5828261359e565b919050565b600067ffffffffffffffff8211156136055761360461356f565b5b61360e8261324b565b9050602081019050919050565b82818337600083830152505050565b600061363d613638846135ea565b6135cf565b9050828152602081018484840111156136595761365861356a565b5b61366484828561361b565b509392505050565b600082601f830112613681576136806130d8565b5b813561369184826020860161362a565b91505092915050565b6000602082840312156136b0576136af612fb5565b5b600082013567ffffffffffffffff8111156136ce576136cd612fba565b5b6136da8482850161366c565b91505092915050565b600063ffffffff82169050919050565b6136fc816136e3565b82525050565b600060208201905061371760008301846136f3565b92915050565b60006020828403121561373357613732612fb5565b5b6000613741848285016130c3565b91505092915050565b60007fff0000000000000000000000000000000000000000000000000000000000000082169050919050565b61377f8161374a565b82525050565b600081519050919050565b600082825260208201905092915050565b60006137ac82613785565b6137b68185613790565b93506137c6818560208601613221565b6137cf8161324b565b840191505092915050565b6137e38161309a565b82525050565b600081519050919050565b600082825260208201905092915050565b6000819050602082019050919050565b600061382183836131f6565b60208301905092915050565b6000602082019050919050565b6000613845826137e9565b61384f81856137f4565b935061385a83613805565b8060005b8381101561388b5781516138728882613815565b975061387d8361382d565b92505060018101905061385e565b5085935050505092915050565b600060e0820190506138ad600083018a613776565b81810360208301526138bf81896137a1565b905081810360408301526138d381886137a1565b90506138e2606083018761340e565b6138ef60808301866137da565b6138fc60a08301856132ef565b81810360c083015261390e818461383a565b905098975050505050505050565b600060208201905061393160008301846137da565b92915050565b60008083601f84011261394d5761394c6130d8565b5b8235905067ffffffffffffffff81111561396a576139696130dd565b5b602083019150836020820283011115613986576139856130e2565b5b9250929050565b60008060008060008060008060008060a08b8d0312156139b0576139af612fb5565b5b60008b013567ffffffffffffffff8111156139ce576139cd612fba565b5b6139da8d828e01613937565b9a509a505060208b013567ffffffffffffffff8111156139fd576139fc612fba565b5b613a098d828e01613937565b985098505060408b013567ffffffffffffffff811115613a2c57613a2b612fba565b5b613a388d828e01613937565b965096505060608b013567ffffffffffffffff811115613a5b57613a5a612fba565b5b613a678d828e01613937565b945094505060808b013567ffffffffffffffff811115613a8a57613a89612fba565b5b613a968d828e01613937565b92509250509295989b9194979a5092959850565b600080fd5b600060608284031215613ac557613ac4613aaa565b5b81905092915050565b600080600060408486031215613ae757613ae6612fb5565b5b600084013567ffffffffffffffff811115613b0557613b04612fba565b5b613b1186828701613aaf565b935050602084013567ffffffffffffffff811115613b3257613b31612fba565b5b613b3e868287016130e7565b92509250509250925092565b600060ff82169050919050565b613b6081613b4a565b82525050565b6000602082019050613b7b6000830184613b57565b92915050565b600067ffffffffffffffff821115613b9c57613b9b61356f565b5b602082029050602081019050919050565b6000613bc0613bbb84613b81565b6135cf565b90508083825260208201905060208402830185811115613be357613be26130e2565b5b835b81811015613c0c5780613bf8888261315e565b845260208401935050602081019050613be5565b5050509392505050565b600082601f830112613c2b57613c2a6130d8565b5b8135613c3b848260208601613bad565b91505092915050565b600060208284031215613c5a57613c59612fb5565b5b600082013567ffffffffffffffff811115613c7857613c77612fba565b5b613c8484828501613c16565b91505092915050565b6000604082019050613ca2600083018561340e565b613caf602083018461340e565b9392505050565b600081905092915050565b6000613ccd8385613cb6565b9350613cda83858461361b565b82840190509392505050565b6000613cf3828486613cc1565b91508190509392505050565b6000608082019050613d1460008301876132ef565b613d2160208301866137da565b613d2e604083018561340e565b613d3b60608301846132ef565b95945050505050565b6000613d4f82613205565b613d598185613cb6565b9350613d69818560208601613221565b80840191505092915050565b6000613d818284613d44565b915081905092915050565b7f4e487b7100000000000000000000000000000000000000000000000000000000600052602260045260246000fd5b60006002820490506001821680613dd357607f821691505b602082108103613de657613de5613d8c565b5b50919050565b60068110613df957600080fd5b50565b600081519050613e0b81613dec565b92915050565b600060208284031215613e2757613e26612fb5565b5b6000613e3584828501613dfc565b91505092915050565b613e47816136e3565b8114613e5257600080fd5b50565b600081519050613e6481613e3e565b92915050565b600060208284031215613e8057613e7f612fb5565b5b6000613e8e84828501613e55565b91505092915050565b600081519050613ea681613147565b92915050565b600060208284031215613ec257613ec1612fb5565b5b6000613ed084828501613e97565b91505092915050565b7f4e487b7100000000000000000000000000000000000000000000000000000000600052601160045260246000fd5b6000613f138261313d565b9150613f1e8361313d565b9250828201905080821115613f3657613f35613ed9565b5b92915050565b600080fd5b600080fd5b600080fd5b60008083356001602003843603038112613f6857613f67613f3c565b5b80840192508235915067ffffffffffffffff821115613f8a57613f89613f41565b5b602083019250600182023603831315613fa657613fa5613f46565b5b509250929050565b600067ffffffffffffffff821115613fc957613fc861356f565b5b602082029050602081019050919050565b6000613fed613fe884613fae565b6135cf565b905080838252602082019050602084028301858111156140105761400f6130e2565b5b835b8181101561405757803567ffffffffffffffff811115614035576140346130d8565b5b808601614042898261366c565b85526020850194505050602081019050614012565b5050509392505050565b600082601f830112614076576140756130d8565b5b8135614086848260208601613fda565b91505092915050565b600080600080600060a086880312156140ab576140aa612fb5565b5b600086013567ffffffffffffffff8111156140c9576140c8612fba565b5b6140d588828901614061565b955050602086013567ffffffffffffffff8111156140f6576140f5612fba565b5b61410288828901614061565b945050604086013567ffffffffffffffff81111561412357614122612fba565b5b61412f88828901614061565b935050606086013567ffffffffffffffff8111156141505761414f612fba565b5b61415c88828901614061565b925050608086013567ffffffffffffffff81111561417d5761417c612fba565b5b61418988828901614061565b9150509295509295909350565b600081519050919050565b600082825260208201905092915050565b6000819050602082019050919050565b60006141ce838361325c565b905092915050565b6000602082019050919050565b60006141ee82614196565b6141f881856141a1565b93508360208202850161420a856141b2565b8060005b85811015614246578484038952815161422785826141c2565b9450614232836141d6565b925060208a0199505060018101905061420e565b50829750879550505050505092915050565b600060a082019050818103600083015261427281886141e3565b9050818103602083015261428681876141e3565b9050818103604083015261429a81866141e3565b905081810360608301526142ae81856141e3565b905081810360808301526142c281846141e3565b90509695505050505050565b6142d781613044565b81146142e257600080fd5b50565b6000815190506142f4816142ce565b92915050565b6000602082840312156143105761430f612fb5565b5b600061431e848285016142e5565b91505092915050565b7f496e636f72726563742053746174757300000000000000000000000000000000600082015250565b600061435d601083613790565b915061436882614327565b602082019050919050565b6000602082019050818103600083015261438c81614350565b9050919050565b600060208201905081810360008301526143ad818461383a565b905092915050565b7f4e487b7100000000000000000000000000000000000000000000000000000000600052603260045260246000fd5b60006143f0838561332e565b93506143fd83858461361b565b6144068361324b565b840190509392505050565b6000606082019050818103600083015261442c8186886143e4565b905061443b60208301856136f3565b61444860408301846136f3565b95945050505050565b600082905092915050565b60008190508160005260206000209050919050565b60006020601f8301049050919050565b600082821b905092915050565b6000600883026144be7fffffffffffffffffffffffffffffffffffffffffffffffffffffffffffffffff82614481565b6144c88683614481565b95508019841693508086168417925050509392505050565b6000819050919050565b60006145056145006144fb8461313d565b6144e0565b61313d565b9050919050565b6000819050919050565b61451f836144ea565b61453361452b8261450c565b84845461448e565b825550505050565b600090565b61454861453b565b614553818484614516565b505050565b5b818110156145775761456c600082614540565b600181019050614559565b5050565b601f8211156145bc5761458d8161445c565b61459684614471565b810160208510156145a5578190505b6145b96145b185614471565b830182614558565b50505b505050565b600082821c905092915050565b60006145df600019846008026145c1565b1980831691505092915050565b60006145f883836145ce565b9150826002028217905092915050565b6146128383614451565b67ffffffffffffffff81111561462b5761462a61356f565b5b6146358254613dbb565b61464082828561457b565b6000601f83116001811461466f576000841561465d578287013590505b61466785826145ec565b8655506146cf565b601f19841661467d8661445c565b60005b828110156146a557848901358255600182019150602085019450602081019050614680565b868310156146c257848901356146be601f8916826145ce565b8355505b6001600288020188555050505b50505050505050565b7f496e636f7272656374206e62206e756d62657273000000000000000000000000600082015250565b600061470e601483613790565b9150614719826146d8565b602082019050919050565b6000602082019050818103600083015261473d81614701565b9050919050565b7f4e756d62657220746f6f206c6f77000000000000000000000000000000000000600082015250565b600061477a600e83613790565b915061478582614744565b602082019050919050565b600060208201905081810360008301526147a98161476d565b9050919050565b7f4e756d62657220746f6f20686967680000000000000000000000000000000000600082015250565b60006147e6600f83613790565b91506147f1826147b0565b602082019050919050565b60006020820190508181036000830152614815816147d9565b9050919050565b600060408201905061483160008301856137da565b61483e60208301846132ef565b9392505050565b600080fd5b600080fd5b6000808585111561486357614862614845565b5b838611156148745761487361484a565b5b6001850283019150848603905094509492505050565b7f436f6e666967206e6f7420736574000000000000000000000000000000000000600082015250565b60006148c0600e83613790565b91506148cb8261488a565b602082019050919050565b600060208201905081810360008301526148ef816148b3565b9050919050565b600060a08201905061490b60008301886132ef565b61491860208301876132ef565b61492560408301866132ef565b614932606083018561340e565b61493f60808301846137da565b9695505050505050565b6005811061495657600080fd5b50565b60008135905061496881614949565b92915050565b6000806040838503121561498557614984612fb5565b5b600061499385828601614959565b925050602083013567ffffffffffffffff8111156149b4576149b3612fba565b5b6149c08582860161366c565b9150509250929050565b7f63616e6e6f7420706172736520616374696f6e00000000000000000000000000600082015250565b6000614a00601383613790565b9150614a0b826149ca565b602082019050919050565b60006020820190508181036000830152614a2f816149f3565b9050919050565b614a3f81613b4a565b8114614a4a57600080fd5b50565b600081519050614a5c81614a36565b92915050565b60008060008060808587031215614a7c57614a7b612fb5565b5b6000614a8a87828801614a4d565b9450506020614a9b87828801613e97565b9350506040614aac87828801613e97565b9250506060614abd87828801613e97565b91505092959194509250565b6000614adc614ad784613b81565b6135cf565b90508083825260208201905060208402830185811115614aff57614afe6130e2565b5b835b81811015614b285780614b148882613e97565b845260208401935050602081019050614b01565b5050509392505050565b600082601f830112614b4757614b466130d8565b5b8151614b57848260208601614ac9565b91505092915050565b600080600060608486031215614b7957614b78612fb5565b5b6000614b8786828701613e97565b935050602084015167ffffffffffffffff811115614ba857614ba7612fba565b5b614bb486828701614b32565b9250506040614bc5868287016142e5565b9150509250925092565b6000608082019050614be460008301876132ef565b614bf16020830186613b57565b614bfe60408301856132ef565b614c0b60608301846132ef565b95945050505050565b7f4e62204e756d62657273206d7573742062652067726561746572207468616e2060008201527f3000000000000000000000000000000000000000000000000000000000000000602082015250565b6000614c70602183613790565b9150614c7b82614c14565b604082019050919050565b60006020820190508181036000830152614c9f81614c63565b9050919050565b7f6d6178206d7573742062652067726561746572207468616e206d696e00000000600082015250565b6000614cdc601c83613790565b9150614ce782614ca6565b602082019050919050565b60006020820190508181036000830152614d0b81614ccf565b9050919050565b6000606082019050614d276000830186613b57565b614d34602083018561340e565b614d41604083018461340e565b949350505050565b7f496e636f72726563742044726177204e756d6265720000000000000000000000600082015250565b6000614d7f601583613790565b9150614d8a82614d49565b602082019050919050565b60006020820190508181036000830152614dae81614d72565b9050919050565b60006040820190508181036000830152614dcf818561383a565b9050614dde6020830184613050565b9392505050565b614dee82613205565b67ffffffffffffffff811115614e0757614e0661356f565b5b614e118254613dbb565b614e1c82828561457b565b600060209050601f831160018114614e4f5760008415614e3d578287015190505b614e4785826145ec565b865550614eaf565b601f198416614e5d8661445c565b60005b82811015614e8557848901518255600182019150602085019450602081019050614e60565b86831015614ea25784890151614e9e601f8916826145ce565b8355505b6001600288020188555050505b50505050505056fea2646970667358221220eca30bbd3f0ca621997c8470112bc5521443530e269630f854073ef92d5244d364736f6c63430008180033",
  "linkReferences": {},
  "deployedLinkReferences": {}
}