{
  "_format": "hh-sol-artifact-1",
  "contractName": "RaffleRegistration",
  "sourceName": "contracts/RaffleRegistration.sol",
  "abi": [
    {
      "inputs": [
        {
          "internalType": "address",
          "name": "_address",
          "type": "address"
        }
      ],
      "stateMutability": "nonpayable",
      "type": "constructor"
    },
    {
      "inputs": [],
      "name": "AccessControlBadConfirmation",
      "type": "error"
    },
    {
      "inputs": [
        {
          "internalType": "address",
          "name": "account",
          "type": "address"
        },
        {
          "internalType": "bytes32",
          "name": "neededRole",
          "type": "bytes32"
        }
      ],
      "name": "AccessControlUnauthorizedAccount",
      "type": "error"
    },
    {
      "inputs": [],
      "name": "BadAttestor",
      "type": "error"
    },
    {
      "inputs": [
        {
          "internalType": "uint256",
          "name": "kenLen",
          "type": "uint256"
        },
        {
          "internalType": "uint256",
          "name": "valueLen",
          "type": "uint256"
        }
      ],
      "name": "BadCondLen",
      "type": "error"
    },
    {
      "inputs": [
        {
          "internalType": "uint256",
          "name": "kenLen",
          "type": "uint256"
        },
        {
          "internalType": "uint256",
          "name": "valueLen",
          "type": "uint256"
        }
      ],
      "name": "BadUpdateLen",
      "type": "error"
    },
    {
      "inputs": [
        {
          "internalType": "bytes",
          "name": "cond",
          "type": "bytes"
        },
        {
          "internalType": "uint32",
          "name": "expected",
          "type": "uint32"
        },
        {
          "internalType": "uint32",
          "name": "actual",
          "type": "uint32"
        }
      ],
      "name": "CondNotMet",
      "type": "error"
    },
    {
      "inputs": [],
      "name": "ECDSAInvalidSignature",
      "type": "error"
    },
    {
      "inputs": [
        {
          "internalType": "uint256",
          "name": "length",
          "type": "uint256"
        }
      ],
      "name": "ECDSAInvalidSignatureLength",
      "type": "error"
    },
    {
      "inputs": [
        {
          "internalType": "bytes32",
          "name": "s",
          "type": "bytes32"
        }
      ],
      "name": "ECDSAInvalidSignatureS",
      "type": "error"
    },
    {
      "inputs": [
        {
          "internalType": "bytes",
          "name": "data",
          "type": "bytes"
        }
      ],
      "name": "Internal_toUint32Strict_outOfBounds",
      "type": "error"
    },
    {
      "inputs": [],
      "name": "InvalidShortString",
      "type": "error"
    },
    {
      "inputs": [],
      "name": "MetaTxSignatureNotMatch",
      "type": "error"
    },
    {
      "inputs": [
        {
          "internalType": "uint256",
          "name": "actual",
          "type": "uint256"
        },
        {
          "internalType": "uint256",
          "name": "currentNonce",
          "type": "uint256"
        }
      ],
      "name": "NonceTooLow",
      "type": "error"
    },
    {
      "inputs": [
        {
          "internalType": "address",
          "name": "owner",
          "type": "address"
        }
      ],
      "name": "OwnableInvalidOwner",
      "type": "error"
    },
    {
      "inputs": [
        {
          "internalType": "address",
          "name": "account",
          "type": "address"
        }
      ],
      "name": "OwnableUnauthorizedAccount",
      "type": "error"
    },
    {
      "inputs": [],
      "name": "ReentrancyGuardReentrantCall",
      "type": "error"
    },
    {
      "inputs": [
        {
          "internalType": "string",
          "name": "str",
          "type": "string"
        }
      ],
      "name": "StringTooLong",
      "type": "error"
    },
    {
      "inputs": [
        {
          "internalType": "uint8",
          "name": "actionId",
          "type": "uint8"
        }
      ],
      "name": "UnsupportedAction",
      "type": "error"
    },
    {
      "anonymous": false,
      "inputs": [
        {
          "indexed": false,
          "internalType": "uint8",
          "name": "nbNumbers",
          "type": "uint8"
        },
        {
          "indexed": false,
          "internalType": "uint256",
          "name": "minNumber",
          "type": "uint256"
        },
        {
          "indexed": false,
          "internalType": "uint256",
          "name": "maxNumber",
          "type": "uint256"
        }
      ],
      "name": "ConfigUpdated",
      "type": "event"
    },
    {
      "anonymous": false,
      "inputs": [],
      "name": "EIP712DomainChanged",
      "type": "event"
    },
    {
      "anonymous": false,
      "inputs": [
        {
          "indexed": false,
          "internalType": "uint256",
          "name": "",
          "type": "uint256"
        }
      ],
      "name": "MessageProcessedTo",
      "type": "event"
    },
    {
      "anonymous": false,
      "inputs": [],
      "name": "MetaTxDecoded",
      "type": "event"
    },
    {
      "anonymous": false,
      "inputs": [
        {
          "indexed": true,
          "internalType": "address",
          "name": "previousOwner",
          "type": "address"
        },
        {
          "indexed": true,
          "internalType": "address",
          "name": "newOwner",
          "type": "address"
        }
      ],
      "name": "OwnershipTransferred",
      "type": "event"
    },
    {
      "anonymous": false,
      "inputs": [
        {
          "indexed": true,
          "internalType": "uint256",
          "name": "registrationContractId",
          "type": "uint256"
        },
        {
          "indexed": true,
          "internalType": "uint256",
          "name": "drawNumber",
          "type": "uint256"
        },
        {
          "indexed": true,
          "internalType": "address",
          "name": "participant",
          "type": "address"
        },
        {
          "indexed": false,
          "internalType": "uint256[]",
          "name": "numbers",
          "type": "uint256[]"
        }
      ],
      "name": "ParticipationRegistered",
      "type": "event"
    },
    {
      "anonymous": false,
      "inputs": [
        {
          "indexed": true,
          "internalType": "uint256",
          "name": "registrationContractId",
          "type": "uint256"
        },
        {
          "indexed": true,
          "internalType": "uint256",
          "name": "drawNumber",
          "type": "uint256"
        }
      ],
      "name": "RegistrationsClosed",
      "type": "event"
    },
    {
      "anonymous": false,
      "inputs": [
        {
          "indexed": true,
          "internalType": "uint256",
          "name": "registrationContractId",
          "type": "uint256"
        },
        {
          "indexed": true,
          "internalType": "uint256",
          "name": "drawNumber",
          "type": "uint256"
        }
      ],
      "name": "RegistrationsOpen",
      "type": "event"
    },
    {
      "anonymous": false,
      "inputs": [
        {
          "indexed": true,
          "internalType": "uint256",
          "name": "registrationContractId",
          "type": "uint256"
        },
        {
          "indexed": true,
          "internalType": "uint256",
          "name": "drawNumber",
          "type": "uint256"
        },
        {
          "indexed": false,
          "internalType": "uint256[]",
          "name": "numbers",
          "type": "uint256[]"
        },
        {
          "indexed": false,
          "internalType": "bool",
          "name": "hasWinner",
          "type": "bool"
        }
      ],
      "name": "ResultsReceived",
      "type": "event"
    },
    {
      "anonymous": false,
      "inputs": [
        {
          "indexed": true,
          "internalType": "bytes32",
          "name": "role",
          "type": "bytes32"
        },
        {
          "indexed": true,
          "internalType": "bytes32",
          "name": "previousAdminRole",
          "type": "bytes32"
        },
        {
          "indexed": true,
          "internalType": "bytes32",
          "name": "newAdminRole",
          "type": "bytes32"
        }
      ],
      "name": "RoleAdminChanged",
      "type": "event"
    },
    {
      "anonymous": false,
      "inputs": [
        {
          "indexed": true,
          "internalType": "bytes32",
          "name": "role",
          "type": "bytes32"
        },
        {
          "indexed": true,
          "internalType": "address",
          "name": "account",
          "type": "address"
        },
        {
          "indexed": true,
          "internalType": "address",
          "name": "sender",
          "type": "address"
        }
      ],
      "name": "RoleGranted",
      "type": "event"
    },
    {
      "anonymous": false,
      "inputs": [
        {
          "indexed": true,
          "internalType": "bytes32",
          "name": "role",
          "type": "bytes32"
        },
        {
          "indexed": true,
          "internalType": "address",
          "name": "account",
          "type": "address"
        },
        {
          "indexed": true,
          "internalType": "address",
          "name": "sender",
          "type": "address"
        }
      ],
      "name": "RoleRevoked",
      "type": "event"
    },
    {
      "anonymous": false,
      "inputs": [
        {
          "indexed": true,
          "internalType": "uint256",
          "name": "registrationContractId",
          "type": "uint256"
        },
        {
          "indexed": true,
          "internalType": "uint256",
          "name": "drawNumber",
          "type": "uint256"
        }
      ],
      "name": "SaltGenerated",
      "type": "event"
    },
    {
      "anonymous": false,
      "inputs": [
        {
          "indexed": true,
          "internalType": "uint256",
          "name": "registrationContractId",
          "type": "uint256"
        }
      ],
      "name": "Started",
      "type": "event"
    },
    {
      "inputs": [],
      "name": "ATTESTOR_ROLE",
      "outputs": [
        {
          "internalType": "bytes32",
          "name": "",
          "type": "bytes32"
        }
      ],
      "stateMutability": "view",
      "type": "function"
    },
    {
      "inputs": [],
      "name": "DEFAULT_ADMIN_ROLE",
      "outputs": [
        {
          "internalType": "bytes32",
          "name": "",
          "type": "bytes32"
        }
      ],
      "stateMutability": "view",
      "type": "function"
    },
    {
      "inputs": [],
      "name": "DRAW_NUMBER",
      "outputs": [
        {
          "internalType": "bytes",
          "name": "",
          "type": "bytes"
        }
      ],
      "stateMutability": "view",
      "type": "function"
    },
    {
      "inputs": [],
      "name": "STATUS",
      "outputs": [
        {
          "internalType": "bytes",
          "name": "",
          "type": "bytes"
        }
      ],
      "stateMutability": "view",
      "type": "function"
    },
    {
      "inputs": [],
      "name": "canParticipate",
      "outputs": [
        {
          "internalType": "bool",
          "name": "",
          "type": "bool"
        }
      ],
      "stateMutability": "view",
      "type": "function"
    },
    {
      "inputs": [],
      "name": "eip712Domain",
      "outputs": [
        {
          "internalType": "bytes1",
          "name": "fields",
          "type": "bytes1"
        },
        {
          "internalType": "string",
          "name": "name",
          "type": "string"
        },
        {
          "internalType": "string",
          "name": "version",
          "type": "string"
        },
        {
          "internalType": "uint256",
          "name": "chainId",
          "type": "uint256"
        },
        {
          "internalType": "address",
          "name": "verifyingContract",
          "type": "address"
        },
        {
          "internalType": "bytes32",
          "name": "salt",
          "type": "bytes32"
        },
        {
          "internalType": "uint256[]",
          "name": "extensions",
          "type": "uint256[]"
        }
      ],
      "stateMutability": "view",
      "type": "function"
    },
    {
      "inputs": [],
      "name": "getDrawNumber",
      "outputs": [
        {
          "internalType": "uint256",
          "name": "",
          "type": "uint256"
        }
      ],
      "stateMutability": "view",
      "type": "function"
    },
    {
      "inputs": [
        {
          "internalType": "bytes32",
          "name": "role",
          "type": "bytes32"
        }
      ],
      "name": "getRoleAdmin",
      "outputs": [
        {
          "internalType": "bytes32",
          "name": "",
          "type": "bytes32"
        }
      ],
      "stateMutability": "view",
      "type": "function"
    },
    {
      "inputs": [],
      "name": "getStatus",
      "outputs": [
        {
          "internalType": "enum RaffleRegistration.Status",
          "name": "",
          "type": "uint8"
        }
      ],
      "stateMutability": "view",
      "type": "function"
    },
    {
      "inputs": [
        {
          "internalType": "bytes",
          "name": "key",
          "type": "bytes"
        }
      ],
      "name": "getStorage",
      "outputs": [
        {
          "internalType": "bytes",
          "name": "",
          "type": "bytes"
        }
      ],
      "stateMutability": "view",
      "type": "function"
    },
    {
      "inputs": [
        {
          "internalType": "bytes32",
          "name": "role",
          "type": "bytes32"
        },
        {
          "internalType": "address",
          "name": "account",
          "type": "address"
        }
      ],
      "name": "grantRole",
      "outputs": [],
      "stateMutability": "nonpayable",
      "type": "function"
    },
    {
      "inputs": [
        {
          "internalType": "bytes32",
          "name": "role",
          "type": "bytes32"
        },
        {
          "internalType": "address",
          "name": "account",
          "type": "address"
        }
      ],
      "name": "hasRole",
      "outputs": [
        {
          "internalType": "bool",
          "name": "",
          "type": "bool"
        }
      ],
      "stateMutability": "view",
      "type": "function"
    },
    {
      "inputs": [],
      "name": "maxNumber",
      "outputs": [
        {
          "internalType": "uint256",
          "name": "",
          "type": "uint256"
        }
      ],
      "stateMutability": "view",
      "type": "function"
    },
    {
      "inputs": [
        {
          "internalType": "address",
          "name": "from",
          "type": "address"
        }
      ],
      "name": "metaTxGetNonce",
      "outputs": [
        {
          "internalType": "uint256",
          "name": "",
          "type": "uint256"
        }
      ],
      "stateMutability": "view",
      "type": "function"
    },
    {
      "inputs": [
        {
          "internalType": "address",
          "name": "from",
          "type": "address"
        },
        {
          "internalType": "bytes",
          "name": "data",
          "type": "bytes"
        }
      ],
      "name": "metaTxPrepare",
      "outputs": [
        {
          "components": [
            {
              "internalType": "address",
              "name": "from",
              "type": "address"
            },
            {
              "internalType": "uint256",
              "name": "nonce",
              "type": "uint256"
            },
            {
              "internalType": "bytes",
              "name": "data",
              "type": "bytes"
            }
          ],
          "internalType": "struct MetaTxReceiver.ForwardRequest",
          "name": "",
          "type": "tuple"
        },
        {
          "internalType": "bytes32",
          "name": "",
          "type": "bytes32"
        }
      ],
      "stateMutability": "view",
      "type": "function"
    },
    {
      "inputs": [
        {
          "internalType": "address",
          "name": "from",
          "type": "address"
        },
        {
          "internalType": "bytes",
          "name": "data",
          "type": "bytes"
        },
        {
          "internalType": "uint256",
          "name": "nonce",
          "type": "uint256"
        }
      ],
      "name": "metaTxPrepareWithNonce",
      "outputs": [
        {
          "components": [
            {
              "internalType": "address",
              "name": "from",
              "type": "address"
            },
            {
              "internalType": "uint256",
              "name": "nonce",
              "type": "uint256"
            },
            {
              "internalType": "bytes",
              "name": "data",
              "type": "bytes"
            }
          ],
          "internalType": "struct MetaTxReceiver.ForwardRequest",
          "name": "",
          "type": "tuple"
        },
        {
          "internalType": "bytes32",
          "name": "",
          "type": "bytes32"
        }
      ],
      "stateMutability": "view",
      "type": "function"
    },
    {
      "inputs": [
        {
          "components": [
            {
              "internalType": "address",
              "name": "from",
              "type": "address"
            },
            {
              "internalType": "uint256",
              "name": "nonce",
              "type": "uint256"
            },
            {
              "internalType": "bytes",
              "name": "data",
              "type": "bytes"
            }
          ],
          "internalType": "struct MetaTxReceiver.ForwardRequest",
          "name": "req",
          "type": "tuple"
        },
        {
          "internalType": "bytes",
          "name": "signature",
          "type": "bytes"
        }
      ],
      "name": "metaTxRollupU256CondEq",
      "outputs": [
        {
          "internalType": "bool",
          "name": "",
          "type": "bool"
        }
      ],
      "stateMutability": "nonpayable",
      "type": "function"
    },
    {
      "inputs": [
        {
          "components": [
            {
              "internalType": "address",
              "name": "from",
              "type": "address"
            },
            {
              "internalType": "uint256",
              "name": "nonce",
              "type": "uint256"
            },
            {
              "internalType": "bytes",
              "name": "data",
              "type": "bytes"
            }
          ],
          "internalType": "struct MetaTxReceiver.ForwardRequest",
          "name": "req",
          "type": "tuple"
        },
        {
          "internalType": "bytes",
          "name": "signature",
          "type": "bytes"
        }
      ],
      "name": "metaTxVerify",
      "outputs": [
        {
          "internalType": "bool",
          "name": "",
          "type": "bool"
        }
      ],
      "stateMutability": "view",
      "type": "function"
    },
    {
      "inputs": [],
      "name": "minNumber",
      "outputs": [
        {
          "internalType": "uint256",
          "name": "",
          "type": "uint256"
        }
      ],
      "stateMutability": "view",
      "type": "function"
    },
    {
      "inputs": [],
      "name": "nbNumbers",
      "outputs": [
        {
          "internalType": "uint8",
          "name": "",
          "type": "uint8"
        }
      ],
      "stateMutability": "view",
      "type": "function"
    },
    {
      "inputs": [],
      "name": "owner",
      "outputs": [
        {
          "internalType": "address",
          "name": "",
          "type": "address"
        }
      ],
      "stateMutability": "view",
      "type": "function"
    },
    {
      "inputs": [
        {
          "internalType": "uint256[]",
          "name": "_numbers",
          "type": "uint256[]"
        }
      ],
      "name": "participate",
      "outputs": [],
      "stateMutability": "nonpayable",
      "type": "function"
    },
    {
      "inputs": [
        {
          "internalType": "address",
          "name": "_attestor",
          "type": "address"
        }
      ],
      "name": "registerAttestor",
      "outputs": [],
      "stateMutability": "nonpayable",
      "type": "function"
    },
    {
      "inputs": [],
      "name": "registrationContractId",
      "outputs": [
        {
          "internalType": "uint256",
          "name": "",
          "type": "uint256"
        }
      ],
      "stateMutability": "view",
      "type": "function"
    },
    {
      "inputs": [],
      "name": "renounceOwnership",
      "outputs": [],
      "stateMutability": "nonpayable",
      "type": "function"
    },
    {
      "inputs": [
        {
          "internalType": "bytes32",
          "name": "role",
          "type": "bytes32"
        },
        {
          "internalType": "address",
          "name": "callerConfirmation",
          "type": "address"
        }
      ],
      "name": "renounceRole",
      "outputs": [],
      "stateMutability": "nonpayable",
      "type": "function"
    },
    {
      "inputs": [
        {
          "internalType": "bytes32",
          "name": "role",
          "type": "bytes32"
        },
        {
          "internalType": "address",
          "name": "account",
          "type": "address"
        }
      ],
      "name": "revokeRole",
      "outputs": [],
      "stateMutability": "nonpayable",
      "type": "function"
    },
    {
      "inputs": [
        {
          "internalType": "bytes[]",
          "name": "condKeys",
          "type": "bytes[]"
        },
        {
          "internalType": "bytes[]",
          "name": "condValues",
          "type": "bytes[]"
        },
        {
          "internalType": "bytes[]",
          "name": "updateKeys",
          "type": "bytes[]"
        },
        {
          "internalType": "bytes[]",
          "name": "updateValues",
          "type": "bytes[]"
        },
        {
          "internalType": "bytes[]",
          "name": "actions",
          "type": "bytes[]"
        }
      ],
      "name": "rollupU256CondEq",
      "outputs": [
        {
          "internalType": "bool",
          "name": "",
          "type": "bool"
        }
      ],
      "stateMutability": "nonpayable",
      "type": "function"
    },
    {
      "inputs": [
        {
          "internalType": "bytes4",
          "name": "interfaceId",
          "type": "bytes4"
        }
      ],
      "name": "supportsInterface",
      "outputs": [
        {
          "internalType": "bool",
          "name": "",
          "type": "bool"
        }
      ],
      "stateMutability": "view",
      "type": "function"
    },
    {
      "inputs": [
        {
          "internalType": "bytes",
          "name": "_bytes",
          "type": "bytes"
        }
      ],
      "name": "toUint32Strict",
      "outputs": [
        {
          "internalType": "uint32",
          "name": "",
          "type": "uint32"
        }
      ],
      "stateMutability": "pure",
      "type": "function"
    },
    {
      "inputs": [
        {
          "internalType": "address",
          "name": "newOwner",
          "type": "address"
        }
      ],
      "name": "transferOwnership",
      "outputs": [],
      "stateMutability": "nonpayable",
      "type": "function"
    }
  ],
  "bytecode": "0x6101606040523480156200001257600080fd5b50604051620077d0380380620077d0833981810160405281019062000038919062000860565b806040518060400160405280601881526020017f50686174526f6c6c75704d6574615478526563656976657200000000000000008152506040518060400160405280600581526020017f302e302e310000000000000000000000000000000000000000000000000000008152506001600381905550620000c36004836200030560201b90919060201c565b6101208181525050620000e16005826200030560201b90919060201c565b6101408181525050818051906020012060e08181525050808051906020012061010081815250504660a08181525050620001206200035d60201b60201c565b608081815250503073ffffffffffffffffffffffffffffffffffffffff1660c08173ffffffffffffffffffffffffffffffffffffffff16815250505050600073ffffffffffffffffffffffffffffffffffffffff168173ffffffffffffffffffffffffffffffffffffffff1603620001d25760006040517f1e4fbdf7000000000000000000000000000000000000000000000000000000008152600401620001c99190620008a3565b60405180910390fd5b620001e381620003ba60201b60201c565b506200020067b4553d9429beaa4660c01b6200048060201b60201c565b6200021c678c61d68be618a4d160c01b6200048360201b60201c565b620002386770c9522dedb107c660c01b6200048360201b60201c565b62000254675e6e6a1100e57ef260c01b6200048360201b60201c565b620002696000801b826200048660201b60201c565b506200028667ca41e11809198fbe60c01b6200048360201b60201c565b620002a267d14a84a329e3a0b660c01b6200048360201b60201c565b620002b460006200058a60201b60201c565b620002d067681d9d5c569e391e60c01b6200048360201b60201c565b620002ec67de036b4c350277d460c01b6200048360201b60201c565b620002fe60006200064b60201b60201c565b5062001060565b60006020835110156200032b5762000323836200070c60201b60201c565b905062000357565b826200033d836200077960201b60201c565b60000190816200034e919062000b3a565b5060ff60001b90505b92915050565b60007f8b73c3c69bb8fe3d512ecc4cf759cc79239f7b179b0ffacaa9a75d522b39400f60e0516101005146306040516020016200039f95949392919062000c4d565b60405160208183030381529060405280519060200120905090565b6000600660009054906101000a900473ffffffffffffffffffffffffffffffffffffffff16905081600660006101000a81548173ffffffffffffffffffffffffffffffffffffffff021916908373ffffffffffffffffffffffffffffffffffffffff1602179055508173ffffffffffffffffffffffffffffffffffffffff168173ffffffffffffffffffffffffffffffffffffffff167f8be0079c531659141344cd1fd0a4f28419497f9722a3daafe3b4186f6b6457e060405160405180910390a35050565b50565b50565b60006200049a83836200078360201b60201c565b6200057f5760016008600085815260200190815260200160002060000160008473ffffffffffffffffffffffffffffffffffffffff1673ffffffffffffffffffffffffffffffffffffffff16815260200190815260200160002060006101000a81548160ff0219169083151502179055506200051b620007ee60201b60201c565b73ffffffffffffffffffffffffffffffffffffffff168273ffffffffffffffffffffffffffffffffffffffff16847f2f8788117e7eff1d82e926ec794901d17c78024a50270940304540a733656f0d60405160405180910390a46001905062000584565b600090505b92915050565b620005a667535bbfc84dff454560c01b6200048360201b60201c565b620005c267d6c8f68cde00910d60c01b6200048360201b60201c565b80604051602001620005d5919062000d2a565b60405160208183030381529060405260096040518060400160405280600781526020017f5f737461747573000000000000000000000000000000000000000000000000008152506040516200062b919062000dc0565b9081526020016040518091039020908162000647919062000e3e565b5050565b6200066767d30161503aa7484260c01b6200048360201b60201c565b6200068367badf25b719e06c9560c01b6200048360201b60201c565b8060405160200162000696919062000f25565b60405160208183030381529060405260096040518060400160405280600b81526020017f5f647261774e756d626572000000000000000000000000000000000000000000815250604051620006ec919062000dc0565b9081526020016040518091039020908162000708919062000e3e565b5050565b600080829050601f815111156200075c57826040517f305a27a900000000000000000000000000000000000000000000000000000000815260040162000753919062000fa5565b60405180910390fd5b8051816200076a9062000ff0565b60001c1760001b915050919050565b6000819050919050565b60006008600084815260200190815260200160002060000160008373ffffffffffffffffffffffffffffffffffffffff1673ffffffffffffffffffffffffffffffffffffffff16815260200190815260200160002060009054906101000a900460ff16905092915050565b600033905090565b600080fd5b600073ffffffffffffffffffffffffffffffffffffffff82169050919050565b60006200082882620007fb565b9050919050565b6200083a816200081b565b81146200084657600080fd5b50565b6000815190506200085a816200082f565b92915050565b600060208284031215620008795762000878620007f6565b5b6000620008898482850162000849565b91505092915050565b6200089d816200081b565b82525050565b6000602082019050620008ba600083018462000892565b92915050565b600081519050919050565b7f4e487b7100000000000000000000000000000000000000000000000000000000600052604160045260246000fd5b7f4e487b7100000000000000000000000000000000000000000000000000000000600052602260045260246000fd5b600060028204905060018216806200094257607f821691505b602082108103620009585762000957620008fa565b5b50919050565b60008190508160005260206000209050919050565b60006020601f8301049050919050565b600082821b905092915050565b600060088302620009c27fffffffffffffffffffffffffffffffffffffffffffffffffffffffffffffffff8262000983565b620009ce868362000983565b95508019841693508086168417925050509392505050565b6000819050919050565b6000819050919050565b600062000a1b62000a1562000a0f84620009e6565b620009f0565b620009e6565b9050919050565b6000819050919050565b62000a3783620009fa565b62000a4f62000a468262000a22565b84845462000990565b825550505050565b600090565b62000a6662000a57565b62000a7381848462000a2c565b505050565b5b8181101562000a9b5762000a8f60008262000a5c565b60018101905062000a79565b5050565b601f82111562000aea5762000ab4816200095e565b62000abf8462000973565b8101602085101562000acf578190505b62000ae762000ade8562000973565b83018262000a78565b50505b505050565b600082821c905092915050565b600062000b0f6000198460080262000aef565b1980831691505092915050565b600062000b2a838362000afc565b9150826002028217905092915050565b62000b4582620008c0565b67ffffffffffffffff81111562000b615762000b60620008cb565b5b62000b6d825462000929565b62000b7a82828562000a9f565b600060209050601f83116001811462000bb2576000841562000b9d578287015190505b62000ba9858262000b1c565b86555062000c19565b601f19841662000bc2866200095e565b60005b8281101562000bec5784890151825560018201915060208501945060208101905062000bc5565b8683101562000c0c578489015162000c08601f89168262000afc565b8355505b6001600288020188555050505b505050505050565b6000819050919050565b62000c368162000c21565b82525050565b62000c4781620009e6565b82525050565b600060a08201905062000c64600083018862000c2b565b62000c73602083018762000c2b565b62000c82604083018662000c2b565b62000c91606083018562000c3c565b62000ca0608083018462000892565b9695505050505050565b7f4e487b7100000000000000000000000000000000000000000000000000000000600052602160045260246000fd5b6006811062000ced5762000cec62000caa565b5b50565b600081905062000d008262000cd9565b919050565b600062000d128262000cf0565b9050919050565b62000d248162000d05565b82525050565b600060208201905062000d41600083018462000d19565b92915050565b600081519050919050565b600081905092915050565b60005b8381101562000d7d57808201518184015260208101905062000d60565b60008484015250505050565b600062000d968262000d47565b62000da2818562000d52565b935062000db481856020860162000d5d565b80840191505092915050565b600062000dce828462000d89565b915081905092915050565b60008190508160005260206000209050919050565b601f82111562000e395762000e038162000dd9565b62000e0e8462000973565b8101602085101562000e1e578190505b62000e3662000e2d8562000973565b83018262000a78565b50505b505050565b62000e498262000d47565b67ffffffffffffffff81111562000e655762000e64620008cb565b5b62000e71825462000929565b62000e7e82828562000dee565b600060209050601f83116001811462000eb6576000841562000ea1578287015190505b62000ead858262000b1c565b86555062000f1d565b601f19841662000ec68662000dd9565b60005b8281101562000ef05784890151825560018201915060208501945060208101905062000ec9565b8683101562000f10578489015162000f0c601f89168262000afc565b8355505b6001600288020188555050505b505050505050565b600060208201905062000f3c600083018462000c3c565b92915050565b600082825260208201905092915050565b6000601f19601f8301169050919050565b600062000f7182620008c0565b62000f7d818562000f42565b935062000f8f81856020860162000d5d565b62000f9a8162000f53565b840191505092915050565b6000602082019050818103600083015262000fc1818462000f64565b905092915050565b6000819050602082019050919050565b600062000fe7825162000c21565b80915050919050565b600062000ffd8262000d47565b82620010098462000fc9565b9050620010168162000fd9565b925060208210156200105957620010547fffffffffffffffffffffffffffffffffffffffffffffffffffffffffffffffff8360200360080262000983565b831692505b5050919050565b60805160a05160c05160e051610100516101205161014051616715620010bb60003960006120ef015260006120b40152600061305a01526000613039015260006129f501526000612a4b01526000612a7401526167156000f3fe608060405234801561001057600080fd5b50600436106101e55760003560e01c80637be20a6d1161010f578063bbbfe446116100a2578063e33865b311610071578063e33865b3146105b4578063f2f9fa08146105d2578063f2fde38b146105ee578063f4034a961461060a576101e5565b8063bbbfe4461461051a578063caa0ff211461054a578063d547741f1461057a578063e32d6d5914610596576101e5565b8063a217fddf116100de578063a217fddf1461047e578063a51831a81461049c578063a7d257f6146104cc578063ad0bc464146104ea576101e5565b80637be20a6d146103ee57806384b0196e1461040c5780638da5cb5b1461043057806391d148541461044e576101e5565b80633a4f69991161018757806355b930311161015657806355b930311461038c578063602ad665146103aa57806362723644146103c6578063715018a6146103e4576101e5565b80633a4f6999146102ef5780634e69d5601461030d5780635232f0d71461032b578063531161371461035c576101e5565b8063248a9ca3116101c3578063248a9ca3146102695780632622705b146102995780632f2ff15d146102b757806336568abe146102d3576101e5565b806301ffc9a7146101ea57806322dae16c1461021a5780632417b99c1461024b575b600080fd5b61020460048036038101906101ff919061483f565b61063a565b6040516102119190614887565b60405180910390f35b610234600480360381019061022f919061499b565b6106b4565b604051610242929190614b26565b60405180910390f35b61025361096d565b6040516102609190614ba0565b60405180910390f35b610283600480360381019061027e9190614bee565b6109a6565b6040516102909190614c1b565b60405180910390f35b6102a16109c6565b6040516102ae9190614c45565b60405180910390f35b6102d160048036038101906102cc9190614c60565b6109cc565b005b6102ed60048036038101906102e89190614c60565b6109ee565b005b6102f7610a69565b6040516103049190614c45565b60405180910390f35b610315610a6f565b6040516103229190614d17565b60405180910390f35b61034560048036038101906103409190614d32565b610ba1565b604051610353929190614b26565b60405180910390f35b61037660048036038101906103719190614ec2565b610c3e565b6040516103839190614f2a565b60405180910390f35b610394610df9565b6040516103a19190614c45565b60405180910390f35b6103c460048036038101906103bf9190614f45565b610dff565b005b6103ce610e9e565b6040516103db9190614c1b565b60405180910390f35b6103ec610ec2565b005b6103f6610ed6565b6040516104039190614c45565b60405180910390f35b610414611008565b60405161042797969594939291906150c0565b60405180910390f35b6104386110b2565b6040516104459190615144565b60405180910390f35b61046860048036038101906104639190614c60565b6110dc565b6040516104759190614887565b60405180910390f35b610486611147565b6040516104939190614c1b565b60405180910390f35b6104b660048036038101906104b191906151b5565b61114e565b6040516104c39190614887565b60405180910390f35b6104d46112ac565b6040516104e19190614887565b60405180910390f35b61050460048036038101906104ff91906152f6565b61131e565b6040516105119190614887565b60405180910390f35b610534600480360381019061052f91906152f6565b6116e4565b6040516105419190614887565b60405180910390f35b610564600480360381019061055f9190614ec2565b6118df565b6040516105719190614ba0565b60405180910390f35b610594600480360381019061058f9190614c60565b6119cb565b005b61059e6119ed565b6040516105ab919061538e565b60405180910390f35b6105bc6119fe565b6040516105c99190614ba0565b60405180910390f35b6105ec60048036038101906105e7919061546c565b611a37565b005b61060860048036038101906106039190614f45565b611bc5565b005b610624600480360381019061061f9190614f45565b611c4b565b6040516106319190614c45565b60405180910390f35b60007f7965db0b000000000000000000000000000000000000000000000000000000007bffffffffffffffffffffffffffffffffffffffffffffffffffffffff1916827bffffffffffffffffffffffffffffffffffffffffffffffffffffffff191614806106ad57506106ac82611cd0565b5b9050919050565b6106bc61479c565b60006106d267868620c1065846ac60c01b611d3a565b6106e6670efdb62ecfb8f77660c01b611d3a565b6106fa673f6377fa2a498fcc60c01b611d3a565b600760008773ffffffffffffffffffffffffffffffffffffffff1673ffffffffffffffffffffffffffffffffffffffff168152602001908152602001600020548310156107e75761075567f66458c6c86e1bd060c01b611d3a565b610769671f870b4b6383ed9160c01b611d3a565b82600760008873ffffffffffffffffffffffffffffffffffffffff1673ffffffffffffffffffffffffffffffffffffffff168152602001908152602001600020546040517f045f356c0000000000000000000000000000000000000000000000000000000081526004016107de9291906154b5565b60405180910390fd5b6107fb67865dc8a087df564660c01b611d3a565b61080f6780b7e77cc55c3a3160c01b611d3a565b61082367d6fa6abc2778959460c01b611d3a565b600060405180606001604052808873ffffffffffffffffffffffffffffffffffffffff16815260200185815260200187878080601f016020809104026020016040519081016040528093929190818152602001838380828437600081840152601f19601f8201169050808301925050505050505081525090506108b06737ca105b835de70460c01b611d3a565b6108c4679d35e05fd6a592d760c01b611d3a565b60006109327f2c521d146a6f6c09462cb178367b028f1718b1f01d7995bb405dae702c2bee7d89878a8a6040516108fc92919061550e565b60405180910390206040516020016109179493929190615527565b60405160208183030381529060405280519060200120611d3d565b905061094867c7b41500479f009660c01b611d3a565b61095c67478c57b1a73635c560c01b611d3a565b818193509350505094509492505050565b6040518060400160405280600b81526020017f5f647261774e756d62657200000000000000000000000000000000000000000081525081565b600060086000838152602001908152602001600020600101549050919050565b600a5481565b6109d5826109a6565b6109de81611d57565b6109e88383611d6b565b50505050565b6109f6611e5d565b73ffffffffffffffffffffffffffffffffffffffff168173ffffffffffffffffffffffffffffffffffffffff1614610a5a576040517f6697b23200000000000000000000000000000000000000000000000000000000815260040160405180910390fd5b610a648282611e65565b505050565b60025481565b6000610a856717df7fddf861bac860c01b611f58565b610a99674198698aed3730ae60c01b611f58565b610aad6760a548b46e94c84a60c01b611f58565b60096040518060400160405280600781526020017f5f73746174757300000000000000000000000000000000000000000000000000815250604051610af2919061559d565b90815260200160405180910390208054610b0b906155e3565b80601f0160208091040260200160405190810160405280929190818152602001828054610b37906155e3565b8015610b845780601f10610b5957610100808354040283529160200191610b84565b820191906000526020600020905b815481529060010190602001808311610b6757829003601f168201915b5050505050806020019051810190610b9c9190615639565b905090565b610ba961479c565b6000610bbf67697a61fc92f22dad60c01b611d3a565b610bd3670962da8448ca07c360c01b611d3a565b610be7672f43f19068e819a660c01b611d3a565b610c32858585600760008a73ffffffffffffffffffffffffffffffffffffffff1673ffffffffffffffffffffffffffffffffffffffff168152602001908152602001600020546106b4565b91509150935093915050565b6000610c5467f3535311985cef6a60c01b611f5b565b610c6867f4ed9744ec59e98860c01b611f5b565b610c7c67b57cedba8970f33060c01b611f5b565b6000825103610cca57610c996719f543c5d8360ef460c01b611f5b565b610cad6731e84f1b67061c0760c01b611f5b565b610cc167fe3626bb8067b67360c01b611f5b565b60009050610df4565b610cde670402f5702510ac1960c01b611f5b565b610cf26765109b6ab9e76ac660c01b611f5b565b610d0667d46de5a3f7fa1e4b60c01b611f5b565b6020825114610d7457610d2367753d4aa7c60f6f9260c01b611f5b565b610d3767aaae15b8f31db9f960c01b611f5b565b816040517f3d7dc906000000000000000000000000000000000000000000000000000000008152600401610d6b9190614ba0565b60405180910390fd5b610d88675f227317d673959560c01b611f5b565b610d9c6777c41002837632a560c01b611f5b565b610daf665b222001a2110860c01b611f5b565b600082806020019051810190610dc59190615692565b9050610ddb6760a3f1675adde65460c01b611f5b565b610def67d7f8474727c6820e60c01b611f5b565b809150505b919050565b60015481565b610e1367fb207704462f1daf60c01b611f58565b6000801b610e2081611d57565b610e34673808e1fa473ead0260c01b611f58565b610e48673150b3f14c51356260c01b611f58565b610e5c67018e05e5056043cb60c01b611f58565b610e70678874eb210dc337eb60c01b611f58565b610e9a7fa7e0cd0f2772b23ee4c329892293a6bd99d48c306b094d6d008c9a8bb8b731e4836109cc565b5050565b7fa7e0cd0f2772b23ee4c329892293a6bd99d48c306b094d6d008c9a8bb8b731e481565b610eca611f5e565b610ed46000611fe5565b565b6000610eec679a5e73bb98f537da60c01b611f58565b610f00678be36b49e1e97c2d60c01b611f58565b610f146722553ab35b8c63a560c01b611f58565b60096040518060400160405280600b81526020017f5f647261774e756d626572000000000000000000000000000000000000000000815250604051610f59919061559d565b90815260200160405180910390208054610f72906155e3565b80601f0160208091040260200160405190810160405280929190818152602001828054610f9e906155e3565b8015610feb5780601f10610fc057610100808354040283529160200191610feb565b820191906000526020600020905b815481529060010190602001808311610fce57829003601f168201915b505050505080602001905181019061100391906156d4565b905090565b60006060806000806000606061101c6120ab565b6110246120e6565b46306000801b600067ffffffffffffffff81111561104557611044614d97565b5b6040519080825280602002602001820160405280156110735781602001602082028036833780820191505090505b507f0f00000000000000000000000000000000000000000000000000000000000000959493929190965096509650965096509650965090919293949596565b6000600660009054906101000a900473ffffffffffffffffffffffffffffffffffffffff16905090565b60006008600084815260200190815260200160002060000160008373ffffffffffffffffffffffffffffffffffffffff1673ffffffffffffffffffffffffffffffffffffffff16815260200190815260200160002060009054906101000a900460ff16905092915050565b6000801b81565b600061116467db47fd66e03c388c60c01b611f5b565b61117867bee79ac0f358975f60c01b611f5b565b61118c673336f1397c226bf560c01b611f5b565b3073ffffffffffffffffffffffffffffffffffffffff163373ffffffffffffffffffffffffffffffffffffffff16141580156111ef57506111ed7fa7e0cd0f2772b23ee4c329892293a6bd99d48c306b094d6d008c9a8bb8b731e4336110dc565b155b1561124e576112086717a61b28f7d1dfa460c01b611f5b565b61121c67e009f2f11bfb92fc60c01b611f5b565b6040517f20d82bef00000000000000000000000000000000000000000000000000000000815260040160405180910390fd5b61126267e53b7b55cd412faa60c01b611f5b565b611276673ee1b7bc7042112560c01b611f5b565b61128a67a786eba45d28e6d460c01b611f5b565b61129c8b8b8b8b8b8b8b8b8b8b612121565b90509a9950505050505050505050565b60006112c267a6d8c9d315442f5a60c01b611f58565b6112d667a4093c489d9d0b7860c01b611f58565b6112ea67da6bdc7d4b26c2ce60c01b611f58565b600260058111156112fe576112fd614ca0565b5b611306610a6f565b600581111561131857611317614ca0565b5b14905090565b6000611334673df028d03a7be5c760c01b611f5b565b83838361134b6732bef5a443b75f4e60c01b611d3a565b61135f67946d98464eb66d8260c01b611d3a565b61137367f8509d6f5c1dcca160c01b611d3a565b61137e8383836116e4565b6113dc5761139667aaeee7679bec4ec060c01b611d3a565b6113aa6707a10f7eb4e1755360c01b611d3a565b6040517fbde0493900000000000000000000000000000000000000000000000000000000815260040160405180910390fd5b6113f067fa5095238d1ad69260c01b611d3a565b61140467cfb83d09bf62352160c01b611d3a565b600183602001356114159190615730565b6007600085600001602081019061142c9190614f45565b73ffffffffffffffffffffffffffffffffffffffff1673ffffffffffffffffffffffffffffffffffffffff1681526020019081526020016000208190555061147e67df7b54b560faa41f60c01b611d3a565b611492674558b29ee5921cfb60c01b611f5b565b6114a66742832c06cfaa71b660c01b611f5b565b6114ba6739bd79b8738ae89960c01b611f5b565b6114ce67e99fced1314bee0460c01b611f5b565b61150a7fa7e0cd0f2772b23ee4c329892293a6bd99d48c306b094d6d008c9a8bb8b731e48860000160208101906115059190614f45565b6110dc565b61156857611522676ecf5902bfb65ef560c01b611f5b565b61153667167b5ff36aac3e8a60c01b611f5b565b6040517f20d82bef00000000000000000000000000000000000000000000000000000000815260040160405180910390fd5b61157c67128cec934d83ead660c01b611f5b565b611590671475ea80b67b2ab760c01b611f5b565b6115a467df617af19b1cd0d160c01b611f5b565b60008060008060008b80604001906115bc9190615773565b8101906115c991906158b7565b945094509450945094506115e767093eb9ef5ea6934860c01b611f5b565b6115fb673fee75e6d691d6f060c01b611f5b565b7fd51c7c5244bba290f6c37777de0bc20a70c18abd55539658bc63251379297dcd60405160405180910390a161163b67f2a911e5c8b4e48d60c01b611f5b565b61164f675c6fdbfba7c3ad3460c01b611f5b565b3073ffffffffffffffffffffffffffffffffffffffff1663a51831a886868686866040518663ffffffff1660e01b8152600401611690959493929190615a80565b6020604051808303816000875af11580156116af573d6000803e3d6000fd5b505050506040513d601f19601f820116820180604052508101906116d39190615b22565b985050505050505050509392505050565b60006116fa678aba1bac848af29e60c01b611d3a565b61170e67249cb7d17ce2119a60c01b611d3a565b61172267782dca9583b3179960c01b611d3a565b600061180a84848080601f016020809104026020016040519081016040528093929190818152602001838380828437600081840152601f19601f820116905080830192505050505050506117fc7f2c521d146a6f6c09462cb178367b028f1718b1f01d7995bb405dae702c2bee7d8860000160208101906117a39190614f45565b89602001358a80604001906117b89190615773565b6040516117c692919061550e565b60405180910390206040516020016117e19493929190615527565b60405160208183030381529060405280519060200120611d3d565b61273b90919063ffffffff16565b9050611820676b0fcb358343a7d260c01b611d3a565b611834673354dd2d93fdd66860c01b611d3a565b8460200135600760008760000160208101906118509190614f45565b73ffffffffffffffffffffffffffffffffffffffff1673ffffffffffffffffffffffffffffffffffffffff168152602001908152602001600020541480156118d557508460000160208101906118a69190614f45565b73ffffffffffffffffffffffffffffffffffffffff168173ffffffffffffffffffffffffffffffffffffffff16145b9150509392505050565b60606118f5676266d1d48c9f60e760c01b611f5b565b611909672b643c9f649d119860c01b611f5b565b61191d67b3e7949b19241e6960c01b611f5b565b60098260405161192d919061559d565b90815260200160405180910390208054611946906155e3565b80601f0160208091040260200160405190810160405280929190818152602001828054611972906155e3565b80156119bf5780601f10611994576101008083540402835291602001916119bf565b820191906000526020600020905b8154815290600101906020018083116119a257829003601f168201915b50505050509050919050565b6119d4826109a6565b6119dd81611d57565b6119e78383611e65565b50505050565b60008054906101000a900460ff1681565b6040518060400160405280600781526020017f5f7374617475730000000000000000000000000000000000000000000000000081525081565b611a4b6770224ac78a211cb660c01b611f58565b611a5f67a7835bdddb3224d660c01b611f58565b611a73671187a65b5956d45e60c01b611f58565b611a8767d70cc055e832c9bf60c01b611f58565b611a8f6112ac565b611ace576040517f08c379a0000000000000000000000000000000000000000000000000000000008152600401611ac590615b9b565b60405180910390fd5b611ae267a592726240605afb60c01b611f58565b611af6674df81245fbc21e6b60c01b611f58565b611b0a67421506b3648218a360c01b611f58565b611b1381612767565b611b2767fc776bf5d7bffedf60c01b611f58565b611b3b6741c844c19b86319160c01b611f58565b6000339050611b5467a7169aaa4f36c46460c01b611f58565b611b68676689ac39a1b8238760c01b611f58565b8073ffffffffffffffffffffffffffffffffffffffff16611b87610ed6565b600a547f09f77ef5a620f089b59340cfb5a6f53f6fd1067a1a6fe23620a1255356ebddb685604051611bb99190615bbb565b60405180910390a45050565b611bcd611f5e565b600073ffffffffffffffffffffffffffffffffffffffff168173ffffffffffffffffffffffffffffffffffffffff1603611c3f5760006040517f1e4fbdf7000000000000000000000000000000000000000000000000000000008152600401611c369190615144565b60405180910390fd5b611c4881611fe5565b50565b6000611c61677f573c55ef4038d960c01b611d3a565b611c7567c481d322defe28c960c01b611d3a565b611c89675a5fc612ffcd055060c01b611d3a565b600760008373ffffffffffffffffffffffffffffffffffffffff1673ffffffffffffffffffffffffffffffffffffffff168152602001908152602001600020549050919050565b60007f01ffc9a7000000000000000000000000000000000000000000000000000000007bffffffffffffffffffffffffffffffffffffffffffffffffffffffff1916827bffffffffffffffffffffffffffffffffffffffffffffffffffffffff1916149050919050565b50565b6000611d50611d4a6129f1565b83612aa8565b9050919050565b611d6881611d63611e5d565b612ae9565b50565b6000611d7783836110dc565b611e525760016008600085815260200190815260200160002060000160008473ffffffffffffffffffffffffffffffffffffffff1673ffffffffffffffffffffffffffffffffffffffff16815260200190815260200160002060006101000a81548160ff021916908315150217905550611def611e5d565b73ffffffffffffffffffffffffffffffffffffffff168273ffffffffffffffffffffffffffffffffffffffff16847f2f8788117e7eff1d82e926ec794901d17c78024a50270940304540a733656f0d60405160405180910390a460019050611e57565b600090505b92915050565b600033905090565b6000611e7183836110dc565b15611f4d5760006008600085815260200190815260200160002060000160008473ffffffffffffffffffffffffffffffffffffffff1673ffffffffffffffffffffffffffffffffffffffff16815260200190815260200160002060006101000a81548160ff021916908315150217905550611eea611e5d565b73ffffffffffffffffffffffffffffffffffffffff168273ffffffffffffffffffffffffffffffffffffffff16847ff6391f5c32d9c69d2a47ea670b442974b53935d1edc7fd64eb21e047a839171b60405160405180910390a460019050611f52565b600090505b92915050565b50565b50565b611f66611e5d565b73ffffffffffffffffffffffffffffffffffffffff16611f846110b2565b73ffffffffffffffffffffffffffffffffffffffff1614611fe357611fa7611e5d565b6040517f118cdaa7000000000000000000000000000000000000000000000000000000008152600401611fda9190615144565b60405180910390fd5b565b6000600660009054906101000a900473ffffffffffffffffffffffffffffffffffffffff16905081600660006101000a81548173ffffffffffffffffffffffffffffffffffffffff021916908373ffffffffffffffffffffffffffffffffffffffff1602179055508173ffffffffffffffffffffffffffffffffffffffff168173ffffffffffffffffffffffffffffffffffffffff167f8be0079c531659141344cd1fd0a4f28419497f9722a3daafe3b4186f6b6457e060405160405180910390a35050565b60606120e160047f0000000000000000000000000000000000000000000000000000000000000000612b3a90919063ffffffff16565b905090565b606061211c60057f0000000000000000000000000000000000000000000000000000000000000000612b3a90919063ffffffff16565b905090565b60006121376769035ed6f7bb928060c01b611f5b565b61213f612bea565b6121536726816449d855b8de60c01b611f5b565b61216767aa8d0df3a17d9daa60c01b611f5b565b61217b672d03d975c1cec8b560c01b611f5b565b61218f67f743289464df76a960c01b611f5b565b888890508b8b905014612209576121b0677fe15c8bcf34534b60c01b611f5b565b6121c467734dfe1e403090de60c01b611f5b565b8a8a9050898990506040517f60e568880000000000000000000000000000000000000000000000000000000081526004016122009291906154b5565b60405180910390fd5b61221d67bd5955704cdde7ae60c01b611f5b565b612231672a95788d8fd64e1760c01b611f5b565b61224567497ee38a31b7220960c01b611f5b565b8484905087879050146122bf5761226667e9b7fb84ff8afd0260c01b611f5b565b61227a674f6ea74a088f106660c01b611f5b565b86869050858590506040517fcca1bd420000000000000000000000000000000000000000000000000000000081526004016122b69291906154b5565b60405180910390fd5b6122d3676c92db1b35fcb95c60c01b611f5b565b6122e767b63659de87b5f02460c01b611f5b565b6122fb6715cea15361039f7060c01b611f5b565b60005b8b8b90508110156125915761231d67f38765fde2d2f05c60c01b611f5b565b61233167f11b53bf19da12e460c01b611f5b565b600061240760098e8e8581811061234b5761234a615bdd565b5b905060200281019061235d9190615773565b60405161236b92919061550e565b90815260200160405180910390208054612384906155e3565b80601f01602080910402602001604051908101604052809291908181526020018280546123b0906155e3565b80156123fd5780601f106123d2576101008083540402835291602001916123fd565b820191906000526020600020905b8154815290600101906020018083116123e057829003601f168201915b5050505050610c3e565b905061241d67dd1bf7962836068460c01b611f5b565b612431675d7b80d28f6e732760c01b611f5b565b60006124a38c8c8581811061244957612448615bdd565b5b905060200281019061245b9190615773565b8080601f016020809104026020016040519081016040528093929190818152602001838380828437600081840152601f19601f82011690508083019250505050505050610c3e565b90506124b967c01d9b2dbb2b24ef60c01b611f5b565b6124cd676bbbd808502cdf0d60c01b611f5b565b8063ffffffff168263ffffffff161461256e576124f467b2ec111371fa5b9a60c01b611f5b565b612508673637394ba603f21b60c01b611f5b565b8d8d8481811061251b5761251a615bdd565b5b905060200281019061252d9190615773565b82846040517fb2e58ea60000000000000000000000000000000000000000000000000000000081526004016125659493929190615c39565b60405180910390fd5b612582678d4940378d69665e60c01b611f5b565b505080806001019150506122fe565b506125a667153b3ac38c7cece560c01b611f5b565b6125ba67c1af6f3bef050f6960c01b611f5b565b60005b8787905081101561265f576125dc67264da86c09b9451860c01b611f5b565b8585828181106125ef576125ee615bdd565b5b90506020028101906126019190615773565b60098a8a8581811061261657612615615bdd565b5b90506020028101906126289190615773565b60405161263692919061550e565b90815260200160405180910390209182612651929190615e30565b5080806001019150506125bd565b5061267467565df7d34fc356c760c01b611f5b565b61268867f72545eb7534b93960c01b611f5b565b60005b838390508110156126f8576126aa67e4cda7d134e0fd2260c01b611f5b565b6126be67b608c82b79158f2860c01b611f5b565b6126eb8484838181106126d4576126d3615bdd565b5b90506020028101906126e69190615773565b612c30565b808060010191505061268b565b5061270d67b8854a03dae629a660c01b611f5b565b61272167be4c979d6959e7d460c01b611f5b565b6001905061272d612d8d565b9a9950505050505050505050565b60008060008061274b8686612d97565b92509250925061275b8282612df3565b82935050505092915050565b61277b6702499f7c70e1793d60c01b612f57565b61278f6767c5446f688221ba60c01b612f57565b6127a367c1ea45ae84750fe060c01b612f57565b6127ab612f5a565b6127bf67654c7f8c655eda8960c01b612f57565b6127d367904f9f6fb551d04a60c01b612f57565b6127e767ad56214a9564b18b60c01b612f57565b60008054906101000a900460ff1660ff1681511461283a576040517f08c379a000000000000000000000000000000000000000000000000000000000815260040161283190615f4c565b60405180910390fd5b61284e67637e2355b77e290060c01b612f57565b61286267853b33ebb15c2df560c01b612f57565b61287667107a7adc7cfa22b860c01b612f57565b60005b81518110156129ed5761289667862302dded2c4aa060c01b612f57565b6128aa672c9a41f8eb79d4c460c01b612f57565b6128be673fbcff800e781da760c01b612f57565b6001548282815181106128d4576128d3615bdd565b5b6020026020010151101561291d576040517f08c379a000000000000000000000000000000000000000000000000000000000815260040161291490615fb8565b60405180910390fd5b61293167984532f887340e3560c01b612f57565b61294567f5b160aca85e0b5e60c01b612f57565b61295967ce7c3d073157c21060c01b612f57565b61296d67494f4f847dd18c8360c01b612f57565b60025482828151811061298357612982615bdd565b5b602002602001015111156129cc576040517f08c379a00000000000000000000000000000000000000000000000000000000081526004016129c390616024565b60405180910390fd5b6129e067bfa3ddd03e8d32f360c01b612f57565b8080600101915050612879565b5050565b60007f000000000000000000000000000000000000000000000000000000000000000073ffffffffffffffffffffffffffffffffffffffff163073ffffffffffffffffffffffffffffffffffffffff16148015612a6d57507f000000000000000000000000000000000000000000000000000000000000000046145b15612a9a577f00000000000000000000000000000000000000000000000000000000000000009050612aa5565b612aa2613014565b90505b90565b60006040517f190100000000000000000000000000000000000000000000000000000000000081528360028201528260228201526042812091505092915050565b612af382826110dc565b612b365780826040517fe2517d3f000000000000000000000000000000000000000000000000000000008152600401612b2d929190616044565b60405180910390fd5b5050565b606060ff60001b8314612b5757612b50836130aa565b9050612be4565b818054612b63906155e3565b80601f0160208091040260200160405190810160405280929190818152602001828054612b8f906155e3565b8015612bdc5780601f10612bb157610100808354040283529160200191612bdc565b820191906000526020600020905b815481529060010190602001808311612bbf57829003601f168201915b505050505090505b92915050565b600260035403612c26576040517f3ee5aeb500000000000000000000000000000000000000000000000000000000815260040160405180910390fd5b6002600381905550565b612c44671d8215a23058e8ee60c01b611f5b565b612c5867cffa7be08eba3ce760c01b611f5b565b612c6c6775ba6007c4a73c6860c01b611f5b565b600082826000818110612c8257612c81615bdd565b5b9050013560f81c60f81b60f81c9050612ca5675969bcefffc6341a60c01b611f5b565b612cb967b99cd48d4fe0e86360c01b611f5b565b600060ff168160ff1603612d2357612cdb67389b85494a7eadd760c01b611f5b565b612cef67ab39070520cd1e4f60c01b611f5b565b612d0367b60dbaf6782a099560c01b611f5b565b612d1e83836001908092612d1993929190616077565b61311e565b612d88565b612d3767658aa14bc305d8f260c01b611f5b565b612d4b6731042c129066ab7e60c01b611f5b565b806040517f0e8b3d1d000000000000000000000000000000000000000000000000000000008152600401612d7f919061538e565b60405180910390fd5b505050565b6001600381905550565b60008060006041845103612ddc5760008060006020870151925060408701519150606087015160001a9050612dce888285856138b7565b955095509550505050612dec565b60006002855160001b9250925092505b9250925092565b60006003811115612e0757612e06614ca0565b5b826003811115612e1a57612e19614ca0565b5b0315612f535760016003811115612e3457612e33614ca0565b5b826003811115612e4757612e46614ca0565b5b03612e7e576040517ff645eedf00000000000000000000000000000000000000000000000000000000815260040160405180910390fd5b60026003811115612e9257612e91614ca0565b5b826003811115612ea557612ea4614ca0565b5b03612eea578060001c6040517ffce698f7000000000000000000000000000000000000000000000000000000008152600401612ee19190614c45565b60405180910390fd5b600380811115612efd57612efc614ca0565b5b826003811115612f1057612f0f614ca0565b5b03612f5257806040517fd78bce0c000000000000000000000000000000000000000000000000000000008152600401612f499190614c1b565b60405180910390fd5b5b5050565b50565b612f6e67c760a93b3fed84c260c01b612f57565b612f82672cce78683be39f0560c01b612f57565b612f9667476c2ee2f74047da60c01b612f57565b612faa674dd5279fa77e258860c01b612f57565b60008060009054906101000a900460ff1660ff1611612ffe576040517f08c379a0000000000000000000000000000000000000000000000000000000008152600401612ff5906160fe565b60405180910390fd5b613012671cc2108eab69895160c01b612f57565b565b60007f8b73c3c69bb8fe3d512ecc4cf759cc79239f7b179b0ffacaa9a75d522b39400f7f00000000000000000000000000000000000000000000000000000000000000007f0000000000000000000000000000000000000000000000000000000000000000463060405160200161308f95949392919061611e565b60405160208183030381529060405280519060200120905090565b606060006130b7836139ab565b90506000602067ffffffffffffffff8111156130d6576130d5614d97565b5b6040519080825280601f01601f1916602001820160405280156131085781602001600182028036833780820191505090505b5090508181528360208201528092505050919050565b61313267c8f842368958d01b60c01b611f58565b613146678543d3a8596b958660c01b611f58565b61315a67eb75490139c3120860c01b611f58565b600080838381019061316c9190616196565b9150915061318467d293838c2eacc80360c01b611f58565b61319867d5620c41215d8ba860c01b611f58565b6131ac67adfb9fc36da9b05b60c01b611f58565b600060048111156131c0576131bf614ca0565b5b8260048111156131d3576131d2614ca0565b5b1480156131f057506131ef673072ed7ce973001960c01b6139fb565b5b8061325757506001600481111561320a57613209614ca0565b5b82600481111561321d5761321c614ca0565b5b14801561323a575061323967025e2ff058ba24ed60c01b6139fb565b5b8015613256575061325567b1eb235977e34afa60c01b6139fb565b5b5b806132be57506002600481111561327157613270614ca0565b5b82600481111561328457613283614ca0565b5b1480156132a157506132a067d8693816936ddfec60c01b6139fb565b5b80156132bd57506132bc67cff93e0829a81f9a60c01b6139fb565b5b5b806133255750600360048111156132d8576132d7614ca0565b5b8260048111156132eb576132ea614ca0565b5b1480156133085750613307671df7ca73fdd5f08960c01b6139fb565b5b8015613324575061332367c7604bfe1761593e60c01b6139fb565b5b5b8061336f575060048081111561333e5761333d614ca0565b5b82600481111561335157613350614ca0565b5b14801561336e575061336d671f1dd918d649c50d60c01b6139fb565b5b5b6133ae576040517f08c379a00000000000000000000000000000000000000000000000000000000081526004016133a59061623e565b60405180910390fd5b6133c267d3446c1386bcd52060c01b611f58565b6133d667bd60e8be224c415860c01b611f58565b6133ea671c99f22afab2c38760c01b611f58565b600060048111156133fe576133fd614ca0565b5b82600481111561341157613410614ca0565b5b036134e15761342a67abc8139cb5de3d6960c01b611f58565b61343e6703c762ebdfb2af8b60c01b611f58565b613452675b405669e3c7249b60c01b611f58565b6000806000808480602001905181019061346c919061628a565b935093509350935061348867113f1faa563614a560c01b611f58565b61349c678aaa04b63e65d72360c01b611f58565b6134a7848484613a06565b6134bb6793f3b9eafed0472960c01b611f58565b6134cf679a6c8154532fe8e160c01b611f58565b6134d881613c1f565b505050506138b1565b6134f56705115094102eef9060c01b611f58565b613509674d71fb32128ea5ff60c01b611f58565b6001600481111561351d5761351c614ca0565b5b8260048111156135305761352f614ca0565b5b036135c0576135496774ce69767089729060c01b611f58565b61355d675b0026d67cd37b5a60c01b611f58565b61357167ab3bc011e3c5208660c01b611f58565b60008180602001905181019061358791906156d4565b905061359d672468f606adb2e14960c01b611f58565b6135b167182f316ffdb783a560c01b611f58565b6135ba81613d97565b506138b0565b6135d467a5530548fb7fea7a60c01b611f58565b6135e867d992299644075e2e60c01b611f58565b600260048111156135fc576135fb614ca0565b5b82600481111561360f5761360e614ca0565b5b0361369f5761362867d0e79426ac726ba460c01b611f58565b61363c679a0b0f6e0134c1c260c01b611f58565b6136506762767bc8f13292c760c01b611f58565b60008180602001905181019061366691906156d4565b905061367c67645ada8acac918a460c01b611f58565b61369067c2def935ac4332ee60c01b611f58565b61369981613fbb565b506138af565b6136b367782992a6ecd7f09660c01b611f58565b6136c767a34843d1d50cd37560c01b611f58565b600360048111156136db576136da614ca0565b5b8260048111156136ee576136ed614ca0565b5b0361377e57613707674a286ffc99ebbd2760c01b611f58565b61371b679f1aa986508f72a360c01b611f58565b61372f67b44dea35b541371360c01b611f58565b60008180602001905181019061374591906156d4565b905061375b67797c4fe04a13579f60c01b611f58565b61376f677e73317c53a36c8c60c01b611f58565b613778816141b3565b506138ae565b61379267b7ffaf0253fc80b660c01b611f58565b6137a6677d245fed762faa9d60c01b611f58565b6004808111156137b9576137b8614ca0565b5b8260048111156137cc576137cb614ca0565b5b03613898576137e567e6c0e439d11c5d9560c01b611f58565b6137f967cf080ded9364822760c01b611f58565b61380d6745b54636c153082960c01b611f58565b6000806000838060200190518101906138269190616388565b925092509250613840673877f56903cc407d60c01b611f58565b6138546740bf9ff3b15919e760c01b611f58565b61385d82612767565b61387167edbd69341c0be9d060c01b611f58565b61388567fb645865f36e093960c01b611f58565b6138908383836143aa565b5050506138ad565b6138ac6773e287f627dffbbe60c01b611f58565b5b5b5b5b5b50505050565b60008060007f7fffffffffffffffffffffffffffffff5d576e7357a4501ddfe92f46681b20a08460001c11156138f75760006003859250925092506139a1565b60006001888888886040516000815260200160405260405161391c94939291906163f7565b6020604051602081039080840390855afa15801561393e573d6000803e3d6000fd5b505050602060405103519050600073ffffffffffffffffffffffffffffffffffffffff168173ffffffffffffffffffffffffffffffffffffffff160361399257600060016000801b935093509350506139a1565b8060008060001b935093509350505b9450945094915050565b60008060ff8360001c169050601f8111156139f2576040517fb3512b0c00000000000000000000000000000000000000000000000000000000815260040160405180910390fd5b80915050919050565b600060019050919050565b613a1a67e373657438eebc7160c01b612f57565b613a2e67676dc47ea65c98fc60c01b612f57565b613a4267b1f367bfb915806760c01b612f57565b613a566747274a11b645dbe960c01b612f57565b60008360ff1611613a9c576040517f08c379a0000000000000000000000000000000000000000000000000000000008152600401613a93906164ae565b60405180910390fd5b613ab06771e7ea316d0dd3dd60c01b612f57565b613ac4678e46c6423564691060c01b612f57565b613ad867e34da73b324c648c60c01b612f57565b613aec677c2e118cdcd9ca1d60c01b612f57565b818111613b2e576040517f08c379a0000000000000000000000000000000000000000000000000000000008152600401613b259061651a565b60405180910390fd5b613b42677ab9574300d83e9060c01b612f57565b613b5667cb644ed5ccbaa99f60c01b612f57565b826000806101000a81548160ff021916908360ff160217905550613b846717a125060a06982b60c01b612f57565b81600181905550613b9f67cb95cc6e6a0c930e60c01b612f57565b80600281905550613bba67d570c31346489c1360c01b612f57565b613bce670bf61ea26ac53ca160c01b612f57565b7f661124c8826d75343ee919baad251f50d4348b31f86cd88dabc18a6d96e351bd60008054906101000a900460ff16600154600254604051613c129392919061653a565b60405180910390a1505050565b613c33675cf542d89377bd7160c01b611f58565b613c4767d9800dc700e43ae760c01b611f58565b613c5b67b303df484fe9765d60c01b611f58565b613c6f67897bf090420dbb4e60c01b611f58565b60006005811115613c8357613c82614ca0565b5b613c8b610a6f565b6005811115613c9d57613c9c614ca0565b5b14613cdd576040517f08c379a0000000000000000000000000000000000000000000000000000000008152600401613cd490615b9b565b60405180910390fd5b613cf167e9217280088805a860c01b611f58565b613d0567bd00b106b26d080860c01b611f58565b613d19672f1c84657e6693b060c01b611f58565b613d236001614646565b613d376778e28d4d67d054b860c01b611f58565b80600a81905550613d5267633b6e8bc6ded68160c01b611f58565b613d66679f551514a56674b060c01b611f58565b600a547e6e0c97de781a7389d44ba8fd35d1467cabb17ed04d038d166d34ab819213f360405160405180910390a250565b613dab673332e788f661e01a60c01b611f58565b613dbf6706500d3a6b7ffc1560c01b611f58565b613dd367bfc891842ac3c18b60c01b611f58565b6000613ddd610a6f565b9050613df3672b04e8d464816a4f60c01b611f58565b613e0767c2a23320c734fb7060c01b611f58565b613e1b6729764b574227b84060c01b611f58565b60016005811115613e2f57613e2e614ca0565b5b816005811115613e4257613e41614ca0565b5b148015613e5f5750613e5e676261976cf7ea9bef60c01b6139fb565b5b80613ea95750600580811115613e7857613e77614ca0565b5b816005811115613e8b57613e8a614ca0565b5b148015613ea85750613ea767f7a34efa684559ca60c01b6139fb565b5b5b613ee8576040517f08c379a0000000000000000000000000000000000000000000000000000000008152600401613edf90615b9b565b60405180910390fd5b613efc675347c97413e9b6de60c01b611f58565b613f1067d46123a63f48297e60c01b611f58565b613f24678a1024aff101d8fe60c01b611f58565b613f2d826146f1565b613f416727b489d30ff0d41360c01b611f58565b613f55679874bb831556736a60c01b611f58565b613f5f6002614646565b613f736725210b999fd9622160c01b611f58565b613f87671e205b4b5c3efbb860c01b611f58565b81600a547fb13a0ba3ad52c86ee11584148a76f518c4f4f69aa1f9538fd840f870d087db3560405160405180910390a35050565b613fcf67a3e41906d823e2f460c01b611f58565b613fe3675108c21cbf9ebde160c01b611f58565b613ff76785d73b8f1b21ed5d60c01b611f58565b61400b674b241b6f0719133560c01b611f58565b6002600581111561401f5761401e614ca0565b5b614027610a6f565b600581111561403957614038614ca0565b5b14614079576040517f08c379a000000000000000000000000000000000000000000000000000000000815260040161407090615b9b565b60405180910390fd5b61408d676a9bbb2aa75752a060c01b611f58565b6140a16709aa518733b895b660c01b611f58565b6140b567ab89a207f3d617f560c01b611f58565b6140c967b2fe19d12f03345860c01b611f58565b806140d2610ed6565b14614112576040517f08c379a0000000000000000000000000000000000000000000000000000000008152600401614109906165bd565b60405180910390fd5b614126674431fa517348376560c01b611f58565b61413a673db052b789755b3d60c01b611f58565b61414e67f704cbf94ab720f460c01b611f58565b6141586003614646565b61416c67f00573b15fa2ba2960c01b611f58565b61418067830e90cdcbd579e460c01b611f58565b80600a547fcd685fc2e41f356efee893f4a0fdabbd8db204a2d3370178ee140be6a7b862c860405160405180910390a350565b6141c767ca00f92d0cfe509b60c01b611f58565b6141da660b76bf5f875d0560c01b611f58565b6141ee672e2a3a56eca94cb260c01b611f58565b61420267272e57748a2a39ca60c01b611f58565b6003600581111561421657614215614ca0565b5b61421e610a6f565b60058111156142305761422f614ca0565b5b14614270576040517f08c379a000000000000000000000000000000000000000000000000000000000815260040161426790615b9b565b60405180910390fd5b6142846793aecee7d4e5fc4660c01b611f58565b61429867dc98370c33cc700560c01b611f58565b6142ac6711a1c3649b782b3160c01b611f58565b6142c0677486c389f507b29d60c01b611f58565b806142c9610ed6565b14614309576040517f08c379a0000000000000000000000000000000000000000000000000000000008152600401614300906165bd565b60405180910390fd5b61431d679a058b81df95900760c01b611f58565b61433167ea5ee3b47fe3ce2560c01b611f58565b61434567acdc8a5db1e7abbf60c01b611f58565b61434f6004614646565b61436367fc5bcc1bbbe923b560c01b611f58565b61437767ef40bcd48a7c4f6060c01b611f58565b80600a547f0431008c3c12c25ab760821c95df6b194e9565847dc268c39700c60918bd753d60405160405180910390a350565b6143be67e405b8c3c5748cc460c01b611f58565b6143d267385cdb9f1a28041c60c01b611f58565b6143e667cb8f2d5a4205d4c460c01b611f58565b60006143f0610a6f565b9050614406679a74876ce40dac0360c01b611f58565b61441a6746379db9f51cb89660c01b611f58565b61442e6771a6aea8ab57c71360c01b611f58565b6003600581111561444257614441614ca0565b5b81600581111561445557614454614ca0565b5b148015614472575061447167728351d6aa9db0d660c01b6139fb565b5b806144bd57506004600581111561448c5761448b614ca0565b5b81600581111561449f5761449e614ca0565b5b1480156144bc57506144bb675729fb1fcec946f760c01b6139fb565b5b5b6144fc576040517f08c379a00000000000000000000000000000000000000000000000000000000081526004016144f390615b9b565b60405180910390fd5b61451067070b4c3599765f9760c01b611f58565b61452467b63ab6ca8309f12060c01b611f58565b6145386719f4ae71e5f504d560c01b611f58565b61454c672ff2e01fa4d8f6d260c01b611f58565b83614555610ed6565b14614595576040517f08c379a000000000000000000000000000000000000000000000000000000000815260040161458c906165bd565b60405180910390fd5b6145a967e33182a1b91a261b60c01b611f58565b6145bd675fb0855128960cfc60c01b611f58565b6145d167a9c991833fd0bd5860c01b611f58565b6145db6005614646565b6145ef67cc35d1d4af4dd4ff60c01b611f58565b614603672ce14eaf1925815160c01b611f58565b83600a547f36da6afdab9c7204750d9f550024b9e4fac142f3bb4c7652360647c90adeb66d85856040516146389291906165dd565b60405180910390a350505050565b61465a67535bbfc84dff454560c01b611f58565b61466e67d6c8f68cde00910d60c01b611f58565b8060405160200161467f9190614d17565b60405160208183030381529060405260096040518060400160405280600781526020017f5f737461747573000000000000000000000000000000000000000000000000008152506040516146d3919061559d565b908152602001604051809103902090816146ed919061660d565b5050565b61470567d30161503aa7484260c01b611f58565b61471967badf25b719e06c9560c01b611f58565b8060405160200161472a9190614c45565b60405160208183030381529060405260096040518060400160405280600b81526020017f5f647261774e756d62657200000000000000000000000000000000000000000081525060405161477e919061559d565b90815260200160405180910390209081614798919061660d565b5050565b6040518060600160405280600073ffffffffffffffffffffffffffffffffffffffff16815260200160008152602001606081525090565b6000604051905090565b600080fd5b600080fd5b60007fffffffff0000000000000000000000000000000000000000000000000000000082169050919050565b61481c816147e7565b811461482757600080fd5b50565b60008135905061483981614813565b92915050565b600060208284031215614855576148546147dd565b5b60006148638482850161482a565b91505092915050565b60008115159050919050565b6148818161486c565b82525050565b600060208201905061489c6000830184614878565b92915050565b600073ffffffffffffffffffffffffffffffffffffffff82169050919050565b60006148cd826148a2565b9050919050565b6148dd816148c2565b81146148e857600080fd5b50565b6000813590506148fa816148d4565b92915050565b600080fd5b600080fd5b600080fd5b60008083601f84011261492557614924614900565b5b8235905067ffffffffffffffff81111561494257614941614905565b5b60208301915083600182028301111561495e5761495d61490a565b5b9250929050565b6000819050919050565b61497881614965565b811461498357600080fd5b50565b6000813590506149958161496f565b92915050565b600080600080606085870312156149b5576149b46147dd565b5b60006149c3878288016148eb565b945050602085013567ffffffffffffffff8111156149e4576149e36147e2565b5b6149f08782880161490f565b93509350506040614a0387828801614986565b91505092959194509250565b614a18816148c2565b82525050565b614a2781614965565b82525050565b600081519050919050565b600082825260208201905092915050565b60005b83811015614a67578082015181840152602081019050614a4c565b60008484015250505050565b6000601f19601f8301169050919050565b6000614a8f82614a2d565b614a998185614a38565b9350614aa9818560208601614a49565b614ab281614a73565b840191505092915050565b6000606083016000830151614ad56000860182614a0f565b506020830151614ae86020860182614a1e565b5060408301518482036040860152614b008282614a84565b9150508091505092915050565b6000819050919050565b614b2081614b0d565b82525050565b60006040820190508181036000830152614b408185614abd565b9050614b4f6020830184614b17565b9392505050565b600082825260208201905092915050565b6000614b7282614a2d565b614b7c8185614b56565b9350614b8c818560208601614a49565b614b9581614a73565b840191505092915050565b60006020820190508181036000830152614bba8184614b67565b905092915050565b614bcb81614b0d565b8114614bd657600080fd5b50565b600081359050614be881614bc2565b92915050565b600060208284031215614c0457614c036147dd565b5b6000614c1284828501614bd9565b91505092915050565b6000602082019050614c306000830184614b17565b92915050565b614c3f81614965565b82525050565b6000602082019050614c5a6000830184614c36565b92915050565b60008060408385031215614c7757614c766147dd565b5b6000614c8585828601614bd9565b9250506020614c96858286016148eb565b9150509250929050565b7f4e487b7100000000000000000000000000000000000000000000000000000000600052602160045260246000fd5b60068110614ce057614cdf614ca0565b5b50565b6000819050614cf182614ccf565b919050565b6000614d0182614ce3565b9050919050565b614d1181614cf6565b82525050565b6000602082019050614d2c6000830184614d08565b92915050565b600080600060408486031215614d4b57614d4a6147dd565b5b6000614d59868287016148eb565b935050602084013567ffffffffffffffff811115614d7a57614d796147e2565b5b614d868682870161490f565b92509250509250925092565b600080fd5b7f4e487b7100000000000000000000000000000000000000000000000000000000600052604160045260246000fd5b614dcf82614a73565b810181811067ffffffffffffffff82111715614dee57614ded614d97565b5b80604052505050565b6000614e016147d3565b9050614e0d8282614dc6565b919050565b600067ffffffffffffffff821115614e2d57614e2c614d97565b5b614e3682614a73565b9050602081019050919050565b82818337600083830152505050565b6000614e65614e6084614e12565b614df7565b905082815260208101848484011115614e8157614e80614d92565b5b614e8c848285614e43565b509392505050565b600082601f830112614ea957614ea8614900565b5b8135614eb9848260208601614e52565b91505092915050565b600060208284031215614ed857614ed76147dd565b5b600082013567ffffffffffffffff811115614ef657614ef56147e2565b5b614f0284828501614e94565b91505092915050565b600063ffffffff82169050919050565b614f2481614f0b565b82525050565b6000602082019050614f3f6000830184614f1b565b92915050565b600060208284031215614f5b57614f5a6147dd565b5b6000614f69848285016148eb565b91505092915050565b60007fff0000000000000000000000000000000000000000000000000000000000000082169050919050565b614fa781614f72565b82525050565b600081519050919050565b600082825260208201905092915050565b6000614fd482614fad565b614fde8185614fb8565b9350614fee818560208601614a49565b614ff781614a73565b840191505092915050565b61500b816148c2565b82525050565b600081519050919050565b600082825260208201905092915050565b6000819050602082019050919050565b60006150498383614a1e565b60208301905092915050565b6000602082019050919050565b600061506d82615011565b615077818561501c565b93506150828361502d565b8060005b838110156150b357815161509a888261503d565b97506150a583615055565b925050600181019050615086565b5085935050505092915050565b600060e0820190506150d5600083018a614f9e565b81810360208301526150e78189614fc9565b905081810360408301526150fb8188614fc9565b905061510a6060830187614c36565b6151176080830186615002565b61512460a0830185614b17565b81810360c08301526151368184615062565b905098975050505050505050565b60006020820190506151596000830184615002565b92915050565b60008083601f84011261517557615174614900565b5b8235905067ffffffffffffffff81111561519257615191614905565b5b6020830191508360208202830111156151ae576151ad61490a565b5b9250929050565b60008060008060008060008060008060a08b8d0312156151d8576151d76147dd565b5b60008b013567ffffffffffffffff8111156151f6576151f56147e2565b5b6152028d828e0161515f565b9a509a505060208b013567ffffffffffffffff811115615225576152246147e2565b5b6152318d828e0161515f565b985098505060408b013567ffffffffffffffff811115615254576152536147e2565b5b6152608d828e0161515f565b965096505060608b013567ffffffffffffffff811115615283576152826147e2565b5b61528f8d828e0161515f565b945094505060808b013567ffffffffffffffff8111156152b2576152b16147e2565b5b6152be8d828e0161515f565b92509250509295989b9194979a5092959850565b600080fd5b6000606082840312156152ed576152ec6152d2565b5b81905092915050565b60008060006040848603121561530f5761530e6147dd565b5b600084013567ffffffffffffffff81111561532d5761532c6147e2565b5b615339868287016152d7565b935050602084013567ffffffffffffffff81111561535a576153596147e2565b5b6153668682870161490f565b92509250509250925092565b600060ff82169050919050565b61538881615372565b82525050565b60006020820190506153a3600083018461537f565b92915050565b600067ffffffffffffffff8211156153c4576153c3614d97565b5b602082029050602081019050919050565b60006153e86153e3846153a9565b614df7565b9050808382526020820190506020840283018581111561540b5761540a61490a565b5b835b8181101561543457806154208882614986565b84526020840193505060208101905061540d565b5050509392505050565b600082601f83011261545357615452614900565b5b81356154638482602086016153d5565b91505092915050565b600060208284031215615482576154816147dd565b5b600082013567ffffffffffffffff8111156154a05761549f6147e2565b5b6154ac8482850161543e565b91505092915050565b60006040820190506154ca6000830185614c36565b6154d76020830184614c36565b9392505050565b600081905092915050565b60006154f583856154de565b9350615502838584614e43565b82840190509392505050565b600061551b8284866154e9565b91508190509392505050565b600060808201905061553c6000830187614b17565b6155496020830186615002565b6155566040830185614c36565b6155636060830184614b17565b95945050505050565b600061557782614a2d565b61558181856154de565b9350615591818560208601614a49565b80840191505092915050565b60006155a9828461556c565b915081905092915050565b7f4e487b7100000000000000000000000000000000000000000000000000000000600052602260045260246000fd5b600060028204905060018216806155fb57607f821691505b60208210810361560e5761560d6155b4565b5b50919050565b6006811061562157600080fd5b50565b60008151905061563381615614565b92915050565b60006020828403121561564f5761564e6147dd565b5b600061565d84828501615624565b91505092915050565b61566f81614f0b565b811461567a57600080fd5b50565b60008151905061568c81615666565b92915050565b6000602082840312156156a8576156a76147dd565b5b60006156b68482850161567d565b91505092915050565b6000815190506156ce8161496f565b92915050565b6000602082840312156156ea576156e96147dd565b5b60006156f8848285016156bf565b91505092915050565b7f4e487b7100000000000000000000000000000000000000000000000000000000600052601160045260246000fd5b600061573b82614965565b915061574683614965565b925082820190508082111561575e5761575d615701565b5b92915050565b600080fd5b600080fd5b600080fd5b600080833560016020038436030381126157905761578f615764565b5b80840192508235915067ffffffffffffffff8211156157b2576157b1615769565b5b6020830192506001820236038313156157ce576157cd61576e565b5b509250929050565b600067ffffffffffffffff8211156157f1576157f0614d97565b5b602082029050602081019050919050565b6000615815615810846157d6565b614df7565b905080838252602082019050602084028301858111156158385761583761490a565b5b835b8181101561587f57803567ffffffffffffffff81111561585d5761585c614900565b5b80860161586a8982614e94565b8552602085019450505060208101905061583a565b5050509392505050565b600082601f83011261589e5761589d614900565b5b81356158ae848260208601615802565b91505092915050565b600080600080600060a086880312156158d3576158d26147dd565b5b600086013567ffffffffffffffff8111156158f1576158f06147e2565b5b6158fd88828901615889565b955050602086013567ffffffffffffffff81111561591e5761591d6147e2565b5b61592a88828901615889565b945050604086013567ffffffffffffffff81111561594b5761594a6147e2565b5b61595788828901615889565b935050606086013567ffffffffffffffff811115615978576159776147e2565b5b61598488828901615889565b925050608086013567ffffffffffffffff8111156159a5576159a46147e2565b5b6159b188828901615889565b9150509295509295909350565b600081519050919050565b600082825260208201905092915050565b6000819050602082019050919050565b60006159f68383614a84565b905092915050565b6000602082019050919050565b6000615a16826159be565b615a2081856159c9565b935083602082028501615a32856159da565b8060005b85811015615a6e5784840389528151615a4f85826159ea565b9450615a5a836159fe565b925060208a01995050600181019050615a36565b50829750879550505050505092915050565b600060a0820190508181036000830152615a9a8188615a0b565b90508181036020830152615aae8187615a0b565b90508181036040830152615ac28186615a0b565b90508181036060830152615ad68185615a0b565b90508181036080830152615aea8184615a0b565b90509695505050505050565b615aff8161486c565b8114615b0a57600080fd5b50565b600081519050615b1c81615af6565b92915050565b600060208284031215615b3857615b376147dd565b5b6000615b4684828501615b0d565b91505092915050565b7f496e636f72726563742053746174757300000000000000000000000000000000600082015250565b6000615b85601083614fb8565b9150615b9082615b4f565b602082019050919050565b60006020820190508181036000830152615bb481615b78565b9050919050565b60006020820190508181036000830152615bd58184615062565b905092915050565b7f4e487b7100000000000000000000000000000000000000000000000000000000600052603260045260246000fd5b6000615c188385614b56565b9350615c25838584614e43565b615c2e83614a73565b840190509392505050565b60006060820190508181036000830152615c54818688615c0c565b9050615c636020830185614f1b565b615c706040830184614f1b565b95945050505050565b600082905092915050565b60008190508160005260206000209050919050565b60006020601f8301049050919050565b600082821b905092915050565b600060088302615ce67fffffffffffffffffffffffffffffffffffffffffffffffffffffffffffffffff82615ca9565b615cf08683615ca9565b95508019841693508086168417925050509392505050565b6000819050919050565b6000615d2d615d28615d2384614965565b615d08565b614965565b9050919050565b6000819050919050565b615d4783615d12565b615d5b615d5382615d34565b848454615cb6565b825550505050565b600090565b615d70615d63565b615d7b818484615d3e565b505050565b5b81811015615d9f57615d94600082615d68565b600181019050615d81565b5050565b601f821115615de457615db581615c84565b615dbe84615c99565b81016020851015615dcd578190505b615de1615dd985615c99565b830182615d80565b50505b505050565b600082821c905092915050565b6000615e0760001984600802615de9565b1980831691505092915050565b6000615e208383615df6565b9150826002028217905092915050565b615e3a8383615c79565b67ffffffffffffffff811115615e5357615e52614d97565b5b615e5d82546155e3565b615e68828285615da3565b6000601f831160018114615e975760008415615e85578287013590505b615e8f8582615e14565b865550615ef7565b601f198416615ea586615c84565b60005b82811015615ecd57848901358255600182019150602085019450602081019050615ea8565b86831015615eea5784890135615ee6601f891682615df6565b8355505b6001600288020188555050505b50505050505050565b7f496e636f7272656374206e62206e756d62657273000000000000000000000000600082015250565b6000615f36601483614fb8565b9150615f4182615f00565b602082019050919050565b60006020820190508181036000830152615f6581615f29565b9050919050565b7f4e756d62657220746f6f206c6f77000000000000000000000000000000000000600082015250565b6000615fa2600e83614fb8565b9150615fad82615f6c565b602082019050919050565b60006020820190508181036000830152615fd181615f95565b9050919050565b7f4e756d62657220746f6f20686967680000000000000000000000000000000000600082015250565b600061600e600f83614fb8565b915061601982615fd8565b602082019050919050565b6000602082019050818103600083015261603d81616001565b9050919050565b60006040820190506160596000830185615002565b6160666020830184614b17565b9392505050565b600080fd5b600080fd5b6000808585111561608b5761608a61606d565b5b8386111561609c5761609b616072565b5b6001850283019150848603905094509492505050565b7f436f6e666967206e6f7420736574000000000000000000000000000000000000600082015250565b60006160e8600e83614fb8565b91506160f3826160b2565b602082019050919050565b60006020820190508181036000830152616117816160db565b9050919050565b600060a0820190506161336000830188614b17565b6161406020830187614b17565b61614d6040830186614b17565b61615a6060830185614c36565b6161676080830184615002565b9695505050505050565b6005811061617e57600080fd5b50565b60008135905061619081616171565b92915050565b600080604083850312156161ad576161ac6147dd565b5b60006161bb85828601616181565b925050602083013567ffffffffffffffff8111156161dc576161db6147e2565b5b6161e885828601614e94565b9150509250929050565b7f63616e6e6f7420706172736520616374696f6e00000000000000000000000000600082015250565b6000616228601383614fb8565b9150616233826161f2565b602082019050919050565b600060208201905081810360008301526162578161621b565b9050919050565b61626781615372565b811461627257600080fd5b50565b6000815190506162848161625e565b92915050565b600080600080608085870312156162a4576162a36147dd565b5b60006162b287828801616275565b94505060206162c3878288016156bf565b93505060406162d4878288016156bf565b92505060606162e5878288016156bf565b91505092959194509250565b60006163046162ff846153a9565b614df7565b905080838252602082019050602084028301858111156163275761632661490a565b5b835b81811015616350578061633c88826156bf565b845260208401935050602081019050616329565b5050509392505050565b600082601f83011261636f5761636e614900565b5b815161637f8482602086016162f1565b91505092915050565b6000806000606084860312156163a1576163a06147dd565b5b60006163af868287016156bf565b935050602084015167ffffffffffffffff8111156163d0576163cf6147e2565b5b6163dc8682870161635a565b92505060406163ed86828701615b0d565b9150509250925092565b600060808201905061640c6000830187614b17565b616419602083018661537f565b6164266040830185614b17565b6164336060830184614b17565b95945050505050565b7f4e62204e756d62657273206d7573742062652067726561746572207468616e2060008201527f3000000000000000000000000000000000000000000000000000000000000000602082015250565b6000616498602183614fb8565b91506164a38261643c565b604082019050919050565b600060208201905081810360008301526164c78161648b565b9050919050565b7f6d6178206d7573742062652067726561746572207468616e206d696e00000000600082015250565b6000616504601c83614fb8565b915061650f826164ce565b602082019050919050565b60006020820190508181036000830152616533816164f7565b9050919050565b600060608201905061654f600083018661537f565b61655c6020830185614c36565b6165696040830184614c36565b949350505050565b7f496e636f72726563742044726177204e756d6265720000000000000000000000600082015250565b60006165a7601583614fb8565b91506165b282616571565b602082019050919050565b600060208201905081810360008301526165d68161659a565b9050919050565b600060408201905081810360008301526165f78185615062565b90506166066020830184614878565b9392505050565b61661682614a2d565b67ffffffffffffffff81111561662f5761662e614d97565b5b61663982546155e3565b616644828285615da3565b600060209050601f8311600181146166775760008415616665578287015190505b61666f8582615e14565b8655506166d7565b601f19841661668586615c84565b60005b828110156166ad57848901518255600182019150602085019450602081019050616688565b868310156166ca57848901516166c6601f891682615df6565b8355505b6001600288020188555050505b50505050505056fea2646970667358221220c18cfa9921a73a3bd76e3f6e866bf0eb28a75aede5e741bbc21407946eadc8e664736f6c63430008180033",
  "linkReferences": {},
  "deployedLinkReferences": {}
}